:100000000C94E70C0C940F0D0C940F0D0C940F0D29
:100010000C940F0D0C940F0D0C940F0D0C940F0DF0
:100020000C940F0D0C940F0D0C94A41E0C94131F24
:100030000C940F0D0C940F0D0C940F0D0C940F0DD0
:100040000C940F0D0C940F0D0C940F0D0C940F0DC0
:100050000C940F0D0C940F0D0C940F0D0C94452166
:100060000C940F0D0C940F0D0C940F0D0C940F0DA0
:100070000C940F0D0C940F0D0C940F0D0C940F0D90
:100080000C948F210C940F0D0C940F0D0C940F0DEC
:100090000C940F0D0C940F0D0C940F0D0C940F0D70
:1000A0000C940F0D0C940F0D0C940F0D08080807FD
:1000B00007070707070A0A0A0301010101010101F5
:1000C00001010808080707070707070A0A0A0301CA
:1000D000010010001010101108080703030707079C
:1000E000070A070703000222001222111222080841
:1000F000070101070707070A070703000222011289
:10010000221112220808080707070707070A0A0A28
:10011000031111100001011111010808070107075F
:100120000707070A0A070301012211012210112201
:100130000808070407070707070A0A070310102221
:100140000001220110220808080707070707070A0D
:100150000A0A03010001101110110011080807011B
:1001600007070707070A0A070301012211012210E6
:1001700010220808070307070707070A0A070310E2
:1001800010220100220111220808070706070707AD
:10019000070A0A07031010000001221101220808B3
:1001A000070703070707070A0A07031110220001C0
:1001B000221000220808070606070707070A070794
:1001C0000310122201022210022208080707070763
:1001D0000707070A07070301022201122210122251
:1001E0000808070707070707070A0A07031110226D
:1001F0000001221100220808080707070707070A5D
:10020000070703111212000202001202080707007A
:1002100007030707070A0A07021120220021220804
:1002200007070707070707070A0A07021120220026
:1002300021220807070107070707070A0707020126
:1002400022221022220808070707070707070A07C4
:1002500007030102220012221112220808070707D1
:10026000070707070A0707030102220012221012DC
:10027000220808070707070707070A0707030002FE
:100280002201122210122208080707070707070792
:100290000A0707030002220012221112220808078F
:1002A0000707070707070A070703010222011222AF
:1002B0001012220808070707070707070A0707039E
:1002C000000222011222111222080707070707075E
:1002D00007070A0707020122221022224E4F54006C
:1002E000584E4F5200584F52004E4F52004F52003E
:1002F0004E414E4400414E44000000000001000108
:1003000000000101010000010001010100010101E3
:1003100000000000000101010001010101000001D5
:1003200000010001000001010000000000010101C6
:1003300000010101000000010001000100000101B5
:1003400001000201010200020202020202FFFFFF9D
:10035000FFFFFFFFFFFFFF3F3F3F3F3F3F3F3F3F6D
:100360003F0A0E00FEC2C202C2DE1EFE00001F10C7
:100370001616101E1E1F0000FEC2DA1AC2DE1EFE76
:1003800000001F101010101E1E1F0000FEC2DA1AFF
:10039000021E1EFE00001F101616101E1E1F00005B
:1003A000FE0E0E0E8EBE3EFE00001F1F1F1C1D1DEA
:1003B0001C1F000000000000000000000000000002
:1003C0000000000000000000FE0E6E6E0E3E3EFEBD
:1003D00000001F1F1F1C1C1C1C1F000A0E00FEBE5D
:1003E0008EB6B68EBEFE00001F1A1A1A1A1A1A1FEF
:1003F00000FFFFFFFFFFFFFFFFFFFF3F3F3F3F3FCC
:100400003F3F3F3F3F0A0E00FEEEE6E2E6EEFEFE15
:1004100000001F1D1911191D1F1F000504060909E1
:1004200009060E040406040F02040906060904095D
:100430000604040F0506070807010F060907010651
:10044000020204080F060906090603040A09060544
:1004500016EE226222E2C848D452D21D04040405DA
:1004600005051F1B1B1B1F05051F1B111B1F101440
:100470000000000000F02040802010048C4010306C
:100480000808080808FF00008041221C0808080826
:100490000000000000070201000000000000000052
:1004A0000000000000F0E0C080000000804010303C
:1004B0000808080808FFFFFFFF7F3E1C080808081F
:1004C0000000000000070301000000000000000021
:1004D0000000000000F0E0C0802010040C000000CC
:1004E0000808080808FFFFFFFF7F3E1C08080808EF
:1004F00000000000000703010000000000000000F1
:100500003EFFAB55AB55AB55AB55AB56ACF8E0E049
:100510003E7F6A556A556A556A556A351A0F030354
:100520003EFFAB55AB55AB55AB55AB56ACF8E0E029
:100530003E7F6A556A556A556A556A351A0F030334
:100540003E3F0DFB55AB55AB55AB55AB56AC78E0CC
:100550003E7E586F556A556A556A556A351A0F03BB
:100560003E3F1DFB55AB55AB55AB55AA54B8E0E02B
:100570003E7E5C6F556A556A556A552A150E03030F
:100580003C3F0CF0030DFB55AB55AB55AA54F8E0BE
:100590001E7E180760586F556A556A552A150F0355
:1005A0003E3F0CF0030DFB55AB55AB56ACF8E0E00D
:1005B0003E7E180760586F556A556A351A0F030357
:1005C00080C0C0FFAB56AC58B0E0C0C08080808017
:1005D0000001017F6A351A0D0603010100000000C9
:1005E000000000000000000000000000000000000B
:1005F00000000000000000000000000000000000FB
:1006000011098282C745C70404040808101038285D
:10061000381010000001010100000000000000007F
:10062000000000008282C745C740404020201010D3
:1006300038283810100000010101000000000000FF
:10064000000000000000061AFFBDB9B139BDFF8BE4
:10065000EBCAE98BFF36D6D2D4D6030302020202DC
:100660000513D151D55BD125A4B4ACA50304040472
:1006700004151355000100010001000100010001F3
:1006800000010001000100555500000000000000BD
:1006900000000000000000000000000055050004FC
:1006A000000400040004000400040004000400042A
:1006B00000050208D4D205087F7F3E1C084120FEB9
:1006C0000105F1F1F111D1B1D111F1515151515156
:1006D0005151515151515151510000FF00007F7F44
:1006E00009090F06007F7F19396F46007F7F49494E
:1006F000414100266F49497B3200266F49497B32D0
:10070000FF0000FFFFFFFEFFFEFF0279CD95A5CDA4
:10071000790111111101F9F901010000FF00007FB9
:100720007F09090F06007F7F40404040007C7E0B20
:100730000B7E7C00070F78780F0700000000000098
:1007400000FF00001F3F3F33333333333E36363E26
:10075000363E363E36363E36363E360000FF000028
:100760003E7F41417F3E007F7F0E1C7F7F00000067
:100770000000000000000000000000000000000079
:1007800000003F4050404040784641415959414166
:1007900041415959414141414141414100007F009E
:1007A0000001017F7F0101007C7E0B0B7E7C007FBE
:1007B0007F09090F06007F7F494941410000000081
:1007C00000000004083E09093E3F25251A1E21218C
:1007D000123F21211E3F2525213F0505011E21290C
:1007E0003A3F04043F213F21001021211F3F040A0A
:1007F000313F2020203F02023F3F02043F1E2121C3
:100800001E3F0909061E21112E3F09093622252502
:1008100019013F01011F20201F0F10201F3F101042
:100820003F3B04043B03043807312D2321102A2ABF
:100830003C3F2424181C2222141824243F1C2A2A5A
:100840002C047E05014C52523E3F040438243D20C6
:10085000004040443D3F081422213F20003E040454
:100860003E3E04023C1C22221C7E22221C1C222210
:100870007E3E040204242A2A12021F22201E202067
:100880001E0E10201E3E10103E360808364E5050E8
:100890003E322A26221E29251E223F2000322929E7
:1008A000261221251A0C0A3F08172525191E252571
:1008B00018013905031A25251A0629291E002F00BB
:1008C000000020000002290502D5F08D14A1C88186
:1008D000CFD9F1AF200031007D00000032002100AF
:1008E000900100800B027D00000032009302F401B1
:1008F0000000320000804F004100412020204F00C6
:10090000410A4200412042204F00F502F002ED0270
:10091000E902E502E002DC02101008FF010101011A
:1009200001010102020418E08080087F404040403D
:100930004040402020100C03000008FF010101018D
:1009400001010102020418E040C0087F404040401D
:100950004040402020100C030101080B0DF1010163
:1009600001010101020204186080086858474040F4
:10097000404040402020100C0300080B0DF1010105
:1009800001010102020418E040C0086858474040D5
:100990004040402020100C030101080B0CF0030D17
:1009A000F10101010202041860800868180760580C
:1009B000474040402020100C0300080B0CF0030DB2
:1009C000F1010102020418E040C0086818076058ED
:1009D0004740402020100C030101808080FF02046A
:1009E000081020C040C0808080800000007F201060
:1009F00008040201010100000000000000000000E6
:100A000000000000000000000000000000000000E6
:100A1000000000000000000000000508DF9F1F9F8D
:100A2000DF0508FBF9F8F9FB0A0AFC0201894141DC
:100A3000890102FC000102020202020201000A0A0C
:100A4000FC0201498181490102FC0001020202020B
:100A500002020100517569740048656C700003055D
:100A60001F0E04496E666F00546573740042616323
:100A70006B0006075456555556545175697400421B
:100A800061636B0A546573740A496E666F0A486540
:100A90006C700008083C7E83EDED837E3C4C766CE8
:100AA000200000FEFEFEFEFEFEFEFEFE0000000038
:100AB00000000000000000000080C0E0F0F8F8FC3A
:100AC000FCFEFEFEFEFEFEFEFEFEFEFEFCFCF8F858
:100AD000F0E0C08000000000000000C0E0F0F0F88E
:100AE000FCFCFCFEFEFEFEFEFEFEFEFEFCFCFCF838
:100AF000F0E0C0800000FEFEFCF8F2E6CE9E3E7EF6
:100B0000FEFEFEFEFEFEFEE0C08000000000008053
:100B1000C0E0FEFEFEFEFEFEFE7E3E1E000000FF6A
:100B2000FFFFFFFFFFFFFFFF0000000000000000CD
:100B30000000F0FCFFFFFFFFFFFFFF7F1F0F070715
:100B4000030303030307070F1F7FFFFFFFFFFFFFE1
:100B5000FFFCF0C0FCFEFFFFFFFFFFFFFF1F0F07C2
:100B60000703E3E3E3E3E7E7E7EFEFEFE7E3E1E0E2
:100B7000E060FFFFFFFFFFFFFFFFFF000003071F15
:100B80003F7FFFFFFFFFFFFCF8FCFFFFFFFFFF7F42
:100B90001F0F070300000000000000FFFFFFFFFF22
:100BA000FF7F3F1F000000000000000000007FFFEB
:100BB000FFFFFFFFFFFFFFF0C0800000000000000C
:100BC00000000080C0F0FFFFFFFFFFFFFFFF7F1F5F
:100BD000FFFFFFFFFFFFFFFFF880000000003F3F27
:100BE0003F3F3F3F3FBFBFFFFF9F0F070100FFFF9A
:100BF000FFFFFFFFFFFFFF0000000080E0F0F8FFB5
:100C0000FFFFFFFFFFFFFFFFFFFFF8F0E0800000A6
:100C1000000000000000001F0F87C3E1F0F8FCFE99
:100C2000FEFEFEFEFEFEFEFEFEFEFEFFFFFF1F3F7F
:100C30007FFFFFFFFFFFFFFFFEFEFEFEFEFFFFFF49
:100C4000FFFFFFFF7F3F1F0F0701000001030F1F82
:100C50003F7FFFFFFFFFFFFFFEFEFEFEFEFEFEFFEB
:100C6000FFFFFFFF7F7F1F0E0000FFFFFFFFFF7FE3
:100C7000BFDFEFF0FCFEFFFFFFFFFF3F1F0F07018D
:100C80000001070F1F3FFFFFFFFFFFFEFCF0E0C06A
:100C900080000002030303030303030303030303AE
:100CA0000303030303030303030300000000000125
:100CB0000103030303030303030303030101000010
:100CC0000000000000000000000000000000000024
:100CD00001010303030303030303030303010100EF
:100CE00000000000000003030301000003030303EE
:100CF00003030303030303000000000000000000DF
:100D000000000303030303030303030303007C2422
:100D1000000000F8F8F8F8F80000000000000000FB
:100D20000000000000000000000080C0E0E0F0F0E3
:100D3000F0F8F8F8F8F8F8F8F0F0F0E0E0C080002B
:100D4000000000000000000000000080C0C0E0F0D3
:100D5000F0F0F8F8F8F8F8F8F8F0F0F0E0E0C0801B
:100D6000000000000000F8E0C0800000081838789B
:100D7000F8F8F8E0C08000000000000000000080EB
:100D8000C0E0F8F8F878381800000000000000FF14
:100D9000FFFFFFFF00000000000000000000000057
:100DA0000000E0F8FEFFFF3F0F0703010100000015
:100DB00000000000010103070F3FFFFFFEF8E00005
:100DC00000000080F8FCFEFF7F0F07030101000018
:100DD0000000808080818183878381808000000083
:100DE0000000FFFFFFFFFF00000000000003070FEF
:100DF0003F7FFFFCF8600070F8FCFF7F3F0F0703A8
:100E00000000000000000000000000FFFF7F3F1F07
:100E100000000000000000000000000000003FFF94
:100E2000FFFFFFE080000000000000000000000065
:100E30000000000080E0FFFFFFFF3F000000000F08
:100E4000FFFFFFFFF08000000000000000000F0F18
:100E50000F0F0F0F0F0F0703000000000000FFFF30
:100E6000FFFFFF000000000000000080E0F0F8FD40
:100E7000F8700070F8FDF8F0E0800000000000005D
:100E8000000000000000000180C0E0F0F8F8F8F871
:100E9000F8F8F8F8F8F8F8F8F8F8000003070F1F6A
:100EA0003F3F7E7CFCF8F8F8F8F8F8F8FC7C7E3FD1
:100EB0003F1F0F0703000000000000000001070FA4
:100EC0001F3F3F7E7CFCF8F8F8F8F8F8F8F87C7ED5
:100ED0003E3F1F0E040000000000FF7F3F1F070081
:100EE00080C0E0F0FCFEFF3F1F0F07010000000084
:100EF0000001070F1F3FFFFEFCF0E0C08000000074
:100F000000000000000000000000000000000000E1
:100F100000000000000000000000000000000000D1
:100F200000000000000000000000000000000000C1
:100F300000000000000000000000000000000000B1
:100F400000000000000000000000000000000000A1
:100F50000000000000000000000000000000000091
:100F60000000000000000000000000000000000081
:100F7000000000000000000000000000804091918F
:100F80009191939694969390909090909090909049
:100F90009090909090909090909E8282F212121277
:100FA0001212929292921212129292F28202020201
:100FB000828282820202028282FE800000008080A1
:100FC0008080000000808080800000008080808021
:100FD00000FF000080F0888402010080F088840215
:100FE000010080F09888040202828282820202025A
:100FF00002020202020202020202020202029191B3
:1010000091919191919191919191919191919191D0
:101010009191911111111111111111111110101043
:101020001010FFFFFFFF000000FFFFFFFF000000A8
:10103000FFFFFFFF000000FFFFFFFF000000FFFFBA
:10104000FFFF000000FFFFFFFF000000FFFFFFFFAA
:1010500000FF0000FFFFFFFF000000FFFFFFFF0099
:101060000000FFFFFFFF000000FFFFFFFF10101058
:1010700010101010101010101010101010101D373C
:1010800023371D01010101010101010101010101DC
:101090000101FF000000000000000000000000004F
:1010A00000000F0F0F0F0000000F0F0F0F0080C088
:1010B0006F3F0F0F0000000F0F0F0F0080C06F3F3A
:1010C0001F0F0000000F0F0F0F0000000FFF0F8F0A
:1010D000C07FC0800F0F0F0F0000000F0F0F0F0019
:1010E00000000F0F0F0F0000000F0F0F0F00000088
:1010F00000000000000000000000000000000000F0
:1011000000000000000000000000000000000000DF
:1011100000000F089E9E9E9E9E9E9E9E9E9E9E9E50
:101120000000000000000000386C446C3E83C16089
:1011300030180808080808C8682C66C301000000B9
:1011400000000000000000000000000000FF00039D
:10115000060406030000000000000000000000007C
:101160000000000000000000000000000000008FF0
:101170008F8F8F8F8F8F8F8F8F8F040404041212A5
:10118000121212121212121212121212121212123F
:1011900012121212D7D7D7D7D7D7D7D7D7D7D7D7F3
:1011A000101090909090909090988C86C3612060E1
:1011B000C000000000000001030203010101010161
:1011C00001010101C1612161C1818181818181812F
:1011D00081818181818181818181818181818181FF
:1011E00081C1612161C101011D3722361C0000C788
:1011F000C7C7C7C7C7C7C7C7C7C702020202C0C0A1
:10120000C0C0C0C0C0C0C0C0C0C0C0C0C0C0C0C0DE
:1012100060301808EBEBEBEBEBEBEBEBEBEBEBEB1A
:101220008989848484848484848E9B919B8F828327
:1012300081808080808080808080808080808080AD
:1012400080808080C1632263C180808080808080B4
:10125000808080808080808080808080800000000E
:10126000000103FE0301000000000000000000E395
:10127000E3E3E3E3E3E3E3E3E3E38181818180808C
:10128000808080808080808080808080C0602060BE
:10129000C0000000F1F1F1F1F1F1F1F1F1F1F1F142
:1012A000603018080808080808080808080808082E
:1012B00008080808080808080808080808080808AE
:1012C00008080808090B0A0B090808081C3622360A
:1012D0001C0000000000000000000000FF000000F3
:1012E0000000007F4040404040404040404040F1CE
:1012F000F1F1F1F1F1F1F1F1F1F100000000000084
:101300000000000000000000100010001103121384
:1013100011101E027A7A7A7A7A7A7A7A7A7A7A7AD4
:10132000020202020202020202020202020202029D
:10133000C2623E68C80808080808080808080808C3
:10134000080808080808080808080808080808081D
:101350000808080808081C3622361C000F08000878
:1013600000080000000000000000000000000078FD
:101370007878787878787878787800000000290094
:101380003B0029009C00000007002900D800000055
:1013900046053100D800000007003100D8000000E9
:1013A000C7012500D800000007002500D800000074
:1013B000C7012900D800000007002900D80000005C
:1013C00046054100D800000007004100D800000099
:1013D000C7013100D800000007003100D80000002C
:1013E000C7012900D800000007002900D80000002C
:1013F00046053100D800000007003100D800000089
:10140000C7012500D00025000700000007002500C7
:10141000D8000000C90000000E000000F200290002
:10142000DB00000007002900DB0000005B05410035
:10143000DB00000007004100DB000000CE013E00A1
:10144000DB00000007003E00DB000000CE012900A9
:10145000DB00000007002900DB0000005B050080C6
:10146000080B000202020000090400000102020051
:1014700000052400100105240101010424020605D1
:101480002406000107058103100040090401000241
:101490000A00000007050202400000070583024021
:1014A00000000403090412010002EF02014041237D
:1014B000368000010102030141726475696E6F207C
:1014C0004C4C430041424C313130360000000000AA
:1014D000003E5B4F5B3E3E6B4F6B3E1C3E7C3E1CBA
:1014E000183C7E3C181C577D571C1C5E7F5E1C0000
:1014F000183C1800FFE7C3E7FF0018241800FFE7B7
:10150000DBE7FF30483A060E2629792926407F0579
:101510000507407F05253F5A3CE73C5A7F3E1C1C8F
:1015200008081C1C3E7F14227F22145F5F005F5F4F
:1015300006097F017F006689956A6060606060943B
:10154000A2FFA29408047E040810207E2010080840
:101550002A1C08081C2A08081E101010100C1E0C4B
:101560001E0C30383E3830060E3E0E0600000000DD
:101570000000005F00000007000700147F147F14C4
:10158000242A7F2A12231308646236495620500009
:1015900008070300001C2241000041221C002A1CF5
:1015A0007F1C2A08083E08080080703000080808E0
:1015B0000808000060600020100804023E51494500
:1015C0003E00427F400072494949462141494D331E
:1015D0001814127F1027454545393C4A4949314185
:1015E000211109073649494936464949291E000053
:1015F00014000000403400000008142241141414A8
:101600001414004122140802015909063E415D5993
:101610004E7C1211127C7F494949363E414141229C
:101620007F4141413E7F494949417F090909013EC6
:10163000414151737F0808087F00417F41002040ED
:10164000413F017F081422417F404040407F021CFF
:10165000027F7F0408107F3E4141413E7F09090916
:10166000063E4151215E7F091929462649494932E2
:1016700003017F01033F4040403F1F2040201F3FA8
:101680004038403F6314081463030478040361592D
:10169000494D43007F41414102040810200041416F
:1016A000417F04020102044040404040000307081B
:1016B0000020545478407F28444438384444442817
:1016C000384444287F385454541800087E090218BE
:1016D000A4A49C787F0804047800447D4000204046
:1016E000403D007F1028440000417F40007C04788A
:1016F00004787C080404783844444438FC182424D2
:101700001818242418FC7C08040408485454542451
:1017100004043F44243C4040207C1C2040201C3CCE
:101720004030403C44281028444C9090907C4464C5
:10173000544C440008364100000077000000413658
:10174000080002010204023C2623263C1EA1A161DE
:10175000123A4040207A3854545559215555794110
:101760002154547841215554784020545579400CE7
:101770001E527212395555555939545454593955C8
:101780005454580000457C410002457D420001450B
:101790007C40F0292429F0F0282528F07C54554578
:1017A000002054547C547C0A097F4932494949320B
:1017B0003248484832324A4848303A4141217A3A20
:1017C00042402078009DA0A07D39444444393D40EA
:1017D00040403D3C24FF2424487E4943662B2FFC97
:1017E0002F2BFF0929F620C0887E09032054547945
:1017F000410000447D413048484A32384040227A16
:10180000007A0A0A727D0D19317D2629292F282692
:101810002929292630484D4020380808080808089A
:101820000808382F10C8ACBA2F102834FA00007BF3
:10183000000008142A142222142A140895002200F9
:1018400095AA005500AAAA55AA55AA000000FF00B3
:10185000101010FF00141414FF001010FF00FF10F0
:1018600010F010F0141414FC001414F700FF000022
:10187000FF00FF1414F404FC141417101F10101FA1
:10188000101F1414141F00101010F0000000001F8F
:10189000101010101F10101010F010000000FF109A
:1018A0001010101010101010FF10000000FF140096
:1018B00000FF00FF00001F10170000FC04F41414C8
:1018C0001710171414F404F40000FF00F714141494
:1018D00014141414F700F7141414171410101F1014
:1018E0001F141414F4141010F010F000001F101F37
:1018F0000000001F14000000FC140000F010F010A5
:1019000010FF10FF141414FF141010101F0000001B
:1019100000F010FFFFFFFFFFF0F0F0F0F0FFFFFF1F
:101920000000000000FFFF0F0F0F0F0F3844443876
:10193000447C2A2A3E147E02020606027E027E02B1
:1019400063554941633844443C04407E201E2006D0
:10195000027E020299A5E7A5991C2A492A1C4C720D
:1019600001724C304A4D4D303048784830BC625A94
:10197000463D3E494949007E0101017E2A2A2A2A24
:101980002A44445F444440514A444040444A514000
:101990000000FF0103E080FF000008086B6B0836C1
:1019A00012362436060F090F060000181800000032
:1019B0001010003040FF0101001F01011E00191D21
:1019C0001712003C3C3C3C00000000003522112472
:1019D0001FBECFEFDAE0DEBFCDBF11E0A0E0B1E087
:1019E000E6EDF0E602C005900D92A03FB107D9F7F1
:1019F00028E0A0EFB1E001C01D92A832B207E1F7E4
:101A00001CE0C7EEDCE004C02197FE010E946330B9
:101A1000C63ED107C9F70E948A220C9469300C9403
:101A20000000809107020895909110019A3FC1F142
:101A30009F3FB1F126E0929FF0011124EB5BF84F3C
:101A40002181263051F020911101211106C09930D9
:101A500020F481E080931101089530910E012BEA6A
:101A6000329F312D112436959C30D8F09B3F49F59B
:101A70002FEF230F9FEF9F5F422F440F420F66E02F
:101A8000542F590F569FF0011124EB5BF84F7181D1
:101A90007730E1F0509310013217B4F41092110135
:101AA0000895929F212D11242695422F440F420F15
:101AB000941B923001F7882399F38AEF80931001E9
:101AC000EDCF20E090E0D7CF82E0C4CF9F5F93308E
:101AD000B9F6F1CF90911001292F2B7F2B3F79F090
:101AE00026E0929FF0011124EB5BF84F2181263014
:101AF00039F020911101213019F41092110108954B
:101B000030910E012BEA329F312D112436959C30F5
:101B100000F19A3F39F52FEF230F93E09150422FB8
:101B2000440F420F66E0542F590F569FF0011124C5
:101B3000EB5BF84F71817730D9F05093100182E060
:101B4000321724F481E023300CF080E080931101FF
:101B50000895929F212D11242695422F440F420F64
:101B6000941BE1F6882359F28BEF80931001C5CFC7
:101B70009150C8F6F7CF2091100190910E012F3FA0
:101B800009F4292F10921101263048F4233060F017
:101B900020916A07273009F448C026E00AC029309E
:101BA00008F44FC02F3F39F420915807273081F1B6
:101BB00023E0209310013BEA939F912D11249695E9
:101BC00020911001239F212D11242695921303C0EB
:101BD0002FEF2093100180FF0CC0209110013BEAF1
:101BE000239F212D11242695291718F42FEF2093D8
:101BF000100181FF0CC0809110012BEA829F812D82
:101C000011248695981718F48FEF8093100108958A
:101C100020915E07273011F024E0CBCF209164079C
:101C2000273009F4B5CF25E0C4CF209170072730C5
:101C300011F027E0BECF20917607273011F028E081
:101C4000B8CF20917C072A3011F429E0B2CF20913F
:101C500082072A3011F42AE0ACCF209188072A307D
:101C600009F0A9CF2BE0A5CF2091100190910E0192
:101C70002F3F09F4292F10921101293090F52630B9
:101C800008F04DC02330A8F53BEA939F912D112415
:101C9000969520911001239F212D112426959213B2
:101CA00003C02FEF2093100180FF0CC02091100182
:101CB0003BEA239F212D11242695291718F42FEF95
:101CC0002093100181FF0CC0809110012BEA829FAC
:101CD000812D11248695981718F48FEF80931001A9
:101CE00008952C3088F620916A07273051F126E0BC
:101CF0000CC020914607273019F010921001C4CF74
:101D000020914C07273021F021E020931001BCCF17
:101D100020915207273009F4B7CF22E0F6CF209167
:101D20005807273011F023E0F0CF20915E072730CD
:101D300011F024E0EACF209164072730D1F225E0AA
:101D4000E4CF30917007373001F7209176072730C4
:101D500031F328E0DACF90911808982329F4909174
:101D60001708982381E009F480E0089590911808FD
:101D7000982329F090911708982381E009F080E0DA
:101D800008959C01CB018770992791E001C0990FBC
:101D90008A95EAF777FF02C0695F7F4FFB0183E016
:101DA000F595E7958A95E1F7F695FE2FEE27F795DD
:101DB000E795E20FF31FE05CFD4F415030F0819159
:101DC000DF011197892B8C93F8CF0895E0E4F2E0BE
:101DD000A0E0B8E000800EBC8111012C1197A0FD9D
:101DE000FDCF0192B9F70DB40895E1E0F0E00E9453
:101DF0000A0F319728F068517C4F8F4F9F4FF9CFD2
:101E0000AB01FC010E940A0F641775078E079F073C
:101E1000C8F30895A3E0B2E02FB7F8947D918D91B7
:101E20009C9166B52FBFA89B05C06F3F18F47F5FDC
:101E30008F4F9F4F22E0660F771F881F991F2A95AB
:101E4000D1F70895FC0180913F02882311F13FB73B
:101E5000F89482E08093E9002091F200822F90E0D4
:101E60001816190614F481E090E0882339F02898B8
:101E700044E640933E024091F1004083222339F032
:101E80002091F200211103C02BE62093E8003FBF10
:101E900008958FEF9FEF08952FB7F89483E0809314
:101EA000E9009091E800892F807295FF04C090911D
:101EB000F20080E4891B2FBF0895809136028111C2
:101EC0000DC082E08093320284E08093330210924E
:101ED00035021092340281E08093360282E392E070
:101EE00008958F929F92AF92BF92CF92DF92EF921E
:101EF000FF920F931F93CF93DF936C017B018A01B5
:101F000080910D01882309F458C080913F028823F5
:101F100009F453C08091310280FF05C08091E00038
:101F200082608093E000E801B12C8AEFA82E93E054
:101F3000892E2AE3922E209711F4BB20B9F10E943A
:101F40004C0F811106C0AA94AA20B9F10E94F50E87
:101F5000F2CF8C171D0611F00CF08C2F9FB7F89460
:101F60008092E9002091E80025FD02C09FBFE3CFE9
:101F7000282F30E0C21BD30BF701815020F0419194
:101F80004093F100FACFE20EF31EBB2021F09092B5
:101F9000E800B12CEBCF8091E80085FDE7CF90926F
:101FA000E800BB24B394209709F3F3CF5D9884E64F
:101FB00080933002101611063CF081E090E0F601AB
:101FC0009383828310E000E0C801DF91CF911F91DD
:101FD0000F91FF90EF90DF90CF90BF90AF909F90C8
:101FE0008F900895CF93DF931F92CDB7DEB76983AB
:101FF000DC01ED91FC910280F381E02D41E050E0A5
:10200000BE016F5F7F4F09950F90DF91CF910895CB
:1020100083E08093E9008091F200882319F08AE33D
:102020008093E80008950E944C0F90E00895CF93AC
:10203000DF931F92CDB7DEB7FC018485958597FDB0
:1020400008C02FEF3FEF358724870F90DF91CF91A6
:102050000895CE0101960E94220F019719F48981FB
:1020600090E0F3CF8FEF9FEFF0CF0F931F93CF93BD
:10207000DF931F92CDB7DEB78C01FC018485958577
:1020800097FF0BC0CE0101960E94220F019771F4B9
:10209000898190E0F80195878487F801848595858A
:1020A0000F90DF91CF911F910F9108958FEF9FEFC8
:1020B000F1CFFC018485958597FD0BC09FB7F894FF
:1020C00082E08093E9008091F2009FBF90E001964A
:1020D00008959FB7F89482E08093E9008091F20020
:1020E0009FBF90E0089540912C0250912D022091C5
:1020F0002A0230912B0242175307B4F49091E80062
:102100009570E1F39091E80092FD19C08093F10081
:1021100080912C0290912D0201968F739927892B23
:1021200019F48EEF8093E80080912C0290912D029B
:10213000019690932D0280932C0281E0089580E017
:102140000895EF92FF920F931F93CF93DF93F82E92
:10215000192FE62E042F81E0860F880F0E9473103E
:1021600083E00E947310CF2DD12FEC0EFD2EF11CB9
:10217000CE15DF05B9F007FF13C0FE0184910E9460
:102180007310182F80E00E94731081232196811113
:10219000EFCFDF91CF911F910F91FF90EF900895B6
:1021A0008881EDCF81E0F5CFDF92EF92FF920F9320
:1021B0001F93CF93DF93D82E8A01EB017B01E40EAE
:1021C000F51ECE15DF0559F0D7FE12C0FE01849131
:1021D0000E94731021968111F4CF0FEF1FEFC801F9
:1021E000DF91CF911F910F91FF90EF90DF900895B5
:1021F0008881EECF0F931F93CF93DF931F92CDB7BC
:10220000DEB782E0898342E450E060E674E180E872
:102210000E94D4100E945D0FDC0112960D911C915A
:102220000115110589F0D801ED91FC910280F3812F
:10223000E02DBE016F5F7F4FC801099597FD04C077
:10224000F80100851185ECCF89810F90DF91CF9146
:102250001F910F910895615030F02091F100FC0121
:1022600020830196F8CF289884E680933E02089553
:102270000895AF92BF92CF92DF92EF92FF920F93A9
:102280001F93CF93DF936C017B018B01040F151F0C
:10229000EB015E01AE18BF08C017D10759F0699174
:1022A000D601ED91FC910190F081E02DC6010995D8
:1022B000892B79F7C501DF91CF911F910F91FF9085
:1022C000EF90DF90CF90BF90AF90089520912602BD
:1022D000E0912402F0912502CF010296909325020D
:1022E00080932402222319F085919491089580818E
:1022F00091810895E1E7F0E080818D7F80831092E5
:102300009100469847981092FA010895CF92DF9273
:10231000EF92FF92CF93DF930E946611811520E820
:10232000920741F4DF91CF91FF90EF90DF90CF9033
:102330000C947A1121E02093FA01813020E8920771
:1023400051F4809122029091230290932502809370
:1023500024020E94661197FD05C02091F9012223F5
:1023600009F45BC02091F801211157C021E02093AE
:10237000FB01EC01DF77209709F052C081E08093E8
:10238000FC0146983FE9C32E3FE0D32EE12CF12C0F
:10239000CAEFD0E0E0910208F0910308099581119D
:1023A00003C081E08093FC018091FB01882329F028
:1023B0008091FC01882309F446C047980E94661169
:1023C000009709F444C09C01DE010E942030DC012A
:1023D000CB0129E0B595A795979587952A95D1F7D3
:1023E000109290002AE020939100D0929900C09220
:1023F00098008093FD019093FE01A093FF01B0939C
:10240000000280917100826080937100DF91CF9112
:10241000FF90EF90DF90CF9008951092FB01A9CF2D
:102420009E0150E040E060E472E48FE090E00E94A2
:10243000CC2F69017A0181E0C81AD108E108F108BE
:102440001092FC01A7CF4699B8CF479AB7CF8FEF2C
:102450009FEFDC01C5CF6F927F928F929F92AF92D8
:10246000BF92CF92DF92EF92FF920F931F93CF9381
:10247000DF934C01CB013A017C2DFA016491319636
:102480005491F2E06F0E711CC62FD0E0211102C0F2
:10249000EE2009F1E1E0F0E0352F377011F4F0E0C3
:1024A000E0E0A52FA695A695A695AE0FBF2FB11D6E
:1024B000AC9FF001AD9FF00DBC9FF00D1124733067
:1024C00009F08BC0EE0FFF1F2E9FD0012F9FB00D84
:1024D00011246A0E7B1ED401AC0FBD1F1A161B06F9
:1024E0000CF06CC020E8821691040CF067C09C01CF
:1024F000250F311D121613060CF060C080349105B3
:102500000CF05CC06114710409F458C0382F3770A6
:10251000FC0197FD379623E0F595E7952A95E1F7BD
:102520002E2F97FF04C0332311F02FEF2E0FEE272D
:10253000FF27E819F90997FC02C0F0E0E0E090E815
:102540009819A038B1050CF4962F9E1BA22F022ECD
:10255000000CBB0B4A2F40952F3F0CF040E0DD24D0
:10256000D394852F877009F4D12C5695569556959E
:10257000D50EAD0DB11D19971CF058E0D52ED21A0D
:10258000D41A240F50E82503D0011124A80DB91D39
:10259000AE0FBF1F649FE00DF11D11246E0E7F1E54
:1025A000E32E032E000CFF08733009F423C108F555
:1025B000713009F4D6C0723009F484C0DF91CF9134
:1025C0001F910F91FF90EF90DF90CF90BF90AF9051
:1025D0009F908F907F906F9008950115110509F4D9
:1025E00073CFEE9ED001EF9EB00D11240A0F1B1F7A
:1025F0006BCF7A3FB1F10D2D020F7B3FF9F620171B
:10260000E9F2BD01605C7D4FD12CC12CC91608F0E8
:10261000A2C0F301EC0DFD1DE491F0E0AF010E2C22
:1026200002C0440F551F0A94E2F727FD06C0FB01C4
:102630008081142F109581238083332361F027300C
:1026400054F45B01F0E8AF0EB11C452F4095F50145
:10265000808184238083FFEFCF1ADF0A6F5F7F4F73
:10266000D5CF0D2D020F201709F4A8CFBD01605C56
:102670007D4FD12CC12CC91608F067C0F301EC0DB9
:10268000FD1DE491F0E0AF010E2C02C0440F551F78
:102690000A94E2F727FD04C0FB018081842B80832C
:1026A000332351F0273044F45B01F0E8AF0EB11C46
:1026B000F5018081852B8083FFEFCF1ADF0A6F5FE2
:1026C0007F4FD9CF6FEF70E0032E02C0660F771FE8
:1026D0000A94E2F760957095972E8D2C820E28153E
:1026E00009F46CCF8D01005C1D4FD12CC12CC91693
:1026F00030F5F301EC0DFD1DE491F0E0AF010E2C7F
:1027000002C0440F551F0A94E2F727FD05C0F801E7
:1027100080818623842B8083332359F027304CF427
:102720005801F0E8AF0EB11CF50180818921852B9D
:102730008083FFEFCF1ADF0A0F5F1F4FD8CF2F5FC5
:102740006C0E7D1EA058BF4FCACF2F5F6C0E7D1E32
:10275000A058BF4F88CF2F5F6C0E7D1EA058BF4F73
:102760004ECF0E0F1F1F8D2D820F281709F426CF75
:10277000BD01605C7D4FD12CC12CC91698F5F801C4
:10278000EC0DFD1DA490B12C0E2C02C0AA0CBB1C9C
:102790000A94E2F7A094B094F301EC0DFD1D84902F
:1027A000912C0E2C02C0880C991C0A94E2F727FD8C
:1027B00008C0FB014081E42FEA214E2F4829FB018C
:1027C0004083332349F027303CF4FB01E058FF4FAE
:1027D000A080BA20B928B082FFEFCF1ADF0A6F5F5E
:1027E0007F4FCBCF2F5F6C0E7D1E0C0F1D1FA0588F
:1027F000BF4FBBCFE92EF12CE60DF71DA05CBD4FFE
:1028000060E870E06E197F09CE19DF09AE01440F50
:10281000551FC1E0D0E07E01032E01C0EE0C0A94EA
:10282000EAF7192F0D2D892E932ECF93DF93ED010B
:10283000EF96EF962296A590C590992059F0AE9C00
:102840005001CE9C600127302CF4F880D094FD20FC
:10285000FB28F99222233AF0FC90C094FC20FA283D
:10286000FD920C94341411961A9529F70A9551F09B
:10287000182D23951124E40FF11DA60FB11DC60FCD
:10288000D11DD9CFDF91CF91112498CECF92EF9265
:102890000F931F933AEFC32EE12C10E000E00E944B
:1028A0002B121F910F91EF90CF900895CF92EF923E
:1028B0000F931F9332E0C32EE12C10E000E00E9442
:1028C0002B121F910F91EF90CF900895BC0190E0D3
:1028D00080E0AB01FC010E940A0F41505109E1095F
:1028E000F10928F068517C4F8F4F9F4FF6CFAB0115
:1028F000FC010E940A0F641775078E079F07C8F333
:1029000008958FB18095807F669B88601C9B846052
:10291000089593E894BD609567BD91EF9093800012
:102920004093880080938A00089580389105B8F418
:1029300060347105A0F420E191E061FD94E060FD58
:10294000990F62FD9295687F269FD0011124A80FF0
:10295000A05CBD4F8C9140FF03C0892B8C930895E0
:1029600090958923FBCF8F929F92AF92BF92CF9287
:10297000DF92EF92FF920F93CF93DF934B01EC0125
:102980005C01A40EB11C7B01E20EF11CCA15DB0533
:10299000B4F46401C70121E4E216F10414F080E408
:1029A00090E0C816D9064CF4402FB601CE010E9423
:1029B00095148FEFC81AD80AEDCF2196E7CFDF9193
:1029C000CF910F91FF90EF90DF90CF90BF90AF909D
:1029D0009F908F900895FF920F931F93CF93DF9353
:1029E000C82FD62FF22E681710F4C62FD82F042F19
:1029F00010E0DC1740F04F2DB8018C2F90E00E94C2
:102A00009514CE5FF6CFDF91CF911F910F91FF907C
:102A10000895FF920F931F93CF93DF93C82FD62F64
:102A2000F22E681710F4C62FD82F042F10E0DC17F1
:102A300040F06C2F70E04F2DC8010E949514CE5FBE
:102A4000F6CFDF91CF911F910F91FF9008952F92B4
:102A50003F924F925F926F927F928F929F92AF922E
:102A6000BF92CF92DF92EF92FF920F931F93CF937B
:102A7000DF93EC018B017A016901C61AD70AD7FEF0
:102A800003C0D194C194D10847018C1A9D0A97FEC6
:102A900003C09194819491088C149D0454F49E2D4C
:102AA0008F2D7901292F382F9C2F8D2FE801092F89
:102AB000182FEC16FD0654F4902F812F8901292F31
:102AC000382F9C2F8D2FE701E92EF82E17012C1A95
:102AD0003D0A2901401A510A57FE03C051944194FE
:102AE0005108310137FE03C08FEF681A780A7594D8
:102AF00067948FEF021713070CF481E0A82E880F5C
:102B0000BB08EC16FD06A4F041E0BE01C8018C1420
:102B10009D0414F0B801CE010E9495146418750844
:102B200077FE04C00A0D1B1D620C731C2196E9CFB1
:102B3000DF91CF911F910F91FF90EF90DF90CF9099
:102B4000BF90AF909F908F907F906F905F904F90CD
:102B50003F902F900895AF92BF92CF92DF92EF9265
:102B6000FF920F931F93CF93DF936C01EB01042F20
:102B7000A22E0E94C10EAC0EBD2EB11CB50161503B
:102B80007109402FC6010E94C10E7E0141E0B701CC
:102B9000C6010E9495148FEFE81AF80AAE14BF041C
:102BA000A9F70C0D1D2D111D0150110941E0BE01A9
:102BB000C8010E9495142196CE15DF05BCF3DF9164
:102BC000CF911F910F91FF90EF90DF90CF90BF902A
:102BD000AF9008952F923F924F925F926F927F92A3
:102BE0008F929F92AF92BF92CF92DF92EF92FF921D
:102BF0000F931F93CF93DF93CDB7DEB729970FB60F
:102C0000F894DEBF0FBECDBF803891050CF075C0C3
:102C1000603471050CF071C035E0FC01E39EE00DFD
:102C2000F11D11241E161F060CF067C0F12CF701D0
:102C300053E0EE0FFF1F5A95E1F7E60FF71F1E1640
:102C40001F060CF05AC00B832A837F836E83439F39
:102C5000A00111249A0124533B4E3901998788879A
:102C6000312C2701F3018491F5E03F1201C080E08F
:102C70008E809F8028E02983E82FF0E0FD83EC839D
:102C80002A8080FF2B80211004C0FB812A81F2174B
:102C9000E1F010E000E040165106B9F0A884B984D4
:102CA000A00EB11ED12CC12CC414D50459F0B6010C
:102CB000680D791D422DC5010E9495143FEFC31A7E
:102CC000D30AF2CF0F5F1F4FE6CF8C819D81959580
:102CD00087959981915099838E0C9F1C9111CCCF2F
:102CE0003394EFEF6E1A7E0A288539852E0D3F1D2D
:102CF0003987288736E03312B5CF29960FB6F89476
:102D0000DEBF0FBECDBFDF91CF911F910F91FF901E
:102D1000EF90DF90CF90BF90AF909F908F907F907B
:102D20006F905F904F903F902F900895EF920F9388
:102D3000CF93DF93EC016A30A1F48D8998E0899FED
:102D40009001112489899A89820F931F9A8B898B0C
:102D5000188A1F8681E090E0DF91CF910F91EF906C
:102D600008956D30B9F3462F69897A89ED880C8909
:102D70002B898F8598890E94EA152D89422F50E072
:102D80008F85988936E0239F800D911D1124988BA3
:102D90008F872E892223F1F26AEF64039001659FE9
:102DA000300D112420583F4F281739079CF6E88131
:102DB000F9810190F081E02D6AE0CE010995CACF3A
:102DC0000895EF920F93CF93DF93EC016A30A9F44B
:102DD0003D89298D89899A89329F800D911D112401
:102DE0009A8B898B8F8990E0988B8F8781E090E018
:102DF000DF91CF910F91EF9008956D30B9F3462F89
:102E000069897A89ED880C892B898F8598890E9438
:102E1000EA152D89622F70E08F85988936E0239F0F
:102E2000800D911D1124988B8F872E892223F1F21A
:102E3000288D3AEF3603A001379F500D1124240F3F
:102E4000352F311D281739078CF6E881F98101905B
:102E5000F081E02D6AE0CE010995C8CFCF92EF92C4
:102E60000F931F93CF93DF93EC019E816A3071F42F
:102E70008D818C836985960F9E8381E090E0DF9140
:102E8000CF911F910F91EF90CF900895262F6F3320
:102E900061F108F56E3279F140F4613251F19885B3
:102EA0009C5F8C81890F8C83E8CF80ED860F2C5F2F
:102EB0008A30A8F761E0690F062E000C770B8C8131
:102EC000082E000C990B3F813130B9F443EC57E0E8
:102ED0000E944614E4CF613410F36B3540F08FE963
:102EE000860F27548A3130F3DACF20E4E3CF215420
:102EF000E1CF2EE3DFCF2FE3DDCF3BEFC32EE12C7D
:102F000010E000E043EC57E00E942B12C8CF0F9373
:102F10001F93CF93DF938C01D0E0C0E0F801EC0F5A
:102F2000FD1F6491662341F084E098E00E942E1713
:102F3000892B11F02196F2CFCE01DF91CF911F9115
:102F40000F910895089590E080E00895CF938091C7
:102F50001808809590911708892311F010920101AB
:102F600020E04DEB56E061E170E080E290E00E94ED
:102F70005614809115089091160860E370E00E9445
:102F80003B30883170F4C1E18C3008F0CEE120E0B4
:102F900046EB56E069E170E08BE590E00E94561444
:102FA00004C0CFE1843208F0C0E26C2F70E041E051
:102FB00084E390E00E949514C0FD0AC020E042EB3B
:102FC00056E06CE170E08DE290E0CF910C945614E5
:102FD000CF9108951F93CF93DF93C82FDFE3D81BC2
:102FE000C03288F41C2F117020E04C2F60E8812F34
:102FF0000E94EB1420E04D2F60E8812F0E94EB141B
:10300000CF5FD150EDCFDF91CF911F910895EBEAC3
:103010008E9FE12D1124E695E43028F4F0E0EA5D7E
:10302000FE4F808108958FEF0895FC0180818830E4
:1030300030F08A3068F4883051F489E003C081119F
:1030400003C087E0808303C09FEF980F9083808147
:103050000895FC018081883038F08A3048F4893046
:1030600031F488E0808303C0873019F410828081B6
:10307000089591E0980F9083FACFDC011196EC91BE
:103080001197E63021F148F0E93031F1EA3039F1B9
:10309000E830D9F414968C91089514968C91149775
:1030A000811182E015969C91890F9CE0E99FE02DAB
:1030B0001124F0E093E0899FE00DF11D1124E5500B
:1030C000FD4FE49181E0E13009F080E0089514962D
:1030D0008C9191E08927089515968C910895149606
:1030E0009C91149715968C91892B08957F928F92BD
:1030F0009F92AF92BF92CF92DF92EF92FF920F9387
:103100001F93CF93DF936C017C0110E086E0782E53
:10311000F7018181A12CB12C873009F450C0C0E4A3
:10312000D6E0A12CB12C2C8199812223C9F08A816F
:10313000811316C081E03B81311180E041E09B3F6B
:1031400009F040E0842309F052C081E0313009F0F9
:1031500080E031E09B3F09F030E0832309F0A82EA6
:1031600086E0890F823028F14601979D800C911CE2
:103170001124222369F08A8181130AC001E08B8126
:10318000811100E0C4010E943D18802309F0B82E8F
:103190008C81882371F08A8181130BC001E08B81BF
:1031A000813009F000E0C4010E943D18802309F03D
:1031B000A82E2D96F7E0C434DF0709F0B4CFF7014D
:1031C000B482A5821F5FF6E0EF0EF11C1C3009F0FF
:1031D0009FCFDF91CF911F910F91FF90EF90DF90E4
:1031E000CF90BF90AF909F908F907F900895B82E12
:1031F000ACCFFC01148215821682178210861186CC
:1032000012861386148608950F931F93CF93DF932E
:10321000E82FF0E0EE0FFF1FE65DFE4F4081518189
:103220008F5F80934407A4E4B7E030E020E0FA0128
:10323000E20FF31FE49111962C9311971296EC93E1
:103240001297233008F461C081E0E73009F080E094
:1032500014968C9314972F5F3F4F16962C303105A0
:1032600031F7FA013C96E491E0938D07CA010D967F
:10327000AEE8B7E0FC012491422F50E034E05595D0
:1032800047953A95E1F74C932F7013962C9313972B
:103290003196E4912E2F30E044E0359527954A95FC
:1032A000E1F711962C931197EF701496EC93149705
:1032B000FC013296E4912E2F30E054E035952795AD
:1032C0005A95E1F712962C931297EF701596EC939E
:1032D000159703961796F7E0A33ABF0759F6C0E48F
:1032E000D6E004E417E0CE010E94F9182D960C17E1
:1032F0001D07C9F783E08093010188E280932902CA
:10330000DF91CF911F910F91089581E0A1CF8F920E
:103310009F92AF92BF920F931F93CF93DF93CDB73E
:10332000DEB7A1970FB6F894DEBF0FBECDBF19A2CE
:10333000423008F44AE08E010F5D1F4F842E912C1D
:10334000B12CA12CA50194010E94FE2FE62FB901FA
:10335000CA01EA3044F5E05DD801EE938D01232BDC
:10336000242B252B79F790E080E0109769F0FD0180
:1033700001900020E9F73197AF014A1B5B0BBD01BB
:1033800084E098E00E943911A1960FB6F894DEBF50
:103390000FBECDBFDF91CF911F910F91BF90AF9026
:1033A0009F908F900895E95CD7CFFC010190002099
:1033B000E9F73197AF01481B590BBC0184E098E055
:1033C0000C943911CF92EF92FF920F931F93CF93EA
:1033D000DF93CDB7DEB760970FB6F894DEBF0FBEB0
:1033E000CDBF8091160190911701A0911801B09165
:1033F00019018D879E87AF87B88B8CE0EAE1F1E0F9
:10340000DE01119601900D928A95E1F7E0910E018F
:10341000EC3008F45CC2EC3009F47AC200E416E047
:1034200084E4E82E87E0F82EF8018481882361F196
:103430008581882359F04781442341F0208530E07D
:1034400050E0668170E090E00E942715F8018781C6
:10345000882359F04185442341F0228530E050E033
:10346000608570E090E00E942715F801818588232F
:1034700059F04385442341F0248530E050E06285D3
:1034800070E090E00E942715035F1F4FE016F106E1
:1034900059F680911508909116088F71992711E0BF
:1034A000409708F010E040911602442369F08091A3
:1034B0001802882349F0481307C0212F6091190290
:1034C000809117020E94091580911602882369F0E5
:1034D00060911802662349F04091170290911902F9
:1034E000491303C0212F0E94EB144091180244237A
:1034F00069F080911A02882349F0481307C0212FF0
:1035000060911B02809119020E9409158091180296
:10351000882369F060911A02662349F040911902EC
:1035200090911B02491303C0212F0E94EB1440917C
:103530001A02442369F080911C02882349F0481341
:1035400007C0212F60911D0280911B020E94091566
:1035500080911A02882369F060911C02662349F069
:1035600040911B0290911D02491303C0212F0E941C
:10357000EB14209146072850223040F440E056E0FA
:1035800068E070E08DE090E00E94461420914C07C6
:103590002850223040F440E056E06AE170E08DE0CF
:1035A00090E00E944614209152072850223040F4A7
:1035B00040E056E06CE270E08DE090E00E9446143E
:1035C00020915807CC24C394E22E00E015E048E196
:1035D00059E067E070E08AE290E00E942B122091AF
:1035E0005E07E22E48E159E069E170E08AE290E08E
:1035F0000E942B1220916407E22E48E159E06BE211
:1036000070E08AE290E00E942B1220916A07E22E7D
:1036100048E159E065E070E086E490E00E942B12FA
:1036200020917007E22E48E159E067E170E086E4FE
:1036300090E00E942B1220917607E22E48E159E09B
:1036400069E270E086E490E00E942B1280917C0792
:103650008A3069F58BE797E00E943D1820E08823C7
:1036600051F080911508909116088F71992721E0EB
:10367000409708F022E04EE654E063E070E081E617
:1036800090E00E9446142EE030E046E750E06EE005
:1036900070E081E790E00E9427152FE330E046E7D5
:1036A00050E06EE070E086E790E00E942715809180
:1036B00082078A3069F581E897E00E943D1820E092
:1036C000882351F080911508909116088F719927E1
:1036D00021E0409708F022E04EE654E065E170E01A
:1036E00081E690E00E94461420E230E046E750E098
:1036F00060E270E081E790E00E9427152FE330E060
:1037000046E750E060E270E086E790E00E9427150F
:10371000809188078A3069F587E897E00E943D1814
:1037200020E0882351F080911508909116088F7140
:10373000992721E0409708F022E04EE654E067E246
:1037400070E081E690E00E94461422E330E046E714
:1037500050E062E370E081E790E00E9427152FE3DC
:1037600030E046E750E062E370E086E790E00E94D8
:10377000271530E020E046E750E070E060E090E0A0
:1037800080E00E94271527E330E050E040E065E04C
:1037900070E090E080E00E9427152AE330E044E0EA
:1037A00050E067E070E084E090E00E9427152FE38E
:1037B00030E046E750E06FE370E090E080E00E9488
:1037C000271521E048E76FE380E00E94091520E01B
:1037D00047E654E070E060E090E080E00E9446142C
:1037E00020E040E654E06AE370E090E080E00E9470
:1037F000461480911F02F0901E02811196C0F110B4
:10380000ABC020E04FE454E070E060E08BE790E074
:103810000E945614809144071AE0612F0E942F30B5
:10382000282F4BE154E068E170E08BE790E00E94C4
:10383000561480914407612F0E942F30292F4BE1AD
:1038400054E06DE170E08BE790E00E9456148091A7
:10385000A307882309F406C180910101843009F08F
:1038600001C18091270200E028E18A3109F0A4C05B
:1038700046E564E170E08FE090E00E94B31421E03F
:1038800047E164E682E10E94EB1421E046E264E64F
:1038900082E10E94EB1485E1809309088093080877
:1038A0008BE180930A0881E080930B0880EA91E025
:1038B00060960FB6F894DEBF0FBECDBFDF91CF91FB
:1038C0001F910F91FF90EF90CF900C94D519A1E02C
:1038D000B0E0AC0FBD1FAE0FB11D6C9170E08BEA74
:1038E000E89FE12D1124E695EC0FFD2FF11D858554
:1038F00020E041E756E090E00E94461420E040E6D8
:1039000056E06CE270E08BE790E00E94561486CDA2
:1039100080910101843009F081CD20E046E456E039
:1039200066E270E08AE790E0F0CF8130B1F58091F7
:103930000E01893070F4CC24C394E12C01EF13E024
:1039400020E045E054E06FEF7FEF87E790E00E94D2
:103950002B12FF2009F47BCFE0910E01EC3008F030
:1039600076CF20910F0186E0E89FF0011124EC5BF7
:10397000F84F8281863011F08A3009F42D5FCC2413
:10398000C394E12C0DE413E041E653E06FEF7FEFC9
:1039900087E790E00E942B125ACF8230D1F68091B7
:1039A0000E018930B0F6CC24C394E12C01EF13E072
:1039B00020E04BED53E0C7CF42E564E170E081E1E8
:1039C00090E00E94B31421E047E160E684E10E94A8
:1039D000EB1421E047E260E684E10E94EB1486E10B
:1039E00080930908809308088BE180930A0811E00E
:1039F00010930B0881EB91E00E94D5198091000192
:103A0000882349F101E028E046E06BE170E081E5C0
:103A100090E00E94B31410920B088EEB91E00E948C
:103A2000D5198AE580930908809308088BE1809373
:103A30000A0880910001811111C001E028E046E0F0
:103A40006BE170E089E590E00E94B31410920B08DE
:103A500080EC91E02DCF10930B08DFCF81E08093B5
:103A60000B08F6CF60960FB6F894DEBF0FBECDBF41
:103A7000DF91CF911F910F91FF90EF90CF9008951C
:103A8000682F70E090E080E04AE00C948719BF92C4
:103A9000CF92DF92EF92FF920F931F93CF93DF931A
:103AA000082FE62EF12C8BE0D82ED60E17E094E2EC
:103AB000C92EC60E2CE0B22EB60E80918D07F816D8
:103AC00008F0ABC0823009F493C080E0800F80938F
:103AD000090880930808E0920A0882EC91E00E94AD
:103AE000D51980918D07823009F484C080E0800F61
:103AF0008093090880930808D0920A08CF2DD0E05F
:103B00001C9FF0011D9FF00D1124E257F84F80819A
:103B1000823008F071C00E94401D8DEE91E00E943D
:103B2000D5191C9FF0011D9FF00D1124EF56F84F81
:103B30008081823010F40E94401D86EC91E00E944A
:103B4000D5191C9FF0011D9FF00D1124E157F84F6E
:103B50008081823008F055C00E94401D8DEE91E0BA
:103B60000E94D5191C9FF0011D9FF00D1124EE56E7
:103B7000F84F8081823010F40E94401D86EC91E065
:103B80000E94D5191C9FF0011D9FF00D1124E057D4
:103B9000F84F80818230D0F50E94401D8DEE91E07B
:103BA0000E94D5191C9FF0011D9FF00D1124ED56A8
:103BB000F84F8081823010F40E94401D86EC91E025
:103BC0000E94D51980918D07482F4150550BC4177D
:103BD000D5075CF48230F9F080E043E1400F480FF4
:103BE00021E06C2D8B2D0E940915F394075E65CFA3
:103BF0008CE06CCF8CE07BCF8DEE91E00E94D519EC
:103C00008CCF8DEE91E00E94D519A8CF8DEE91E07A
:103C10000E94D519C3CF8CE0E0CFDF91CF911F91E7
:103C20000F91FF90EF90DF90CF90BF900895CF93CA
:103C3000DF93EC01E88181E08E0F8883F0E0E750AC
:103C4000FD4F84910E94401D8DEE91E00E94D51998
:103C5000E88181E08E0F8883F0E0E750FD4F84918A
:103C6000823090F40E94401D8DEE91E00E94D519A3
:103C7000E88181E08E0F8883F0E0E750FD4F84916A
:103C8000DF91CF910C94401D8DEE91E00E94D519EB
:103C9000EBCFBC01990F880B990B4AE00C94871964
:103CA0000C94B62FFF920F931F93CF93DF93EC01E9
:103CB000F62E08811981C8010E94B62FF81621F04E
:103CC0006F2DC8010E94BE2FCE01DF91CF911F91B1
:103CD0000F91FF9008950F931F93CF93DF9300D020
:103CE000CDB7DEB7082F80EA91E00E94501E182F52
:103CF00081EA91E00E94501E011104C01C3411F4AD
:103D00008835D9F080EA91E09A8389836CE4CE010A
:103D100001960E94521E81EA91E09A83898368E5A8
:103D2000CE0101960E94521E82EA91E09A83898315
:103D300060E0CE0101960E94521E0F900F90DF911D
:103D4000CF911F910F9108951F920F920FB60F926E
:103D500011248F939F938091E1009091E100937FD4
:103D60009093E10083FF0FC01092E90091E09093DF
:103D7000EB001092EC0092E39093ED0010923F0262
:103D800098E09093F00082FF22C093E09093E900C6
:103D90009091F200992319F09AE39093E8009091A2
:103DA0003002992341F0909130029150909330026B
:103DB000911101C05D9A90913E02992341F090913A
:103DC0003E02915090933E02911101C0289A84FFC7
:103DD00018C08091E2008E7E81608093E200809125
:103DE000E1008F7E8093E100809131028E7E8061C0
:103DF000809331029F918F910F900FBE0F901F9073
:103E0000189580FFF7CF8091E2008E7E80618093CD
:103E1000E2008091E1008E7E8093E100809131028A
:103E20008E7E8160E5CF1F920F920FB60F92112404
:103E3000CF92DF92EF92FF920F931F932F933F93B6
:103E40004F935F936F937F938F939F93AF93BF93A2
:103E5000EF93FF93CF93DF93CDB7DEB76C97DEBFC1
:103E6000CDBF1092E9008091E80083FF25C068E093
:103E7000CE0145960E942B1182EF8093E8008D8938
:103E800087FF39C09091E80090FFFCCF982F907683
:103E900009F034C19E894F89588D2F89F88C911172
:103EA00031C0803861F580912F028093F10010922B
:103EB000F1008EEF8093E8006C960FB6F894DEBFA9
:103EC0000FBECDBFDF91CF91FF91EF91BF91AF9129
:103ED0009F918F917F916F915F914F913F912F9122
:103EE0001F910F91FF90EF90DF90CF900F900FBE3A
:103EF0000F901F9018959EEF9093E800C7CF1092F7
:103F0000F100D5CF913059F48111D3CF4130510513
:103F100081F680912F028D7F80932F02CACF93303C
:103F200049F48111C6CF4130510519F680912F0215
:103F30008260F2CF953041F48091E80080FFFCCFA1
:103F400020682093E300B5CF963009F0A9C00B8D0F
:103F50001C8D22E01092E90010922D0210922C028A
:103F6000F2122EC010922B0210922A020E94FA1016
:103F70001F8299E09983FA8291E09E8390EA988764
:103F80009AEF998720912C0230912D02275F3F4FA5
:103F90003C832B838D831092E90010922D021092A6
:103FA0002C0210932B0200932A0249E050E0BE013C
:103FB0006F5F7F4F80E00E94D4100E94FA1079CF8B
:103FC00010932B0200932A020E945D0FDC011296CF
:103FD0000D911C910115110509F451C1D801ED9104
:103FE000FC910480F581E02DBE016B5E7F4FC8011E
:103FF0000995009709F03EC1F80100851185EACFC7
:10400000F3E0FF120EC08F89882309F440C082308C
:1040100061F440E867E084EC94E10E94A110811112
:1040200048CF81E28093EB0047CF813029F440E80C
:104030006BE088EB94E1F1CF833099F70E945D0F3C
:10404000DC011296ED90FC908E010F5F1F4F68010E
:10405000E114F10479F0D701ED91FC910680F7812C
:10406000E02DB801C7010995080F111DF701E08483
:10407000F184EECFD8011C92F60101900020E9F7FF
:104080003197BF016C197D0940E0C601C6CF62EAD5
:1040900074E1FB01449150E080E80E94D41009CF04
:1040A000973009F4BECF983021F481E08093F1007D
:1040B00000CF993009F0FDCE837009F0B2CFE8E669
:1040C000F1E081E031E096E32191222371F08093C9
:1040D000E9003093EB00DF0111972C912093EC0065
:1040E0009093ED008F5F873079F78EE78093EA0039
:1040F0001092EA008F8980933F02DBCE8B8D9C8DDE
:104100001092E90010922D0210922C0290932B0233
:1041100080932A02898D811192C08E899D89913A5E
:1041200049F4813209F07DCF47E050E066E071E06C
:1041300080E0B3CF913209F074CF833269F48F8974
:10414000988DB0E0A0E08093020190930301A093CA
:104150000401B0930501ADCE803269F48091E8008E
:1041600082FFFCCF67E086E091E00E942B118BEF8D
:104170008093E8009ECE823209F09BCE8F89809397
:104180000D01EEEFFFE7859194918B3F9C4D51F12E
:10419000E0E0F8E08091060190910701A09108010C
:1041A000B0910901803B9440A105B105F1F48091E3
:1041B0000D0180FD1AC0EE3F8AE0F80789F587E718
:1041C00097E7918380838091600080932E0288E13D
:1041D0009BE00FB6F894A895809360000FBE909373
:1041E000600067CEEEEFFAE0D5CF8081918187370E
:1041F000974709F05ECEA895809160008861809312
:10420000600080912E0280936000EE3F2AE0F2076A
:1042100089F08091FE0A9091FF0A9183808349CEB4
:10422000808191818737980751F29093FF0A80939C
:10423000FE0AC5CF1092FF0A1092FE0A3ACE0E94E3
:104240005D0FDC0112960D911C910115110509F409
:10425000E8CED801ED91FC910190F081E02DBE01F6
:104260006B5E7F4FC8010995811123CEF80100854F
:104270001185EBCF181619060CF41BCED2CEF1E047
:10428000FF12BECE66EA74E104CF0F920FB68F9391
:104290009F93EF93FF93809102028D5F8D3708F01B
:1042A0008D5780930202E8E0F2E080818E4F808398
:1042B00091819F4F918382818F4F828383818F4F22
:1042C0008383E3E0F2E080818F5F808381818F4F81
:1042D000818382818F4F828383818F4F83838FB1CC
:1042E0008F6066991C9B88278F3681F4809101022C
:1042F000981B963068F0E0E0F8E087E780838183E0
:1043000088E180936000F0936000FFCF90930102FA
:10431000FF91EF919F918F910FBE0F9018951F9273
:104320000F920FB60F9211242F933F934F935F93E9
:104330006F937F938F939F93AF93BF93EF93FF936D
:104340008091FD019091FE01A091FF01B0910002CA
:10435000892B8A2B8B2B09F440C08091FC018111A1
:104360000BC088B190E4892788B98091FB0188232C
:1043700019F088B1805888B98091FD019091FE01B3
:10438000A091FF01B0910002181619061A061B062B
:104390009CF48091FD019091FE01A091FF01B091EC
:1043A00000020197A109B1098093FD019093FE01DC
:1043B000A093FF01B0930002FF91EF91BF91AF91E5
:1043C0009F918F917F916F915F914F913F912F912D
:1043D0000F900FBE0F901F9018950E948611ECCF82
:1043E0000F931F93CF93DF938C0181E090E00E94A5
:1043F000501E80FF32C08AE090E00E94501E9FEF66
:10440000980F9E3F50F522E330E0D80150963C9340
:104410002E931F9728E330E052963C932E935197AA
:10442000CBE0D0E0D801ED91FC910190F081E02D3E
:10443000682FC8010995CE010E94501E2196C131F6
:10444000D10581F780E00E94E60E88EE93E0DF91CF
:10445000CF911F910F910C946614DF91CF911F9112
:104460000F91089504970C94F021E4EAF7E0138289
:10447000128288EE93E0A0E0B0E084839583A68367
:10448000B78382E791E0918380838FEF9FEF9587D9
:104490008487EEE0F8E0138212821186128680E1B2
:1044A0008387108617821586108A1786128A118ACA
:1044B00081E0838B148A858B168A20E931E0318371
:1044C00020832EE931E035832483178A90E8908F8A
:1044D0009CE0918F21E13DE0309303082093020896
:1044E00020E030E8309301082093000846983E9A77
:1044F00047983F9AE4E0F8E01382128224E831E022
:104500003183208399E091878087158216821482F7
:104510008783089500D0CDB7DEB7789483E084BD5B
:1045200083E085BD81E080936E00E1E8F0E083E008
:104530008083E0E881E08083E1E983E08083E0E953
:1045400081E08083E1EC87E08083E3EC81E080839D
:10455000E0EC82E08083E2EC81E08083EAE787E0C0
:1045600080838068808310923F0210922F02109205
:1045700031028091D70081608093D70080EA8093D8
:10458000D80089B5806189BD89B5826089BD09B4CB
:1045900000FEFDCF0E94F50E8091D8008F7C8061D7
:1045A0008093D8008091E000807F8093E00080912C
:1045B000E1008E7E8093E1008DE08093E200559AC9
:1045C000209A81EC80937C0085B1806F85B984B19D
:1045D000877E84B984B1876E84B95E9A5F988AB108
:1045E000806D8AB9769A6E9881B3806F81BB899805
:1045F00080B38D7080BB80E58CBD81E08DBD85E092
:1046000090E00E9466145F9A85E090E00E94661434
:104610005E985C98E9ECF8E084918EBD00000DB4E2
:1046200007FEFDCF319608E0E63DF007A9F75C9A5A
:1046300081E88093640080916500816080936500CB
:104640000E94811402E010E087FF10C05C9885EAA8
:104650008EBD00000DB407FEFDCF5C9A2E982F98FA
:104660002D9881E083BF889513BEFCCF0E948114F2
:1046700082FF3EC02D980E94811484788438B9F45A
:104680002D9A88EC90E00E9466142F981A83098373
:104690006FEFCE0101960E94521E84EF91E00E94BE
:1046A00066142F9A0E94811484788438D9F30E946A
:1046B000811484718431B9F42D9A88EC90E00E94C1
:1046C00066142E981A83098360E0CE0101960E9439
:1046D000521E84EF91E00E9466142E9A0E9481146B
:1046E00084718431D9F388EC90E00E946614BECFC7
:1046F0002D9A80E180931908809164008E7F8093C9
:10470000640080917A00806480937A0080917A00BE
:1047100086FDFCCF00917800109179000E940A0F6D
:10472000AB01BC01C801B0E0A0E0DC0199278827FB
:104730008C019D01040F151F261F371FC901B801E9
:10474000209164002160209364006115710581054A
:10475000910511F00E94AD2F11E01093240889E01B
:104760008093270882E090E00E94501E8823C9F1C0
:104770003E9A3F9A1093070280E00E946B1E82EAE5
:1047800091E00E94B62F80932702E0E42E2E312C78
:10479000F2EA4F2E55245394AEE7AA2EA3E1BA2E87
:1047A00077E0F72E8FB7F8944091080250910902F4
:1047B00060910A0270910B028FBF80911A08142F2A
:1047C000181B812FD0901B08DD2081F010931C084E
:1047D00010921B0880E090E0892B21F30E940000DA
:1047E000DFCF109207023E983F98C6CF90911908EC
:1047F000191740F48F5F891768F781E083BF8895A8
:1048000013BEE8CF81E080931B0840931A08809183
:104810001508909116080196909316088093150834
:1048200080911708809318080E94811480931708BC
:10483000E0910101E830A8F4F0E0EF5DFB4D0C944D
:10484000633035244C244E255D25D9259F2A292403
:104850002C2427E0209301010E94A61780E00E94EB
:10486000E60E81E00E94E60EB5CF8BE4809329022C
:1048700091E090930101809171008D7F8093710090
:1048800090932602B0922502A0922402B0922302B5
:10489000A09222020E94861120E04CE75FE070E0C7
:1048A00060E090E080E00E9456148091150880FD41
:1048B00007C080912902882319F081508093290232
:1048C00010912902103298F4812F0E94EA171111D9
:1048D0000EC0CC24C394E12C02EA1AE020E04EE0A2
:1048E0005DE06EE070E083E090E00E942B120E9499
:1048F00081141091210287FF27C00E94811484FF38
:1049000023C01F5F10932102153120F01D3330F1B9
:104910001D3369F10E9481141091200285FD34C07D
:104920000E94811486FD30C01123E1F180E20E94D3
:10493000B60E811106C080E40E94B60E882309F4E9
:1049400077C01092200274C0112321F340E060E090
:1049500080E00E94891410922102DCCFC101811BEA
:10496000910940E060E0880F0E948914D3CF109233
:10497000210240E060E080E00E94891481E00E9412
:104980006B1E109227026DCF1F5F109320021C3800
:1049900000F5163608F04CC0153650F51135E8F420
:1049A000103541F188E00E94AB0E882329F0109267
:1049B000280282E08093010184E00E94AB0E8823EC
:1049C00009F44FCF81E08093280282E080930101B7
:1049D00048CF113A40F41D3868F040E260E080E0D2
:1049E0000E94891425C0113AE9F685E680932002D9
:1049F00040E0F4CF0E94811485FF07C08091270218
:104A0000882319F08150809327020E94811486FF29
:104A100007C0809127028A3118F48F5F80932702A4
:104A2000609127025A824982CE0101960E94521E4D
:104A300001E028E04EE170E060E083E690E00E9453
:104A4000B31410920B0885E6809309088093080838
:104A500010920A088DE99AE00E94871785E78093F3
:104A600009088093080810920A088091270290E0B4
:104A700001960AE010E0B8010E944F30CB010E947D
:104A8000491E8091270290E00196B8010E944F30A4
:104A90000E94491E81E080930B0884CF0E947A1106
:104AA00080912802882329F08BE10E94041984E078
:104AB0008DCF809127020E94041920E04CE75FE02F
:104AC00070E060E090E080E00E94561480E00E9478
:104AD000EA1700E020E441E570E060E087E190E063
:104AE0000E94B31401E02AE04DE470E060E089E147
:104AF00090E00E94B3148CE1809309088093080829
:104B000011E010930A0810920B0888EC91E00E94C3
:104B1000D519809144070AE0602F0E942F3090E061
:104B20000E94491E80914407602F0E942F30892FD8
:104B300090E00E94491E10930B0821E049E160E4D7
:104B400080E00E94091521E045E660E480E00E94D3
:104B5000091521E04FE365E689E10E94EB146DE061
:104B600080E20E94471D80912902882319F081501C
:104B70008093290280912902811115C089E38093D5
:104B800009088093080885E380930A088FEC91E078
:104B90000E94D51920E043E95AE065E370E087E51B
:104BA00090E00E94461488E00E94AB0E81117FCFF6
:104BB00058CE8091A307882309F447C08FEF8093D4
:104BC0000F01809310018093110180E20E94AB0ECF
:104BD000882339F080910001811103C081E0809326
:104BE000000180E40E94AB0E882329F0809100012F
:104BF000811110920001109127021A3119F188E0F9
:104C00000E94AB0E882399F080910001882379F0EF
:104C100061E0610F609327025A824982CE010196BA
:104C20000E94521E1092A30782E08093010188E047
:104C30000E94AB0E882331F080910001811102C0E7
:104C40001092A3070E94E2190CCE10921F0210923C
:104C50001E0280910E018C3049F488E00E94AB0E58
:104C6000882321F085E080930101ECCF0E9481141C
:104C700082FF1DC00E94811483FD97C088E00E94BE
:104C8000B60E882309F4C7C3809110018F3F31F01D
:104C900090910E019F3F11F089134CC381E192E086
:104CA0000E94F91885E497E00E947618CBCF84E043
:104CB0000E94B60E8111DECF0E94811483FDDACFEF
:104CC00088E00E94B60E8111D5CF10910E011C30E4
:104CD000A0F580E80E94AB0E8823A1F0812F63E04D
:104CE0000E942F30992371F0115010930E018FEF15
:104CF00080930F01809310018093110181E192E074
:104D00000E94F91880E10E94AB0E8823B1F0209137
:104D10000E01822F63E00E942F30923071F02F5FDE
:104D200020930E018FEF80930F01809310018093E9
:104D3000110181E192E00E94F91880E20E94AB0E1D
:104D40008823A1F080910E01833080F08C3039F1FE
:104D5000835080930E018FEF80930F018093100199
:104D60008093110181E192E00E94F91880E40E9491
:104D7000AB0E882309F466CF80910E01893098F438
:104D80008D5F80930E018FEF80930F018093100150
:104D90008093110181E192E00E94F91853CF39E02C
:104DA00030930E01D8CF8CE0ECCFE0910E0166E09D
:104DB000E69FF0011124EC5BF84F1281173009F4E3
:104DC00041CF88E00E94AB0E8823C9F080910F018B
:104DD00090E0019663E070E00E944F3080930F01F5
:104DE000163009F09FC0813019F482E080930F01E2
:104DF0008FEF8093100181E192E00E94F91881E029
:104E000080931E0290910E01993008F091C080911C
:104E10000F01933008F40AC1823008F4E2C18230F5
:104E200009F010CF80E80E94AB0E882319F080E0D3
:104E30000E946A0D80E10E94AB0E882319F080E089
:104E40000E94140D80E40E94AB0E882319F089E0C3
:104E50000E94BB0D80E20E94AB0E882319F089E00E
:104E60000E94340E009110010F3F09F493CF8BEA9A
:104E7000089FD12C1124D69410910E01189FE12C7B
:104E80001124E6948CE1E89EC02C11248EE18C0D57
:104E900080931602812F0E9407189E2D990F9E0D58
:104EA000191B52E1952E199D800D1124845F80936A
:104EB00017029D2D9E1991503EE0939F100D1124D5
:104EC000110F60E2C60EC10EC09218028093190243
:104ED000C0921A02802F0E940718382F802F63E09B
:104EE0000E942F30999D802D1124885F76E0079FC6
:104EF000F0011124EC5BF84F928124E0963009F028
:104F000020E0830F90911101911198E0820F890F99
:104F100080931B029CE1D99E902D1124935F909366
:104F20001C0207C11A3009F063CF10920F0160CF45
:104F30009C3008F087CE80E80E94AB0E882319F0E1
:104F400080E00E946A0D80E10E94AB0E882319F078
:104F500080E00E94140D80E40E94AB0E882319F0BB
:104F600086E00E94BB0D80E20E94AB0E882319F000
:104F700086E00E94340E81E192E00E94F918D09000
:104F800010018FEFD81609F45DCE10910E010BEAD7
:104F9000109F012D112406958CE1089FE02C11240F
:104FA0008DE08E0D80931602812F0E940718902F9E
:104FB000990F900F191B92E1199F902D1124985F62
:104FC00020910F01211128E01BEAD19E112D1124FF
:104FD0001695890F820F80931702912F990F910FC9
:104FE000CD2CC91A011B9C2DE2E70E9F900D1124B8
:104FF000990FF1E2EF0EE90EE09218028093190288
:10500000E0921A028D2D0E94071802E1C09E800DC9
:105010001124845F80931B029CE1199F102D1124A1
:1050200022E02D1508F080C190E07FC1823008F4A5
:1050300083C0823009F006CE80E80E94AB0E882340
:1050400019F080E00E946A0D80E10E94AB0E882377
:1050500019F080E00E94140D80E40E94AB0E8823BA
:1050600019F089E00E94BB0D80E20E94AB0E8823FC
:1050700019F089E00E94340ED09010017FEFD7160E
:1050800009F488CEE0900E018EE1809316028E2DF9
:105090000E94071862E1C62EEC9C800D1124845FEB
:1050A000809317029BEAD99E012D11240695E99E53
:1050B000912D11249695091B002E000C110B015007
:1050C0001109292F220F920FE91A9E2DEEE00E9F53
:1050D000900D1124990F905E9093180280931902FD
:1050E00090931A028D2D0E940718282F8D2D63E0B2
:1050F0000E942F309C9D802D1124885F36E0D39E26
:10510000F0011124EC5BF84F928134E0963009F005
:1051100030E0820F90911101911198E0830F890F77
:1051200080931B029CE1909F002D1124075D00934A
:105130001C0280931D0286CD80E20E94AB0E882364
:1051400049F0809110018A3F91F18F3F19F48AEF65
:105150008093100180E40E94AB0E882349F0809177
:1051600010018A3F31F18B3F19F48AEF80931001CF
:1051700081E192E00E94F918809110018B3FD9F4EF
:105180008CE08093160280910E0192E1899F802D20
:10519000112490910F01911196E0875F890F809300
:1051A000170291E090931802809319024BCD8BEF78
:1051B000CFCF8FEFDBCF8A3F09F044CD8CE08093D7
:1051C000160280910E0192E1899F802D1124909109
:1051D0000F01911196E0875F890F8093170294E089
:1051E000E1CF80E80E94AB0E882319F080E20E9494
:1051F0006A0D80E10E94AB0E882319F080E10E94C5
:10520000140D80E40E94AB0E882319F086E00E9402
:10521000BB0D80E20E94AB0E882319F086E00E944D
:10522000340E81E192E00E94F918C0900E018BEAE1
:10523000C89EE12C1124E6948CE1E89ED02C112428
:105240001DE01D0D1093160266E0C69EF0011124AC
:10525000EC5BF84F82810CE0863009F008E08C2D81
:105260000E9407189BEAC99E912D11249695292F1B
:10527000220F920FC91A9C2D800F72E1C79E800DDC
:10528000112400910F01011108E0800F8093170293
:10529000009110010B3F91F00F3F09F4D3CC0A3F6E
:1052A000C1F4990F191B1250109318028093190220
:1052B00010931A028EE380931B02C4CC990F191B22
:1052C0001250109318028093190210931A0282E070
:1052D000F2CF1BEA019F112D11241695912F990FE2
:1052E000910FC02EC91AE11A9C2DE2E7EE9E900D97
:1052F0001124990FF1E2DF0ED90ED092180280939B
:105300001902D0921A02802F0E94071822E1C29E31
:10531000800D1124845F80931B029CE1199F102D46
:105320001124033008F080CE94E0165E190F10931C
:105330001C02FFCE20910F0140911101E0E4F6E044
:10534000DF0156E0580F11963C9111975230A0F4AE
:10535000831320C012963C91129793131BC013968F
:105360003C911397321316C014963C911497332333
:1053700089F014961C9292CC9817D8F493130AC013
:1053800012963C911297831305C013963C91139784
:10539000341751F31D9664E477E06A177B0799F69A
:1053A0003481311133C0523088F481839283238356
:1053B00012C08313EFCF12963C9112979313EACF4A
:1053C00013963C9113972313E5CFCECF981768F728
:1053D00091838283438381E0848380911602858355
:1053E0008091170286838091180287838091190229
:1053F000808780911A02818780911B028287809129
:105400001C02838780911D02848748CC3D96EA1751
:10541000FB0731F643CC0E94811482FF5AC084E01E
:105420000E94AB0EE0900E01882349F076E0E79EE3
:10543000F0011124EC5BF84F8281809310028BEA1B
:10544000E89E812D11248695833028F0833009F061
:10545000F9CB82E03BC0CE2CD12C46E0942E9C9C14
:1054600080019D9C100D11240C5B184FF801848164
:10547000882379F380E80E94AB0E882369F0E99CC9
:10548000C00111248A5B984F0E942918F801828379
:1054900085E497E00E94761880E10E94AB0E882395
:1054A000A1F016E0E19EC00111248A5B984F0E9492
:1054B00015181C9DF0011D9DF00D1124EC5BF84F9B
:1054C000828385E497E00E94761881E080931F0232
:1054D000B9CB84E00E94B60E882309F4B3CB909137
:1054E0000E019C3009F4AECB9F3F09F4ABCB209169
:1054F0001002273009F4A6CB06E0909FF00111249A
:10550000EC5BF84F8281281709F49CCB263038F4E5
:10551000863038F48650823008F094CB02C0863052
:10552000C8F7E0E4F6E08181981711F082818111DB
:1055300014823D9617E0E434F107A9F783CB8091FC
:105540002802811138C0A4E4B7E040E012969C9193
:105550001297973051F12DEF280F263008F441E0D3
:10556000963009F41FC121E09A3009F41CC120E0F3
:1055700090E0E0E4F6E050E03481332359F06181BB
:10558000861301C0232F6281861304C063816111D9
:1055900044C4532F3D9637E0E434F30769F75523AD
:1055A00051F0992341F0222331F08F5F16968C3011
:1055B00069F64111FAC080910F02813011F4109206
:1055C0000F020E94E21900E027E348E270E060E089
:1055D00090E080E00E94B31425E346E261E070E0D1
:1055E00081E090E00E94AB1521E049E264E285E0B1
:1055F0000E94EB1481E080930B0818E010930908D7
:105600001093080884E080930A088FE79AE00E94CC
:10561000871710930908109308088BE280930A08F3
:105620008AE79AE00E94871710920B08E0900F0219
:10563000EE2DF0E0EE59FE4F6081109309081093B3
:10564000080860930A0870E001E028E040E284E086
:1056500090E00E94B314D11009C020E042E75AE064
:105660006DE070E08EE190E00E94561462E0E61674
:1056700009F4B4C06E1508F49BC0EE2009F4A9C06B
:1056800071E088E69AE0E71609F4A5C081E080930E
:105690000B0880910E02823009F4D3C1833009F4E3
:1056A00009C2813009F0FCC080910D02843618F4E3
:1056B0008F5F80930D0240E060E080E00E948914DB
:1056C00010910D028FEF810F8F3068F480918D075C
:1056D000882349F0809194078111A2C060E080E2A4
:1056E00040E00E9489148FED810F8F3068F4809123
:1056F0008D07823048F080919B07811194C060E053
:1057000080E240E00E94891411541F3068F48091B7
:105710008D07833048F08091A207811187C060E037
:1057200080E240E00E94891400E029E34EE468E052
:1057300070E084E290E00E94B31427E34CE469E057
:1057400070E085E290E00E94AB1521E043E16EE657
:1057500088E20E94EB148AE280930908809308088B
:105760008AE080930A0885ED91E00E94D51908E14E
:1057700010E09BE2E92E50918D07151708F459C0EF
:1057800024E437E040E081E0541709F482C0F901D5
:10579000E05BFF4F90819111982F4F5F295F3F4F42
:1057A000892FF2CF20E091E0E4CEDD24D39409CF1D
:1057B00083E0E81631F194E0E91268CF88E0809345
:1057C0000908809308088BE280930A0884E59AE030
:1057D00002C08DE69AE00E94871758CF83E69AE0D0
:1057E0000E9487173BEFC32EE12C10E000E020E081
:1057F0004EE55AE068E170E08FE190E00E942B12E4
:1058000045CF89E59AE00E9487172BEFC22EE12C45
:1058100010E000E020E04EE55AE061E270E0ECCFFD
:1058200060E280E05DCF60E280E06BCF60E280E02C
:1058300078CFE0920908E092080800930A0883EE06
:1058400091E00E94D519812E912CC40101960E94ED
:10585000491E89EE91E00E94D519EDE01E9FB0012E
:105860001124695E7F4FF89CF001F99CF00D112422
:10587000EC56F84F808120E04EE35AE0811102C0DF
:1058800048E25AE080E690E00E9446141F5F035F02
:1058900072CF882329F081E08093A30710920E0134
:1058A00080E80E94AB0E882379F080910F02882354
:1058B00059F090910E02911107C0823009F0D9C1C0
:1058C000D110D7C110920F0280E80E94AB0E88233E
:1058D00071F080910E02833051F48CE092E00E94CE
:1058E000291880910C02873011F410920C0280E18B
:1058F0000E94AB0E882379F080910F02843058F417
:1059000090910E02911107C08111B7C1D110B5C19C
:1059100082E080930F0280E10E94AB0E882379F031
:1059200080910E02833059F48CE092E00E941518A9
:1059300080910C02873019F486E080930C0280E499
:105940000E94AB0E882351F080910F02823031F417
:1059500090910E02911102C080930E0280E40E9489
:10596000AB0E882351F080910F02833031F4909177
:105970000E02911102C080930E0280E20E94AB0ED3
:10598000882359F080910E02882339F010920E027C
:1059900040E060E080E00E94891484E00E94AB0E49
:1059A000882371F080910E0281110AC08FEF8093DD
:1059B0000F01809310018093110184E08093010115
:1059C00084E00E94AB0E882359F080910E02882358
:1059D00039F010920E0240E060E080E00E948914ED
:1059E00088E00E94AB0EE82E882311F40C94312439
:1059F00080910F02823009F40CC208F040C1882364
:105A000009F44CC1813011F00C94312410920D0234
:105A1000712C6624639440918D07741608F447C175
:105A200024E437E090E0941709F4D7C1F901E05B72
:105A3000FF4F808181118E2D9F5F295F3F4FE82EA0
:105A4000F2CF00E029E34EE468E070E084E290E009
:105A50000E94B31427E34CE469E070E085E290E033
:105A60000E94AB1521E043E16EE688E20E94EB1450
:105A70008AE280930908809308081AE010930A08C4
:105A800088EC91E00E94D51980914407612F0E9413
:105A90002F3090E00E94491E80914407612F0E94A0
:105AA0002F30892F90E00E94491E67E18BE20E940F
:105AB000471DF6CE00E029E341E568E070E084E2AE
:105AC00090E00E94B31427E34FE469E070E085E2C0
:105AD00090E00E94AB1501E027E347E069E070E049
