:100000000C94EC0C0C94140D0C94140D0C94140D15
:100010000C94140D0C94140D0C94140D0C94140DDC
:100020000C94140D0C94140D0C94C31E0C94321FDC
:100030000C94140D0C94140D0C94140D0C94140DBC
:100040000C94140D0C94140D0C94140D0C94140DAC
:100050000C94140D0C94140D0C94140D0C94642138
:100060000C94140D0C94140D0C94140D0C94140D8C
:100070000C94140D0C94140D0C94140D0C94140D7C
:100080000C94AE210C94140D0C94140D0C94140DBE
:100090000C94140D0C94140D0C94140D0C94140D5C
:1000A0000C94140D0C94140D0C94140D08080807EE
:1000B00007070707070A0A0A0301010101010101F5
:1000C00001010808080707070707070A0A0A0301CA
:1000D000010010001010101108080703030707079C
:1000E000070A070703000222001222111222080841
:1000F000070101070707070A070703000222011289
:10010000221112220808080707070707070A0A0A28
:10011000031111100001011111010808070107075F
:100120000707070A0A070301012211012210112201
:100130000808070407070707070A0A070310102221
:100140000001220110220808080707070707070A0D
:100150000A0A03010001101110110011080807011B
:1001600007070707070A0A070301012211012210E6
:1001700010220808070307070707070A0A070310E2
:1001800010220100220111220808070706070707AD
:10019000070A0A07031010000001221101220808B3
:1001A000070703070707070A0A07031110220001C0
:1001B000221000220808070606070707070A070794
:1001C0000310122201022210022208080707070763
:1001D0000707070A07070301022201122210122251
:1001E0000808070707070707070A0A07031110226D
:1001F0000001221100220808080707070707070A5D
:10020000070703111212000202001202080707007A
:1002100007030707070A0A07021120220021220804
:1002200007070707070707070A0A07021120220026
:1002300021220807070107070707070A0707020126
:1002400022221022220808070707070707070A07C4
:1002500007030102220012221112220808070707D1
:10026000070707070A0707030102220012221012DC
:10027000220808070707070707070A0707030002FE
:100280002201122210122208080707070707070792
:100290000A0707030002220012221112220808078F
:1002A0000707070707070A070703010222011222AF
:1002B0001012220808070707070707070A0707039E
:1002C000000222011222111222080707070707075E
:1002D00007070A0707020122221022224E4F54006C
:1002E000584E4F5200584F52004E4F52004F52003E
:1002F0004E414E4400414E44000000000001000108
:1003000000000101010000010001010100010101E3
:1003100000000000000101010001010101000001D5
:1003200000010001000001010000000000010101C6
:1003300000010101000000010001000100000101B5
:1003400001000201010200020202020202FFFFFF9D
:10035000FFFFFFFFFFFFFF3F3F3F3F3F3F3F3F3F6D
:100360003F0A0E00FEC2C202C2DE1EFE00001F10C7
:100370001616101E1E1F0000FEC2DA1AC2DE1EFE76
:1003800000001F101010101E1E1F0000FEC2DA1AFF
:10039000021E1EFE00001F101616101E1E1F00005B
:1003A000FE0E0E0E8EBE3EFE00001F1F1F1C1D1DEA
:1003B0001C1F000000000000000000000000000002
:1003C0000000000000000000FE0E6E6E0E3E3EFEBD
:1003D00000001F1F1F1C1C1C1C1F000A0E00FEBE5D
:1003E0008EB6B68EBEFE00001F1A1A1A1A1A1A1FEF
:1003F00000FFFFFFFFFFFFFFFFFFFF3F3F3F3F3FCC
:100400003F3F3F3F3F0A0E00FEEEE6E2E6EEFEFE15
:1004100000001F1D1911191D1F1F000504060909E1
:1004200009060E040406040F02040906060904095D
:100430000604040F0506070807010F060907010651
:10044000020204080F060906090603040A09060544
:1004500016EE226222E2C848D452D21D04040405DA
:1004600005051F1B1B1B1F05051F1B111B1F101440
:100470000000000000F02040802010048C4010306C
:100480000808080808FF00008041221C0808080826
:100490000000000000070201000000000000000052
:1004A0000000000000F0E0C080000000804010303C
:1004B0000808080808FFFFFFFF7F3E1C080808081F
:1004C0000000000000070301000000000000000021
:1004D0000000000000F0E0C0802010040C000000CC
:1004E0000808080808FFFFFFFF7F3E1C08080808EF
:1004F00000000000000703010000000000000000F1
:100500003EFFAB55AB55AB55AB55AB56ACF8E0E049
:100510003E7F6A556A556A556A556A351A0F030354
:100520003EFFAB55AB55AB55AB55AB56ACF8E0E029
:100530003E7F6A556A556A556A556A351A0F030334
:100540003E3F0DFB55AB55AB55AB55AB56AC78E0CC
:100550003E7E586F556A556A556A556A351A0F03BB
:100560003E3F1DFB55AB55AB55AB55AA54B8E0E02B
:100570003E7E5C6F556A556A556A552A150E03030F
:100580003C3F0CF0030DFB55AB55AB55AA54F8E0BE
:100590001E7E180760586F556A556A552A150F0355
:1005A0003E3F0CF0030DFB55AB55AB56ACF8E0E00D
:1005B0003E7E180760586F556A556A351A0F030357
:1005C00080C0C0FFAB56AC58B0E0C0C08080808017
:1005D0000001017F6A351A0D0603010100000000C9
:1005E000000000000000000000000000000000000B
:1005F00000000000000000000000000000000000FB
:1006000011098282C745C70404040808101038285D
:10061000381010000001010100000000000000007F
:10062000000000008282C745C740404020201010D3
:1006300038283810100000010101000000000000FF
:10064000000000000000061AFFBDB9B139BDFF8BE4
:10065000EBCAE98BFF36D6D2D4D6030302020202DC
:100660000513D151D55BD125A4B4ACA50304040472
:1006700004151355000100010001000100010001F3
:1006800000010001000100555500000000000000BD
:1006900000000000000000000000000055050004FC
:1006A000000400040004000400040004000400042A
:1006B00000050208D4D205087F7F3E1C084120FEB9
:1006C0000105F1F1F111D1B1D111F1515151515156
:1006D0005151515151515151510000FF00007F7F44
:1006E00009090F06007F7F19396F46007F7F49494E
:1006F000414100266F49497B3200266F49497B32D0
:10070000FF0000FFFFFFFEFFFEFF0279CD95A5CDA4
:10071000790111111101F9F901010000FF00007FB9
:100720007F09090F06007F7F40404040007C7E0B20
:100730000B7E7C00070F78780F0700000000000098
:1007400000FF00001F3F3F33333333333E36363E26
:10075000363E363E36363E36363E360000FF000028
:100760003E7F41417F3E007F7F0E1C7F7F00000067
:100770000000000000000000000000000000000079
:1007800000003F4050404040784641415959414166
:1007900041415959414141414141414100007F009E
:1007A0000001017F7F0101007C7E0B0B7E7C007FBE
:1007B0007F09090F06007F7F494941410000000081
:1007C00000000004083E09093E3F25251A1E21218C
:1007D000123F21211E3F2525213F0505011E21290C
:1007E0003A3F04043F213F21001021211F3F040A0A
:1007F000313F2020203F02023F3F02043F1E2121C3
:100800001E3F0909061E21112E3F09093622252502
:1008100019013F01011F20201F0F10201F3F101042
:100820003F3B04043B03043807312D2321102A2ABF
:100830003C3F2424181C2222141824243F1C2A2A5A
:100840002C047E05014C52523E3F040438243D20C6
:10085000004040443D3F081422213F20003E040454
:100860003E3E04023C1C22221C7E22221C1C222210
:100870007E3E040204242A2A12021F22201E202067
:100880001E0E10201E3E10103E360808364E5050E8
:100890003E322A26221E29251E223F2000322929E7
:1008A000261221251A0C0A3F08172525191E252571
:1008B00018013905031A25251A0629291E002F00BB
:1008C000000020000002290502D5F08D14A1C88186
:1008D000CFD9F1AF200031007D00000032002100AF
:1008E000900100800B027D00000032009302F401B1
:1008F0000000320000804F004100412020204F00C6
:10090000410A4200412042204F00F502F002ED0270
:10091000E902E502E002DC02101008FF010101011A
:1009200001010102020418E08080087F404040403D
:100930004040402020100C03000008FF010101018D
:1009400001010102020418E040C0087F404040401D
:100950004040402020100C030101080B0DF1010163
:1009600001010101020204186080086858474040F4
:10097000404040402020100C0300080B0DF1010105
:1009800001010102020418E040C0086858474040D5
:100990004040402020100C030101080B0CF0030D17
:1009A000F10101010202041860800868180760580C
:1009B000474040402020100C0300080B0CF0030DB2
:1009C000F1010102020418E040C0086818076058ED
:1009D0004740402020100C030101808080FF02046A
:1009E000081020C040C0808080800000007F201060
:1009F00008040201010100000000000000000000E6
:100A000000000000000000000000000000000000E6
:100A1000000000000000000000000508DF9F1F9F8D
:100A2000DF0508FBF9F8F9FB0A0AFC0201894141DC
:100A3000890102FC000102020202020201000A0A0C
:100A4000FC0201498181490102FC0001020202020B
:100A500002020100517569740048656C700003055D
:100A60001F0E04496E666F00546573740042616323
:100A70006B0006075456555556545175697400421B
:100A800061636B0A546573740A496E666F0A486540
:100A90006C700008083C7E83EDED837E3C4C766CE8
:100AA000200000FEFEFEFEFEFEFEFEFE0000000038
:100AB00000000000000000000080C0E0F0F8F8FC3A
:100AC000FCFEFEFEFEFEFEFEFEFEFEFEFCFCF8F858
:100AD000F0E0C08000000000000000C0E0F0F0F88E
:100AE000FCFCFCFEFEFEFEFEFEFEFEFEFCFCFCF838
:100AF000F0E0C0800000FEFEFCF8F2E6CE9E3E7EF6
:100B0000FEFEFEFEFEFEFEE0C08000000000008053
:100B1000C0E0FEFEFEFEFEFEFE7E3E1E000000FF6A
:100B2000FFFFFFFFFFFFFFFF0000000000000000CD
:100B30000000F0FCFFFFFFFFFFFFFF7F1F0F070715
:100B4000030303030307070F1F7FFFFFFFFFFFFFE1
:100B5000FFFCF0C0FCFEFFFFFFFFFFFFFF1F0F07C2
:100B60000703E3E3E3E3E7E7E7EFEFEFE7E3E1E0E2
:100B7000E060FFFFFFFFFFFFFFFFFF000003071F15
:100B80003F7FFFFFFFFFFFFCF8FCFFFFFFFFFF7F42
:100B90001F0F070300000000000000FFFFFFFFFF22
:100BA000FF7F3F1F000000000000000000007FFFEB
:100BB000FFFFFFFFFFFFFFF0C0800000000000000C
:100BC00000000080C0F0FFFFFFFFFFFFFFFF7F1F5F
:100BD000FFFFFFFFFFFFFFFFF880000000003F3F27
:100BE0003F3F3F3F3FBFBFFFFF9F0F070100FFFF9A
:100BF000FFFFFFFFFFFFFF0000000080E0F0F8FFB5
:100C0000FFFFFFFFFFFFFFFFFFFFF8F0E0800000A6
:100C1000000000000000001F0F87C3E1F0F8FCFE99
:100C2000FEFEFEFEFEFEFEFEFEFEFEFFFFFF1F3F7F
:100C30007FFFFFFFFFFFFFFFFEFEFEFEFEFFFFFF49
:100C4000FFFFFFFF7F3F1F0F0701000001030F1F82
:100C50003F7FFFFFFFFFFFFFFEFEFEFEFEFEFEFFEB
:100C6000FFFFFFFF7F7F1F0E0000FFFFFFFFFF7FE3
:100C7000BFDFEFF0FCFEFFFFFFFFFF3F1F0F07018D
:100C80000001070F1F3FFFFFFFFFFFFEFCF0E0C06A
:100C900080000002030303030303030303030303AE
:100CA0000303030303030303030300000000000125
:100CB0000103030303030303030303030101000010
:100CC0000000000000000000000000000000000024
:100CD00001010303030303030303030303010100EF
:100CE00000000000000003030301000003030303EE
:100CF00003030303030303000000000000000000DF
:100D000000000303030303030303030303007C2422
:100D1000000000F8F8F8F8F80000000000000000FB
:100D20000000000000000000000080C0E0E0F0F0E3
:100D3000F0F8F8F8F8F8F8F8F0F0F0E0E0C080002B
:100D4000000000000000000000000080C0C0E0F0D3
:100D5000F0F0F8F8F8F8F8F8F8F0F0F0E0E0C0801B
:100D6000000000000000F8E0C0800000081838789B
:100D7000F8F8F8E0C08000000000000000000080EB
:100D8000C0E0F8F8F878381800000000000000FF14
:100D9000FFFFFFFF00000000000000000000000057
:100DA0000000E0F8FEFFFF3F0F0703010100000015
:100DB00000000000010103070F3FFFFFFEF8E00005
:100DC00000000080F8FCFEFF7F0F07030101000018
:100DD0000000808080818183878381808000000083
:100DE0000000FFFFFFFFFF00000000000003070FEF
:100DF0003F7FFFFCF8600070F8FCFF7F3F0F0703A8
:100E00000000000000000000000000FFFF7F3F1F07
:100E100000000000000000000000000000003FFF94
:100E2000FFFFFFE080000000000000000000000065
:100E30000000000080E0FFFFFFFF3F000000000F08
:100E4000FFFFFFFFF08000000000000000000F0F18
:100E50000F0F0F0F0F0F0703000000000000FFFF30
:100E6000FFFFFF000000000000000080E0F0F8FD40
:100E7000F8700070F8FDF8F0E0800000000000005D
:100E8000000000000000000180C0E0F0F8F8F8F871
:100E9000F8F8F8F8F8F8F8F8F8F8000003070F1F6A
:100EA0003F3F7E7CFCF8F8F8F8F8F8F8FC7C7E3FD1
:100EB0003F1F0F0703000000000000000001070FA4
:100EC0001F3F3F7E7CFCF8F8F8F8F8F8F8F87C7ED5
:100ED0003E3F1F0E040000000000FF7F3F1F070081
:100EE00080C0E0F0FCFEFF3F1F0F07010000000084
:100EF0000001070F1F3FFFFEFCF0E0C08000000074
:100F000000000000000000000000000000000000E1
:100F100000000000000000000000000000000000D1
:100F200000000000000000000000000000000000C1
:100F300000000000000000000000000000000000B1
:100F400000000000000000000000000000000000A1
:100F50000000000000000000000000000000000091
:100F60000000000000000000000000000000000081
:100F7000000000000000000000000000804091918F
:100F80009191939694969390909090909090909049
:100F90009090909090909090909E8282F212121277
:100FA0001212929292921212129292F28202020201
:100FB000828282820202028282FE800000008080A1
:100FC0008080000000808080800000008080808021
:100FD00000FF000080F0888402010080F088840215
:100FE000010080F09888040202828282820202025A
:100FF00002020202020202020202020202029191B3
:1010000091919191919191919191919191919191D0
:101010009191911111111111111111111110101043
:101020001010FFFFFFFF000000FFFFFFFF000000A8
:10103000FFFFFFFF000000FFFFFFFF000000FFFFBA
:10104000FFFF000000FFFFFFFF000000FFFFFFFFAA
:1010500000FF0000FFFFFFFF000000FFFFFFFF0099
:101060000000FFFFFFFF000000FFFFFFFF10101058
:1010700010101010101010101010101010101D373C
:1010800023371D01010101010101010101010101DC
:101090000101FF000000000000000000000000004F
:1010A00000000F0F0F0F0000000F0F0F0F0080C088
:1010B0006F3F0F0F0000000F0F0F0F0080C06F3F3A
:1010C0001F0F0000000F0F0F0F0000000FFF0F8F0A
:1010D000C07FC0800F0F0F0F0000000F0F0F0F0019
:1010E00000000F0F0F0F0000000F0F0F0F00000088
:1010F00000000000000000000000000000000000F0
:1011000000000000000000000000000000000000DF
:1011100000000F089E9E9E9E9E9E9E9E9E9E9E9E50
:101120000000000000000000386C446C3E83C16089
:1011300030180808080808C8682C66C301000000B9
:1011400000000000000000000000000000FF00039D
:10115000060406030000000000000000000000007C
:101160000000000000000000000000000000008FF0
:101170008F8F8F8F8F8F8F8F8F8F040404041212A5
:10118000121212121212121212121212121212123F
:1011900012121212D7D7D7D7D7D7D7D7D7D7D7D7F3
:1011A000101090909090909090988C86C3612060E1
:1011B000C000000000000001030203010101010161
:1011C00001010101C1612161C1818181818181812F
:1011D00081818181818181818181818181818181FF
:1011E00081C1612161C101011D3722361C0000C788
:1011F000C7C7C7C7C7C7C7C7C7C702020202C0C0A1
:10120000C0C0C0C0C0C0C0C0C0C0C0C0C0C0C0C0DE
:1012100060301808EBEBEBEBEBEBEBEBEBEBEBEB1A
:101220008989848484848484848E9B919B8F828327
:1012300081808080808080808080808080808080AD
:1012400080808080C1632263C180808080808080B4
:10125000808080808080808080808080800000000E
:10126000000103FE0301000000000000000000E395
:10127000E3E3E3E3E3E3E3E3E3E38181818180808C
:10128000808080808080808080808080C0602060BE
:10129000C0000000F1F1F1F1F1F1F1F1F1F1F1F142
:1012A000603018080808080808080808080808082E
:1012B00008080808080808080808080808080808AE
:1012C00008080808090B0A0B090808081C3622360A
:1012D0001C0000000000000000000000FF000000F3
:1012E0000000007F4040404040404040404040F1CE
:1012F000F1F1F1F1F1F1F1F1F1F100000000000084
:101300000000000000000000100010001103121384
:1013100011101E027A7A7A7A7A7A7A7A7A7A7A7AD4
:10132000020202020202020202020202020202029D
:10133000C2623E68C80808080808080808080808C3
:10134000080808080808080808080808080808081D
:101350000808080808081C3622361C000F08000878
:1013600000080000000000000000000000000078FD
:101370007878787878787878787800000000290094
:101380003B0029009C00000007002900D800000055
:1013900046053100D800000007003100D8000000E9
:1013A000C7012500D800000007002500D800000074
:1013B000C7012900D800000007002900D80000005C
:1013C00046054100D800000007004100D800000099
:1013D000C7013100D800000007003100D80000002C
:1013E000C7012900D800000007002900D80000002C
:1013F00046053100D800000007003100D800000089
:10140000C7012500D00025000700000007002500C7
:10141000D8000000C90000000E000000F200290002
:10142000DB00000007002900DB0000005B05410035
:10143000DB00000007004100DB000000CE013E00A1
:10144000DB00000007003E00DB000000CE012900A9
:10145000DB00000007002900DB0000005B050080C6
:10146000080B000202020000090400000102020051
:1014700000052400100105240101010424020605D1
:101480002406000107058103100040090401000241
:101490000A00000007050202400000070583024021
:1014A00000000403090412010002EF02014041237D
:1014B000368000010102030141726475696E6F207C
:1014C0004C4C430041726475696E6F204C656F6EC1
:1014D0006172646F0000000000003E5B4F5B3E3EA7
:1014E0006B4F6B3E1C3E7C3E1C183C7E3C181C57D0
:1014F0007D571C1C5E7F5E1C00183C1800FFE7C374
:10150000E7FF0018241800FFE7DBE7FF30483A0642
:101510000E2629792926407F050507407F05253FAE
:101520005A3CE73C5A7F3E1C1C08081C1C3E7F149A
:10153000227F22145F5F005F5F06097F017F0066E4
:1015400089956A606060606094A2FFA29408047E3E
:10155000040810207E201008082A1C08081C2A08ED
:10156000081E101010100C1E0C1E0C30383E3830A7
:10157000060E3E0E06000000000000005F000000A6
:1015800007000700147F147F14242A7F2A122313D4
:1015900008646236495620500008070300001C22E8
:1015A00041000041221C002A1C7F1C2A08083E081A
:1015B000080080703000080808080800006060001B
:1015C00020100804023E5149453E00427F4000720F
:1015D000494949462141494D331814127F10274586
:1015E0004545393C4A4949314121110907364949A4
:1015F0004936464949291E000014000000403400C5
:101600000000081422411414141414004122140878
:1016100002015909063E415D594E7C1211127C7F30
:10162000494949363E414141227F4141413E7F493E
:101630004949417F090909013E414151737F080829
:10164000087F00417F41002040413F017F08142274
:10165000417F404040407F021C027F7F0408107F92
:101660003E4141413E7F090909063E4151215E7FCD
:1016700009192946264949493203017F01033F40A0
:1016800040403F1F2040201F3F4038403F63140828
:10169000146303047804036159494D43007F4141B9
:1016A000410204081020004141417F04020102046C
:1016B0004040404040000307080020545478407FD9
:1016C000284444383844444428384444287F385413
:1016D00054541800087E090218A4A49C787F0804BA
:1016E000047800447D40002040403D007F102844A5
:1016F0000000417F40007C047804787C0804047872
:101700003844444438FC1824241818242418FC7C39
:1017100008040408485454542404043F44243C401E
:1017200040207C1C2040201C3C4030403C44281081
:1017300028444C9090907C4464544C4400083641BA
:101740000000007700000041360800020102040298
:101750003C2623263C1EA1A161123A4040207A3843
:1017600054545559215555794121545478412155A6
:1017700054784020545579400C1E527212395555F8
:101780005559395454545939555454580000457CCE
:10179000410002457D420001457C40F0292429F0AA
:1017A000F0282528F07C545545002054547C547C66
:1017B0000A097F4932494949323248484832324A57
:1017C0004848303A4141217A3A42402078009DA071
:1017D000A07D39444444393D4040403D3C24FF24F1
:1017E00024487E4943662B2FFC2F2BFF0929F62026
:1017F000C0887E090320545479410000447D413063
:1018000048484A32384040227A007A0A0A727D0DEE
:1018100019317D2629292F28262929292630484DA6
:101820004020380808080808080808382F10C8ACF5
:10183000BA2F102834FA00007B000008142A142262
:1018400022142A14089500220095AA005500AAAA7D
:1018500055AA55AA000000FF00101010FF00141434
:1018600014FF001010FF00FF1010F010F0141414FB
:10187000FC001414F700FF0000FF00FF1414F40430
:10188000FC141417101F10101F101F1414141F0025
:10189000101010F0000000001F101010101F10108A
:1018A0001010F010000000FF101010101010101099
:1018B00010FF10000000FF140000FF00FF00001FD9
:1018C00010170000FC04F414141710171414F40477
:1018D000F40000FF00F714141414141414F700F7A4
:1018E000141414171410101F101F141414F41410CF
:1018F00010F010F000001F101F0000001F14000067
:1019000000FC140000F010F01010FF10FF1414146D
:10191000FF141010101F00000000F010FFFFFFFF69
:10192000FFF0F0F0F0F0FFFFFF0000000000FFFF0D
:101930000F0F0F0F0F38444438447C2A2A3E147E80
:1019400002020606027E027E026355494163384464
:10195000443C04407E201E2006027E020299A5E738
:10196000A5991C2A492A1C4C7201724C304A4D4DD3
:10197000303048784830BC625A463D3E49494900BB
:101980007E0101017E2A2A2A2A2A44445F444440D7
:10199000514A444040444A51400000FF0103E08066
:1019A000FF000008086B6B083612362436060F0954
:1019B0000F06000018180000001010003040FF0152
:1019C00001001F01011E00191D1712003C3C3C3C88
:1019D000000000000000542211241FBECFEFDAE007
:1019E000DEBFCDBF11E0A0E0B1E0E0EBF1E602C068
:1019F00005900D92A03FB107D9F728E0A0EFB1E024
:101A000001C01D92AF31B207E1F71CE0CCEEDCE083
:101A100004C02197FE010E94CB30CB3ED107C9F70D
:101A20000E94A9220C94D6300C9400008091FE01F3
:101A30000895909110019A3FC1F19F3FB1F126E0C6
:101A4000929FF0011124E45CF84F2181263051F07F
:101A500020911101211106C0993020F481E080937A
:101A60001101089530910E012BEA329F312D11247E
:101A700036959C30D8F09B3F49F52FEF230F9FEF11
:101A80009F5F422F440F420F66E0542F590F569F1D
:101A9000F0011124E45CF84F71817730E1F050934C
:101AA00010013217B4F4109211010895929F212D64
:101AB00011242695422F440F420F941B923001F7B8
:101AC000882399F38AEF80931001EDCF20E090E016
:101AD000D7CF82E0C4CF9F5F9330B9F6F1CF90911A
:101AE0001001292F2B7F2B3F79F026E0929FF001E8
:101AF0001124E45CF84F2181263039F02091110146
:101B0000213019F410921101089530910E012BEA41
:101B1000329F312D112436959C3000F19A3F39F5D2
:101B20002FEF230F93E09150422F440F420F66E0B6
:101B3000542F590F569FF0011124E45CF84F718126
:101B40007730D9F05093100182E0321724F481E00D
:101B500023300CF080E0809311010895929F212D95
:101B600011242695422F440F420F941BE1F688233F
:101B700059F28BEF80931001C5CF9150C8F6F7CF83
:101B80002091100190910E012F3F09F4292F1092FE
:101B90001101263048F4233060F02091610727308E
:101BA00009F448C026E00AC0293008F44FC02F3F8E
:101BB00039F420914F07273081F123E02093100161
:101BC0003BEA939F912D1124969520911001239F1C
:101BD000212D11242695921303C02FEF209310017D
:101BE00080FF0CC0209110013BEA239F212D11247E
:101BF0002695291718F42FEF2093100181FF0CC0B0
:101C0000809110012BEA829F812D112486959817CF
:101C100018F48FEF80931001089520915507273015
:101C200011F024E0CBCF20915B07273009F4B5CF2A
:101C300025E0C4CF20916707273011F027E0BECF01
:101C400020916D07273011F028E0B8CF209173075D
:101C50002A3011F429E0B2CF209179072A3011F40B
:101C60002AE0ACCF20917F072A3009F0A9CF2BE0E2
:101C7000A5CF2091100190910E012F3F09F4292F3B
:101C800010921101293090F5263008F04DC0233014
:101C9000A8F53BEA939F912D112496952091100170
:101CA000239F212D11242695921303C02FEF2093FB
:101CB000100180FF0CC0209110013BEA239F212DD1
:101CC00011242695291718F42FEF2093100181FF76
:101CD0000CC0809110012BEA829F812D11248695E2
:101CE000981718F48FEF8093100108952C3088F620
:101CF00020916107273051F126E00CC020913D076B
:101D0000273019F010921001C4CF209143072730DB
:101D100021F021E020931001BCCF2091490727300A
:101D200009F4B7CF22E0F6CF20914F07273011F00A
:101D300023E0F0CF20915507273011F024E0EACFBF
:101D400020915B072730D1F225E0E4CF309167077F
:101D5000373001F720916D07273031F328E0DACFD3
:101D600090910F08982329F490910E08982381E010
:101D700009F480E0089590910F08982329F090913C
:101D80000E08982381E009F080E008959C01CB01C2
:101D90008770992791E001C0990F8A95EAF777FF3C
:101DA00002C0695F7F4FFB0183E0F595E7958A9557
:101DB000E1F7F695FE2FEE27F795E795E20FF31F73
:101DC000E95CFD4F415030F08191DF011197892B83
:101DD0008C93F8CF0895E7E3F2E0A0E0B8E000804C
:101DE0000EBC8111012C1197A0FDFDCF0192B9F716
:101DF0000DB40895FC0180913602882311F13FB79C
:101E0000F89482E08093E9002091F200822F90E024
:101E10001816190614F481E090E0882339F0289808
:101E200044E6409335024091F1004083222339F08B
:101E30002091F200211103C02BE62093E8003FBF60
:101E400008958FEF9FEF08952FB7F89483E0809364
:101E5000E9009091E800892F807295FF04C090916D
:101E6000F20080E4891B2FBF089580912D0281111B
:101E70000DC082E08093290284E080932A021092B0
:101E80002C0210922B0281E080932D0289E292E0D5
:101E90000895CF93DF931F92CDB7DEB76983DC013E
:101EA000ED91FC910280F381E02D41E050E0BE0114
:101EB0006F5F7F4F09950F90DF91CF91089583E079
:101EC0008093E9008091F200882319F08AE38093DF
:101ED000E80008950E94240F90E00895CF93DF93C7
:101EE0001F92CDB7DEB7FC018485958597FD08C0AC
:101EF0002FEF3FEF358724870F90DF91CF91089523
:101F0000CE0101960E94FA0E019719F4898190E0A2
:101F1000F3CF8FEF9FEFF0CF0F931F93CF93DF930C
:101F20001F92CDB7DEB78C01FC018485958597FFA4
:101F30000BC0CE0101960E94FA0E019771F48981BF
:101F400090E0F80195878487F801848595850F9046
:101F5000DF91CF911F910F9108958FEF9FEFF1CFF8
:101F6000FC018485958597FD0BC09FB7F89482E0AE
:101F70008093E9008091F2009FBF90E00196089560
:101F80009FB7F89482E08093E9008091F2009FBFB0
:101F900090E0089540912302509124022091210263
:101FA0003091220242175307B4F49091E8009570E3
:101FB000E1F39091E80092FD19C08093F1008091C7
:101FC00023029091240201968F739927892B19F48B
:101FD0008EEF8093E8008091230290912402019675
:101FE000909324028093230281E0089580E0089575
:101FF000EF92FF920F931F93CF93DF93F82E192F39
:10200000E62E042F81E0860F880F0E94CA0F83E01E
:102010000E94CA0FCF2DD12FEC0EFD2EF11CCE1534
:10202000DF05B9F007FF13C0FE0184910E94CA0FBB
:10203000182F80E00E94CA0F812321968111EFCFD3
:10204000DF91CF911F910F91FF90EF9008958881BC
:10205000EDCF81E0F5CFDF92EF92FF920F931F93C8
:10206000CF93DF93D82E8A01EB017B01E40EF51E9E
:10207000CE15DF0559F0D7FE12C0FE0184910E94F3
:10208000CA0F21968111F4CF0FEF1FEFC801DF9126
:10209000CF911F910F91FF90EF90DF90089588816D
:1020A000EECF0F931F93CF93DF931F92CDB7DEB781
:1020B00082E0898342E450E060E674E180E80E94B7
:1020C0002B100E94350FDC0112960D911C91011509
:1020D000110589F0D801ED91FC910280F381E02D8A
:1020E000BE016F5F7F4FC801099597FD04C0F801DD
:1020F00000851185ECCF89810F90DF91CF911F91E1
:102100000F910895615030F02091F100FC0120837F
:102110000196F8CF289884E6809335020895AF920F
:10212000BF92CF92DF92EF92FF920F931F93CF93C4
:10213000DF936C017B018B01040F151FEB015E0126
:10214000AE18BF08C017D10759F06991D601ED91BB
:10215000FC910190F081E02DC6010995892B79F75A
:10216000C501DF91CF911F910F91FF90EF90DF900C
:10217000CF90BF90AF9008953FB7F8948091FA0147
:102180009091FB01A091FC01B091FD0126B5A89BA7
:1021900005C02F3F19F00196A11DB11D3FBFBA2FF9
:1021A000A92F982F8827BC01CD01620F711D811DB9
:1021B000911D42E0660F771F881F991F4A95D1F73E
:1021C00008958F929F92AF92BF92CF92DF92EF923B
:1021D000FF926B017C010E94BC104B015C01C11499
:1021E000D104E104F104B9F00E94BC106819790926
:1021F0008A099B09683E73408105910580F321E0BF
:10220000C21AD108E108F10888EE880E83E0981E12
:10221000A11CB11CE4CFFF90EF90DF90CF90BF9056
:10222000AF909F908F9008958F929F92AF92BF92A0
:10223000CF92DF92EF92FF920F931F93CF93DF9392
:102240006C017B018A0180910D01882309F45CC037
:1022500080913602882309F457C08091280280FFBC
:1022600005C08091E00082608093E000E801B12C1D
:102270008AEFA82E93E0892E2AE3922E209711F45C
:10228000BB20D9F10E94240F81110AC0AA94AA2070
:10229000D9F161E070E080E090E00E94E110EECFC3
:1022A0008C171D0611F00CF08C2F9FB7F8948092BC
:1022B000E9002091E80025FD02C09FBFDFCF282F55
:1022C00030E0C21BD30BF701815020F041914093C5
:1022D000F100FACFE20EF31EBB2021F09092E8004D
:1022E000B12CEBCF8091E80085FDE7CF9092E8001C
:1022F000BB24B394209709F3F3CF5D9884E68093D1
:102300002702101611063CF081E090E0F60193835D
:10231000828310E000E0C801DF91CF911F910F91FF
:10232000FF90EF90DF90CF90BF90AF909F908F90F5
:10233000089520911D02E0911B02F0911C02CF0133
:10234000029690931C0280931B02222319F0859120
:1023500094910895808191810895E1E7F0E0808172
:102360008D7F808310929100469847981092F201D9
:102370000895CF92DF92EF92FF92CF93DF930E9466
:102380009911811520E8920741F4DF91CF91FF90D8
:10239000EF90DF90CF900C94AD1121E02093F201EB
:1023A000813020E8920751F48091190290911A022D
:1023B00090931C0280931B020E94991197FD05C007
:1023C0002091F101222309F45BC02091F001211139
:1023D00057C021E02093F301EC01DF77209709F04B
:1023E00052C081E08093F40146983FE9C32E3FE05C
:1023F000D32EE12CF12CCAEFD0E0E091F907F09157
:10240000FA070995811103C081E08093F40180915E
:10241000F301882329F08091F401882309F446C050
:1024200047980E949911009709F444C09C01DE016D
:102430000E948830DC01CB0129E0B595A7959795DE
:1024400087952A95D1F7109290002AE02093910069
:10245000D0929900C09298008093F5019093F60174
:10246000A093F701B093F80180917100826080938E
:102470007100DF91CF91FF90EF90DF90CF900895A2
:102480001092F301A9CF9E0150E040E060E472E4B5
:102490008FE090E00E94343069017A0181E0C81A2F
:1024A000D108E108F1081092F401A7CF4699B8CFFE
:1024B000479AB7CF8FEF9FEFDC01C5CF6F927F9226
:1024C0008F929F92AF92BF92CF92DF92EF92FF9244
:1024D0000F931F93CF93DF934C01CB013A017C2DD7
:1024E000FA01649131965491F2E06F0E711CC62F7F
:1024F000D0E0211102C0EE2009F1E1E0F0E0352F3B
:10250000377011F4F0E0E0E0A52FA695A695A6950A
:10251000AE0FBF2FB11DAC9FF001AD9FF00DBC9F62
:10252000F00D1124733009F08BC0EE0FFF1F2E9FAA
:10253000D0012F9FB00D11246A0E7B1ED401AC0F69
:10254000BD1F1A161B060CF06CC020E88216910401
:102550000CF067C09C01250F311D121613060CF0FC
:1025600060C0803491050CF05CC06114710409F402
:1025700058C0382F3770FC0197FD379623E0F5954A
:10258000E7952A95E1F72E2F97FF04C0332311F02A
:102590002FEF2E0FEE27FF27E819F90997FC02C04D
:1025A000F0E0E0E090E89819A038B1050CF4962F1F
:1025B0009E1BA22F022E000CBB0B4A2F40952F3FD3
:1025C0000CF040E0DD24D394852F877009F4D12CE2
:1025D000569556955695D50EAD0DB11D19971CF013
:1025E00058E0D52ED21AD41A240F50E82503D00172
:1025F0001124A80DB91DAE0FBF1F649FE00DF11D82
:1026000011246E0E7F1EE32E032E000CFF08733084
:1026100009F423C108F5713009F4D6C0723009F409
:1026200084C0DF91CF911F910F91FF90EF90DF90C9
:10263000CF90BF90AF909F908F907F906F900895B4
:102640000115110509F473CFEE9ED001EF9EB00D78
:1026500011240A0F1B1F6BCF7A3FB1F10D2D020F12
:102660007B3FF9F62017E9F2BD01695C7D4FD12C63
:10267000C12CC91608F0A2C0F301EC0DFD1DE491B8
:10268000F0E0AF010E2C02C0440F551F0A94E2F790
:1026900027FD06C0FB018081142F109581238083C4
:1026A000332361F0273054F45B01F0E8AF0EB11C26
:1026B000452F4095F501808184238083FFEFCF1A59
:1026C000DF0A6F5F7F4FD5CF0D2D020F201709F462
:1026D000A8CFBD01695C7D4FD12CC12CC91608F073
:1026E00067C0F301EC0DFD1DE491F0E0AF010E2C8D
:1026F00002C0440F551F0A94E2F727FD04C0FB01F6
:102700008081842B8083332351F0273044F45B0194
:10271000F0E8AF0EB11CF5018081852B8083FFEFBF
:10272000CF1ADF0A6F5F7F4FD9CF6FEF70E0032EB4
:1027300002C0660F771F0A94E2F760957095972E96
:102740008D2C820E281509F46CCF8D01095C1D4F6C
:10275000D12CC12CC91630F5F301EC0DFD1DE4910F
:10276000F0E0AF010E2C02C0440F551F0A94E2F7AF
:1027700027FD05C0F80180818623842B80833323C5
:1027800059F027304CF45801F0E8AF0EB11CF501B8
:1027900080818921852B8083FFEFCF1ADF0A0F5FAD
:1027A0001F4FD8CF2F5F6C0E7D1EA058BF4FCACFD2
:1027B0002F5F6C0E7D1EA058BF4F88CF2F5F6C0E11
:1027C0007D1EA058BF4F4ECF0E0F1F1F8D2D820FA5
:1027D000281709F426CFBD01695C7D4FD12CC12C8F
:1027E000C91698F5F801EC0DFD1DA490B12C0E2C26
:1027F00002C0AA0CBB1C0A94E2F7A094B094F301A7
:10280000EC0DFD1D8490912C0E2C02C0880C991C9F
:102810000A94E2F727FD08C0FB014081E42FEA217A
:102820004E2F4829FB014083332349F027303CF4E5
:10283000FB01E058FF4FA080BA20B928B082FFEF1B
:10284000CF1ADF0A6F5F7F4FCBCF2F5F6C0E7D1EDD
:102850000C0F1D1FA058BF4FBBCFE92EF12CE60D6A
:10286000F71DA95CBD4F60E870E06E197F09CE19B5
:10287000DF09AE01440F551FC1E0D0E07E01032EF9
:1028800001C0EE0C0A94EAF7192F0D2D892E932E14
:10289000CF93DF93ED01EF96EF962296A590C5902A
:1028A000992059F0AE9C5001CE9C600127302CF449
:1028B000F880D094FD20FB28F99222233AF0FC9076
:1028C000C094FC20FA28FD920C94671411961A9576
:1028D00029F70A9551F0182D23951124E40FF11DC5
:1028E000A60FB11DC60FD11DD9CFDF91CF911124F5
:1028F00098CECF92EF920F931F933AEFC32EE12C15
:1029000010E000E00E945E121F910F91EF90CF90B7
:102910000895CF92EF920F931F9332E0C32EE12CD4
:1029200010E000E00E945E121F910F91EF90CF9097
:102930000895BC0190E080E00C94E1108FB1809587
:10294000807F669B88601C9B8460089593E894BD9B
:10295000609567BD91EF90938000409388008093CD
:102960008A00089580389105B8F460347105A0F4A8
:1029700020E191E061FD94E060FD990F62FD929588
:10298000687F269FD0011124A80FA95CBD4F8C91B0
:1029900040FF03C0892B8C93089590958923FBCF2A
:1029A0008F929F92AF92BF92CF92DF92EF92FF925F
:1029B0000F93CF93DF934B01EC015C01A40EB11C8C
:1029C0007B01E20EF11CCA15DB05B4F46401C701FA
:1029D00021E4E216F10414F080E490E0C816D90670
:1029E0004CF4402FB601CE010E94B2148FEFC81AEA
:1029F000D80AEDCF2196E7CFDF91CF910F91FF90CD
:102A0000EF90DF90CF90BF90AF909F908F90089500
:102A1000FF920F931F93CF93DF93C82FD62FF22EE1
:102A2000681710F4C62FD82F042F10E0DC1740F0E1
:102A30004F2DB8018C2F90E00E94B214CE5FF6CFDC
:102A4000DF91CF911F910F91FF900895FF920F9307
:102A50001F93CF93DF93C82FD62FF22E681710F451
:102A6000C62FD82F042F10E0DC1740F06C2F70E039
:102A70004F2DC8010E94B214CE5FF6CFDF91CF91E7
:102A80001F910F91FF9008952F923F924F925F9266
:102A90006F927F928F929F92AF92BF92CF92DF926E
:102AA000EF92FF920F931F93CF93DF93EC018B0173
:102AB0007A016901C61AD70AD7FE03C0D194C1941E
:102AC000D10847018C1A9D0A97FE03C09194819406
:102AD00091088C149D0454F49E2D8F2D7901292F7B
:102AE000382F9C2F8D2FE801092F182FEC16FD068B
:102AF00054F4902F812F8901292F382F9C2F8D2F4F
:102B0000E701E92EF82E17012C1A3D0A2901401A77
:102B1000510A57FE03C0519441945108310137FEC8
:102B200003C08FEF681A780A759467948FEF0217C5
:102B300013070CF481E0A82E880FBB08EC16FD06E5
:102B4000A4F041E0BE01C8018C149D0414F0B8014A
:102B5000CE010E94B2146418750877FE04C00A0DF5
:102B60001B1D620C731C2196E9CFDF91CF911F9141
:102B70000F91FF90EF90DF90CF90BF90AF909F901C
:102B80008F907F906F905F904F903F902F9008951F
:102B9000AF92BF92CF92DF92EF92FF920F931F936B
:102BA000CF93DF936C01EB01042FA22E0E94C60E7F
:102BB000AC0EBD2EB11CB50161507109402FC6018C
:102BC0000E94C60E7E0141E0B701C6010E94B21408
:102BD0008FEFE81AF80AAE14BF04A9F70C0D1D2DEB
:102BE000111D0150110941E0BE01C8010E94B2143B
:102BF0002196CE15DF05BCF3DF91CF911F910F9188
:102C0000FF90EF90DF90CF90BF90AF9008952F92FC
:102C10003F924F925F926F927F928F929F92AF926C
:102C2000BF92CF92DF92EF92FF920F931F93CF93B9
:102C3000DF93CDB7DEB729970FB6F894DEBF0FBE8E
:102C4000CDBF803891050CF075C0603471050CF073
:102C500071C035E0FC01E39EE00DF11D11241E164C
:102C60001F060CF067C0F12CF70153E0EE0FFF1FB9
:102C70005A95E1F7E60FF71F1E161F060CF05AC013
:102C80000B832A837F836E83439FA00111249A01C3
:102C90002B523B4E390199878887312C2701F3014C
:102CA0008491F5E03F1201C080E08E809F8028E093
:102CB0002983E82FF0E0FD83EC832A8080FF2B80BE
:102CC000211004C0FB812A81F217E1F010E000E03E
:102CD00040165106B9F0A884B984A00EB11ED12CBB
:102CE000C12CC414D50459F0B601680D791D422DCC
:102CF000C5010E94B2143FEFC31AD30AF2CF0F5F8F
:102D00001F4FE6CF8C819D81959587959981915034
:102D100099838E0C9F1C9111CCCF3394EFEF6E1AD8
:102D20007E0A288539852E0D3F1D3987288736E094
:102D30003312B5CF29960FB6F894DEBF0FBECDBFC4
:102D4000DF91CF911F910F91FF90EF90DF90CF9087
:102D5000BF90AF909F908F907F906F905F904F90BB
:102D60003F902F900895EF920F93CF93DF93EC0154
:102D70006A30A1F48D8998E0899F90011124898996
:102D80009A89820F931F9A8B898B188A1F8681E0FC
:102D900090E0DF91CF910F91EF9008956D30B9F3EE
:102DA000462F69897A89ED880C892B898F859889C6
:102DB0000E9407162D89422F50E08F85988936E0B2
:102DC000239F800D911D1124988B8F872E8922239C
:102DD000F1F26AEF64039001659F300D11242058D1
:102DE0003F4F281739079CF6E881F9810190F0815F
:102DF000E02D6AE0CE010995CACF0895EF920F93B6
:102E0000CF93DF93EC016A30A9F43D89298D89893C
:102E10009A89329F800D911D11249A8B898B8F89FD
:102E200090E0988B8F8781E090E0DF91CF910F91B8
:102E3000EF9008956D30B9F3462F69897A89ED884E
:102E40000C892B898F8598890E9407162D89622FFE
:102E500070E08F85988936E0239F800D911D1124A5
:102E6000988B8F872E892223F1F2288D3AEF360333
:102E7000A001379F500D1124240F352F311D281725
:102E800039078CF6E881F9810190F081E02D6AE044
:102E9000CE010995C8CFCF92EF920F931F93CF9396
:102EA000DF93EC019E816A3071F48D818C8369859A
:102EB000960F9E8381E090E0DF91CF911F910F915B
:102EC000EF90CF900895262F6F3361F108F56E32A1
:102ED00079F140F4613251F198859C5F8C81890FC2
:102EE0008C83E8CF80ED860F2C5F8A30A8F761E0F5
:102EF000690F062E000C770B8C81082E000C990BA5
:102F00003F813130B9F443EC57E00E947914E4CFAB
:102F1000613410F36B3540F08FE9860F27548A3106
:102F200030F3DACF20E4E3CF2154E1CF2EE3DFCF3B
:102F30002FE3DDCF3BEFC32EE12C10E000E043ECAC
:102F400057E00E945E12C8CF0F931F93CF93DF9379
:102F50008C01D0E0C0E0F801EC0FFD1F6491662306
:102F600041F08BEF97E00E944B17892B11F02196CF
:102F7000F2CFCE01DF91CF911F910F910895089567
:102F800090E080E00895CF9380910F088095909114
:102F90000E08892311F01092010120E04DEB56E05C
:102FA00061E170E080E290E00E94891480910C0859
:102FB00090910D0860E370E00E94A330883170F4B6
:102FC000C1E18C3008F0CEE120E046EB56E069E14B
:102FD00070E08BE590E00E94891404C0CFE1843258
:102FE00008F0C0E26C2F70E041E084E390E00E94C2
:102FF000B214C0FD0AC020E042EB56E06CE170E084
:103000008DE290E0CF910C948914CF9108951F9395
:10301000CF93DF93C82FDFE3D81BC03288F41C2F77
:10302000117020E04C2F60E8812F0E94081520E0ED
:103030004D2F60E8812F0E940815CF5FD150EDCF52
:10304000DF91CF911F910895EBEA8E9FE12D11241E
:10305000E695E43028F4F0E0EA5DFE4F80810895C3
:103060008FEF0895FC018081883030F08A3068F459
:10307000883051F489E003C0811103C087E0808368
:1030800003C09FEF980F908380810895FC01808199
:10309000883038F08A3048F4893031F488E0808311
:1030A00003C0873019F410828081089591E0980F51
:1030B0009083FACFDC011196EC911197E63021F163
:1030C00048F0E93031F1EA3039F1E830D9F41496BA
:1030D0008C91089514968C911497811182E0159625
:1030E0009C91890F9CE0E99FE02D1124F0E093E092
:1030F000899FE00DF11D1124E550FD4FE49181E021
:10310000E13009F080E0089514968C9191E08927D0
:10311000089515968C91089514969C911497159680
:103120008C91892B08957F928F929F92AF92BF923C
:10313000CF92DF92EF92FF920F931F93CF93DF9383
:103140006C017C0110E086E0782EF7018181A12CD2
:10315000B12C873009F450C0C7E3D6E0A12CB12CC4
:103160002C8199812223C9F08A81811316C081E0C4
:103170003B81311180E041E09B3F09F040E0842336
:1031800009F052C081E0313009F080E031E09B3F2E
:1031900009F030E0832309F0A82E86E0890F823001
:1031A00028F14601979D800C911C1124222369F07F
:1031B0008A8181130AC001E08B81811100E0C40182
:1031C0000E945A18802309F0B82E8C81882371F050
:1031D0008A8181130BC001E08B81813009F000E00E
:1031E000C4010E945A18802309F0A82E2D96F7E0FA
:1031F000CB33DF0709F0B4CFF701B482A5821F5F9C
:10320000F6E0EF0EF11C1C3009F09FCFDF91CF915B
:103210001F910F91FF90EF90DF90CF90BF90AF90F4
:103220009F908F907F900895B82EACCFFC011482B0
:1032300015821682178210861186128613861486CE
:1032400008950F931F93CF93DF93E82FF0E0EE0FD5
:10325000FF1FE65DFE4F408151818F5F80933B07EA
:10326000ABE3B7E030E020E0FA01E20FF31FE491B6
:1032700011962C9311971296EC931297233008F421
:1032800061C081E0E73009F080E014968C931497D8
:103290002F5F3F4F16962C30310531F7FA013C96DF
:1032A000E491E0938407CA010D96A5E8B7E0FC011C
:1032B0002491422F50E034E0559547953A95E1F737
:1032C0004C932F7013962C9313973196E4912E2FD5
:1032D00030E044E0359527954A95E1F711962C9317
:1032E0001197EF701496EC931497FC013296E491C9
:1032F0002E2F30E054E0359527955A95E1F7129638
:103300002C931297EF701596EC93159703961796DA
:10331000F7E0AA39BF0759F6C7E3D6E00BE317E099
:10332000CE010E9416192D960C171D07C9F783E0D0
:103330008093010188E280932002DF91CF911F9159
:103340000F91089581E0A1CF8F929F92AF92BF928B
:103350000F931F93CF93DF93CDB7DEB7A1970FB62F
:10336000F894DEBF0FBECDBF19A2423008F44AE088
:103370008E010F5D1F4F842E912CB12CA12CA50125
:1033800094010E946630E62FB901CA01EA3044F583
:10339000E05DD801EE938D01232B242B252B79F7AB
:1033A00090E080E0109769F0FD0101900020E9F7BE
:1033B0003197AF014A1B5B0BBD018BEF97E00E9479
:1033C0008F10A1960FB6F894DEBF0FBECDBFDF9170
:1033D000CF911F910F91BF90AF909F908F900895C4
:1033E000E95CD7CFFC0101900020E9F73197AF01EC
:1033F000481B590BBC018BEF97E00C948F10CF92B8
:10340000EF92FF920F931F93CF93DF93CDB7DEB769
:1034100060970FB6F894DEBF0FBECDBF8091160146
:1034200090911701A0911801B09119018D879E8785
:10343000AF87B88B8CE0EAE1F1E0DE0111960190F4
:103440000D928A95E1F7E0910E01EC3008F45CC230
:10345000EC3009F47AC207E316E08BE3E82E87E04C
:10346000F82EF8018481882361F18581882359F041
:103470004781442341F0208530E050E0668170E0D0
:1034800090E00E944415F8018781882359F0418516
:10349000442341F0228530E050E0608570E090E008
:1034A0000E944415F8018185882359F043854423FF
:1034B00041F0248530E050E0628570E090E00E94A9
:1034C0004415035F1F4FE016F10659F680910C0872
:1034D00090910D088F71992711E0409708F010E046
:1034E00040910D02442369F080910F02882349F036
:1034F000481307C0212F6091100280910E020E9494
:10350000261580910D02882369F060910F026623D1
:1035100049F040910E0290911002491303C0212FEF
:103520000E94081540910F02442369F08091110216
:10353000882349F0481307C0212F6091120280911F
:1035400010020E94261580910F02882369F0609175
:103550001102662349F04091100290911202491322
:1035600003C0212F0E94081540911102442369F0E5
:1035700080911302882349F0481307C0212F6091DE
:103580001402809112020E94261580911102882354
:1035900069F060911302662349F040911202909104
:1035A0001402491303C0212F0E94081520913D07E2
:1035B0002850223040F440E056E068E070E08DE0B2
:1035C00090E00E947914209143072850223040F463
:1035D00040E056E06AE170E08DE090E00E947914EE
:1035E000209149072850223040F440E056E06CE238
:1035F00070E08DE090E00E94791420914F07CC2478
:10360000C394E22E00E015E048E159E067E070E085
:103610008AE290E00E945E1220915507E22E48E176
:1036200059E069E170E08AE290E00E945E12209128
:103630005B07E22E48E159E06BE270E08AE290E03D
:103640000E945E1220916107E22E48E159E065E098
:1036500070E086E490E00E945E1220916707E22EFF
:1036600048E159E067E170E086E490E00E945E1274
:1036700020916D07E22E48E159E069E270E086E4AE
:1036800090E00E945E12809173078A3069F582E7AC
:1036900097E00E945A1820E0882351F080910C088E
:1036A00090910D088F71992721E0409708F022E052
:1036B0004EE654E063E070E081E690E00E94791409
:1036C0002EE030E046E750E06EE070E081E790E009
:1036D0000E9444152FE330E046E750E06EE070E0D2
:1036E00086E790E00E944415809179078A3069F559
:1036F00088E797E00E945A1820E0882351F08091D3
:103700000C0890910D088F71992721E0409708F0DF
:1037100022E04EE654E065E170E081E690E00E9430
:10372000791420E230E046E750E060E270E081E7A3
:1037300090E00E9444152FE330E046E750E060E25D
:1037400070E086E790E00E94441580917F078A3000
:1037500069F58EE797E00E945A1820E0882351F01F
:1037600080910C0890910D088F71992721E0409766
:1037700008F022E04EE654E067E270E081E690E077
:103780000E94791422E330E046E750E062E370E003
:1037900081E790E00E9444152FE330E046E750E0D7
:1037A00062E370E086E790E00E94441530E020E09C
:1037B00046E750E070E060E090E080E00E94441551
:1037C00027E330E050E040E065E070E090E080E02A
:1037D0000E9444152AE330E044E050E067E070E0E6
:1037E00084E090E00E9444152FE330E046E750E08B
:1037F0006FE370E090E080E00E94441521E048E72C
:103800006FE380E00E94261520E047E654E070E078
:1038100060E090E080E00E94791420E040E654E00F
:103820006AE370E090E080E00E94791480911602D3
:10383000F0901502811196C0F110ABC020E04FE46A
:1038400054E070E060E08BE790E00E948914809182
:103850003B071AE0612F0E949730282F4BE154E07C
:1038600068E170E08BE790E00E94891480913B074B
:10387000612F0E949730292F4BE154E06DE170E0F9
:103880008BE790E00E94891480919A07882309F4BD
:1038900006C180910101843009F001C180911E02AE
:1038A00000E028E18A3109F0A4C046E564E170E057
:1038B0008FE090E00E94D01421E047E164E682E1CD
:1038C0000E94081521E046E264E682E10E940815A4
:1038D00085E1809300088093FF078BE180930108C6
:1038E00081E08093020880EA91E060960FB6F89438
:1038F000DEBF0FBECDBFDF91CF911F910F91FF9023
:10390000EF90CF900C94F219A1E0B0E0AC0FBD1F86
:10391000AE0FB11D6C9170E08BEAE89FE12D112490
:10392000E695EC0FFD2FF11D858520E041E756E07F
:1039300090E00E94791420E040E656E06CE270E0EE
:103940008BE790E00E94891486CD8091010184303C
:1039500009F081CD20E046E456E066E270E08AE7B7
:1039600090E0F0CF8130B1F580910E01893070F494
:10397000CC24C394E12C01EF13E020E045E054E0B7
:103980006FEF7FEF87E790E00E945E12FF2009F45F
:103990007BCFE0910E01EC3008F076CF20910F0143
:1039A00086E0E89FF0011124E55CF84F82818630C3
:1039B00011F08A3009F42D5FCC24C394E12C0DE47E
:1039C00013E041E653E06FEF7FEF87E790E00E945E
:1039D0005E125ACF8230D1F680910E018930B0F656
:1039E000CC24C394E12C01EF13E020E04BED53E035
:1039F000C7CF42E564E170E081E190E00E94D0141D
:103A000021E047E160E684E10E94081521E047E2F9
:103A100060E684E10E94081586E1809300088093A7
:103A2000FF078BE18093010811E01093020881EBFE
:103A300091E00E94F21980910001882349F101E090
:103A400028E046E06BE170E081E590E00E94D01450
:103A5000109202088EEB91E00E94F2198AE58093A1
:103A600000088093FF078BE180930108809100019B
:103A7000811111C001E028E046E06BE170E089E5CA
:103A800090E00E94D0141092020880EC91E02DCFBB
:103A900010930208DFCF81E080930208F6CF609692
:103AA0000FB6F894DEBF0FBECDBFDF91CF911F914F
:103AB0000F91FF90EF90CF900895682F70E090E005
:103AC00080E04AE00C94A419BF92CF92DF92EF926B
:103AD000FF920F931F93CF93DF93082FE62EF12CC5
:103AE0008BE0D82ED60E17E094E2C92EC60E2CE03D
:103AF000B22EB60E80918407F81608F0ABC0823063
:103B000009F493C080E0800F809300088093FF0742
:103B1000E092010882EC91E00E94F2198091840702
:103B2000823009F484C080E0800F80930008809385
:103B3000FF07D0920108CF2DD0E01C9FF0011D9F00
:103B4000F00D1124EB57F84F8081823008F071C0DE
:103B50000E945D1D8DEE91E00E94F2191C9FF00104
:103B60001D9FF00D1124E857F84F8081823010F42A
:103B70000E945D1D86EC91E00E94F2191C9FF001ED
:103B80001D9FF00D1124EA57F84F8081823008F014
:103B900055C00E945D1D8DEE91E00E94F2191C9FA0
:103BA000F0011D9FF00D1124E757F84F80818230FE
:103BB00010F40E945D1D86EC91E00E94F2191C9F9A
:103BC000F0011D9FF00D1124E957F84F80818230DC
:103BD000D0F50E945D1D8DEE91E00E94F2191C9FB0
:103BE000F0011D9FF00D1124E657F84F80818230BF
:103BF00010F40E945D1D86EC91E00E94F219809104
:103C00008407482F4150550BC417D5075CF4823008
:103C1000F9F080E043E1400F480F21E06C2D8B2D3F
:103C20000E942615F394075E65CF8CE06CCF8CE084
:103C30007BCF8DEE91E00E94F2198CCF8DEE91E05A
:103C40000E94F219A8CF8DEE91E00E94F219C3CF25
:103C50008CE0E0CFDF91CF911F910F91FF90EF901B
:103C6000DF90CF90BF900895CF93DF93EC01E88170
:103C700081E08E0F8883F0E0E750FD4F84910E9431
:103C80005D1D8DEE91E00E94F219E88181E08E0FBA
:103C90008883F0E0E750FD4F8491823090F40E94D9
:103CA0005D1D8DEE91E00E94F219E88181E08E0F9A
:103CB0008883F0E0E750FD4F8491DF91CF910C9421
:103CC0005D1D8DEE91E00E94F219EBCFBC01990FC2
:103CD000880B990B4AE00C94A4190C941E300E9496
:103CE000D130FF920F931F93CF93DF93EC01F62E09
:103CF00008811981C8010E941E30F81621F06F2D2D
:103D0000C8010E942630CE01DF91CF911F910F9103
:103D1000FF9008950F931F93CF93DF9300D0CDB7FB
:103D2000DEB7082F80EA91E00E946D1E182F81EA0D
:103D300091E00E946D1E011104C01C3411F48835FD
:103D4000D9F080EA91E09A8389836CE4CE010196F0
:103D50000E94711E81EA91E09A83898368E5CE0111
:103D600001960E94711E82EA91E09A83898360E045
:103D7000CE0101960E94711E0F900F90DF91CF919E
:103D80001F910F9108951F920F920FB60F92112459
:103D90008F939F938091E1009091E100937F9093A6
:103DA000E10083FF0FC01092E90091E09093EB00D7
:103DB0001092EC0092E39093ED001092360298E09E
:103DC0009093F00082FF22C093E09093E9009091DD
:103DD000F200992319F09AE39093E800909127025A
:103DE000992341F0909127029150909327029111CD
:103DF00001C05D9A90913502992341F0909135026E
:103E0000915090933502911101C0289A84FF18C0F7
:103E10008091E2008E7E81608093E2008091E100DB
:103E20008F7E8093E100809128028E7E8061809356
:103E300028029F918F910F900FBE0F901F901895A1
:103E400080FFF7CF8091E2008E7E80618093E20058
:103E50008091E1008E7E8093E100809128028E7E29
:103E60008160E5CF1F920F920FB60F921124CF926F
:103E7000DF92EF92FF920F931F932F933F934F93F5
:103E80005F936F937F938F939F93AF93BF93EF93C2
:103E9000FF93CF93DF93CDB7DEB76C97DEBFCDBF77
:103EA0001092E9008091E80083FF25C068E0CE0110
:103EB00045960E94821082EF8093E8008D8987FFEB
:103EC00039C09091E80090FFFCCF982F907609F0D0
:103ED00034C19E894F89588D2F89F88C911131C03A
:103EE000803861F5809126028093F1001092F100F4
:103EF0008EEF8093E8006C960FB6F894DEBF0FBE8D
:103F0000CDBFDF91CF91FF91EF91BF91AF919F9185
:103F10008F917F916F915F914F913F912F911F9161
:103F20000F91FF90EF90DF90CF900F900FBE0F900A
:103F30001F9018959EEF9093E800C7CF1092F10064
:103F4000D5CF913059F48111D3CF4130510581F64D
:103F5000809126028D7F80932602CACF933049F448
:103F60008111C6CF4130510519F680912602826039
:103F7000F2CF953041F48091E80080FFFCCF2068BB
:103F80002093E300B5CF963009F0A9C00B8D1C8DAE
:103F900022E01092E9001092240210922302F21201
:103FA0002EC010922202109221020E9451101F82F4
:103FB00099E09983FA8291E09E8390EA98879AEF3C
:103FC00099872091230230912402275F3F4F3C8341
:103FD0002B838D831092E900109224021092230209
:103FE000109322020093210249E050E0BE016F5F6E
:103FF0007F4F80E00E942B100E94511079CF1093C8
:104000002202009321020E94350FDC0112960D91CD
:104010001C910115110509F451C1D801ED91FC91D4
:104020000480F581E02DBE016B5E7F4FC8010995CC
:10403000009709F03EC1F80100851185EACFF3E051
:10404000FF120EC08F89882309F440C0823061F4CA
:1040500040E860E184EC94E10E94F80F811148CFC0
:1040600081E28093EB0047CF813029F440E86BE098
:1040700088EB94E1F1CF833099F70E94350FDC0192
:104080001296ED90FC908E010F5F1F4F6801E114B6
:10409000F10479F0D701ED91FC910680F781E02DD4
:1040A000B801C7010995080F111DF701E084F184DB
:1040B000EECFD8011C92F60101900020E9F731976C
:1040C000BF016C197D0940E0C601C6CF62EA74E108
:1040D000FB01449150E080E80E942B1009CF9730FB
:1040E00009F4BECF983021F481E08093F10000CF35
:1040F000993009F0FDCE837009F0B2CFE8E6F1E027
:1041000081E031E096E32191222371F08093E90070
:104110003093EB00DF0111972C912093EC009093EA
:10412000ED008F5F873079F78EE78093EA00109279
:10413000EA008F8980933602DBCE8B8D9C8D1092A6
:10414000E90010922402109223029093220280939D
:104150002102898D811192C08E899D89913A49F4FD
:10416000813209F07DCF47E050E066E071E080E009
:10417000B3CF913209F074CF833269F48F89988D6F
:10418000B0E0A0E08093020190930301A0930401AA
:10419000B0930501ADCE803269F48091E80082FFD2
:1041A000FCCF67E086E091E00E9482108BEF809365
:1041B000E8009ECE823209F09BCE8F8980930D015C
:1041C000EEEFFFE7859194918B3F9C4D51F1E0E03C
:1041D000F8E08091060190910701A0910801B0914B
:1041E0000901803B9440A105B105F1F480910D01D6
:1041F00080FD1AC0EE3F8AE0F80789F587E797E768
:1042000091838083809160008093250288E19BE008
:104210000FB6F894A895809360000FBE909360004D
:1042200067CEEEEFFAE0D5CF80819181873797474F
:1042300009F05ECEA895809160008861809360004F
:104240008091250280936000EE3F2AE0F20789F01A
:104250008091FE0A9091FF0A9183808349CE8081EC
:1042600091818737980751F29093FF0A8093FE0A55
:10427000C5CF1092FF0A1092FE0A3ACE0E94350F67
:10428000DC0112960D911C910115110509F4E8CE7F
:10429000D801ED91FC910190F081E02DBE016B5EA3
:1042A0007F4FC8010995811123CEF8010085118542
:1042B000EBCF181619060CF41BCED2CEF1E0FF128C
:1042C000BECE66EA74E104CF1F920F920FB60F9232
:1042D00011242F933F938F939F93AF93BF9380911C
:1042E000FF0190910002A0910102B0910202309171
:1042F000F90123E0230F2D3758F50196A11DB11DBB
:104300002093F9018093FF0190930002A093010292
:10431000B09302028091FA019091FB01A091FC01FF
:10432000B091FD010196A11DB11D8093FA019093FA
:10433000FB01A093FC01B093FD01BF91AF919F9150
:104340008F913F912F910F900FBE0F901F90189556
:1043500026E8230F0296A11DB11DD2CF1F920F9206
:104360000FB60F9211242F933F934F935F936F9348
:104370007F938F939F93AF93BF93EF93FF9380911E
:10438000F5019091F601A091F701B091F801892B08
:104390008A2B8B2B09F440C08091F40181110BC052
:1043A00088B190E4892788B98091F301882319F0B6
:1043B00088B1805888B98091F5019091F601A0915B
:1043C000F701B091F801181619061A061B069CF49D
:1043D0008091F5019091F601A091F701B091F8015B
:1043E0000197A109B1098093F5019093F601A0937B
:1043F000F701B093F801FF91EF91BF91AF919F91B9
:104400008F917F916F915F914F913F912F910F907D
:104410000FBE0F901F9018950E94B911ECCF0F930B
:104420001F93CF93DF938C0181E090E00E946D1E7B
:1044300080FF32C08AE090E00E946D1E9FEF980FCF
:104440009E3F50F522E330E0D80150963C932E93E6
:104450001F9728E330E052963C932E935197CBE080
:10446000D0E0D801ED91FC910190F081E02D682F12
:10447000C8010995CE010E946D1E2196C131D1055A
:1044800081F780E00E94EB0E88EE93E0DF91CF9100
:104490001F910F910C949914DF91CF911F910F915F
:1044A000089504970C940F22EBE9F7E0138212822F
:1044B00088EE93E0A0E0B0E084839583A683B78381
:1044C00082E791E0918380838FEF9FEF95878487C8
:1044D000E5E0F8E0138212821186128680E183877C
:1044E000108617821586108A1786128A118A81E033
:1044F000838B148A858B168A20E931E031832083EF
:104500002EE931E035832483178A90E8908F9CE070
:10451000918F26E13DE03093FA072093F90720E0E0
:1045200030E83093F8072093F70746983E9A47986B
:104530003F9AEBEFF7E01382128224E831E03183F7
:10454000208399E091878087158216821482878361
:104550000895CF93DF9300D0CDB7DEB7789484B5BC
:10456000826084BD84B5816084BD85B5826085BD6F
:1045700085B5816085BD80916E00816080936E00FD
:1045800010928100809181008260809381008091EF
:1045900081008160809381008091800081608093A0
:1045A00080008091910082608093910080919100C1
:1045B0008160809391008091900081608093900051
:1045C0008091C10084608093C1008091C1008260AD
:1045D0008093C1008091C10081608093C10080916F
:1045E000C30081608093C3008091C000826080938B
:1045F000C0008091C20081608093C20080917A00E7
:10460000846080937A0080917A00826080937A003F
:1046100080917A00816080937A0080917A0080682E
:1046200080937A001092360210922602109228028D
:104630008091D70081608093D70080EA8093D80072
:1046400089B5806189BD89B5826089BD09B400FEE4
:10465000FDCF61E070E080E090E00E94E110809189
:10466000D8008F7C80618093D8008091E000807FAB
:104670008093E0008091E1008E7E8093E1008DE0E8
:104680008093E200559A209A81EC80937C0085B15A
:10469000806F85B984B1877E84B984B1876E84B90F
:1046A0005E9A5F988AB1806D8AB9769A6E9881B366
:1046B000806F81BB899880B38D7080BB80E58CBD95
:1046C00081E08DBD85E090E00E9499145F9A85E0BD
:1046D00090E00E9499145E985C98E9ECF8E084916F
:1046E0008EBD00000DB407FEFDCF319608E0E63D1B
:1046F000F007A9F75C9A81E88093640080916500D7
:104700008160809365000E949E1402E010E087FFA4
:1047100015C05C9885EA8EBD00000DB407FEFDCF84
:104720005C9A2E982F982D988091640080628093D7
:10473000640081E083BF889513BEFCCF0E949E1465
:1047400082FF3EC02D980E949E1484788438B9F46C
:104750002D9A88EC90E00E9499142F981A8309836F
:104760006FEFCE0101960E94711E84EF91E00E94CE
:1047700099142F9A0E949E1484788438D9F30E9449
:104780009E1484718431B9F42D9A88EC90E00E94D3
:1047900099142E981A83098360E0CE0101960E9435
:1047A000711E84EF91E00E9499142E9A0E949E142B
:1047B00084718431D9F388EC90E00E949914BECFC3
:1047C0002D9A80E180931008809164008E7F809301
:1047D000640080917A00806480937A0080917A00EE
:1047E00086FDFCCF00917800109179000E94BC10EA
:1047F000AB01BC01C801B0E0A0E0DC01992788272B
:104800008C019D01040F151F261F371FC901B80118
:104810002091640021602093640061157105810579
:10482000910511F00E94153011E010931B0889E0EA
:1048300080931E0882E090E00E946D1E8823C9F1DB
:104840003E9A3F9A1093FE0180E00E948A1E82EAFF
:1048500091E00E941E3080931E02E0E42E2E312C47
:10486000F2EA4F2E55245394AEE7AA2EA3E1BA2EB6
:1048700077E0F72E8FB7F8944091FF015091000236
:1048800060910102709102028FBF80911108142F74
:10489000181B812FD0901208DD2081F0109313088F
:1048A0001092120880E090E0892B21F30E94000012
:1048B000DFCF1092FE013E983F98C6CF909110082E
:1048C000191740F48F5F891768F781E083BF8895D7
:1048D00013BEE8CF81E080931208409311088091C5
:1048E0000C0890910D08019690930D0880930C0888
:1048F00080910E0880930F080E949E1480930E08EA
:10490000E0910101E830A8F4F0E0E757FB4D0C948A
:10491000CB309D24B424B625C5254126072B9124F0
:10492000942427E0209301010E94C31780E00E9495
:10493000EB0E81E00E94EB0EB5CF8BE4809320025A
:1049400091E090930101809171008D7F80937100BF
:1049500090931D02B0921C02A0921B02B0921A0208
:10496000A09219020E94B91120E04CE75FE070E0CC
:1049700060E090E080E00E94891480910C0880FD46
:1049800007C080912002882319F081508093200273
:1049900010912002103298F4812F0E9407181111F3
:1049A0000EC0CC24C394E12C02EA1AE020E04EE0D1
:1049B0005DE06EE070E083E090E00E945E120E9495
:1049C0009E141091180287FF27C00E949E1484FF36
:1049D00023C01F5F10931802153120F01D3330F1F2
:1049E0001D3369F10E949E141091170285FD34C099
:1049F0000E949E1486FD30C01123E1F180E20E94E6
:104A0000BB0E811106C080E40E94BB0E882309F40E
:104A100077C01092170274C0112321F340E060E0C8
:104A200080E00E94A61410921802DCCFC101811B05
:104A3000910940E060E0880F0E94A614D3CF109245
:104A4000180240E060E080E00E94A61481E00E942D
:104A50008A1E10921E026DCF1F5F109317021C3822
:104A600000F5163608F04CC0153650F51135E8F44F
:104A7000103541F188E00E94B00E882329F0109291
:104A80001F0282E08093010184E00E94B00E88231F
:104A900009F44FCF81E080931F0282E080930101EF
:104AA00048CF113A40F41D3868F040E260E080E001
:104AB0000E94A61425C0113AE9F685E680931702F4
:104AC00040E0F4CF0E949E1485FF07C080911E0233
:104AD000882319F0815080931E020E949E1486FF45
:104AE00007C080911E028A3118F48F5F80931E02E6
:104AF00060911E025A824982CE0101960E94711E67
:104B000001E028E04EE170E060E083E690E00E9482
:104B1000D0141092020885E6809300088093FF0766
:104B2000109201088DE99AE00E94A41785E780930E
:104B300000088093FF071092010880911E0290E008
:104B400001960AE010E0B8010E94B730CB010E9444
:104B5000661E80911E0290E00196B8010E94B73057
:104B60000E94661E81E08093020884CF0E94AD11EE
:104B700080911F02882329F08BE10E94211984E093
:104B80008DCF80911E020E94211920E04CE75FE04A
:104B900070E060E090E080E00E94891480E00E9474
:104BA000071800E020E441E570E060E087E190E074
:104BB0000E94D01401E02AE04DE470E060E089E159
:104BC00090E00E94D0148CE1809300088093FF074E
:104BD00011E0109301081092020888EC91E00E9405
:104BE000F21980913B070AE0602F0E94973090E015
:104BF0000E94661E80913B07602F0E949730892F8C
:104C000090E00E94661E1093020821E049E160E4F2
:104C100080E00E94261521E045E660E480E00E94E5
:104C2000261521E04FE365E689E10E9408156DE055
:104C300080E20E94641D80912002882319F0815037
:104C40008093200280912002811115C089E3809316
:104C500000088093FF0785E3809301088FEC91E0C3
:104C60000E94F21920E043E95AE065E370E087E52D
:104C700090E00E94791488E00E94B00E81117FCFED
:104C800058CE80919A07882309F447C08FEF80930C
:104C90000F01809310018093110180E20E94B00EF9
:104CA000882339F080910001811103C081E0809355
:104CB000000180E40E94B00E882329F08091000159
:104CC00081111092000110911E021A3119F188E031
:104CD0000E94B00E882399F080910001882379F01A
:104CE00061E0610F60931E025A824982CE010196F3
:104CF0000E94711E10929A0782E08093010188E061
:104D00000E94B00E882331F080910001811102C011
:104D100010929A070E94FF190CCE10921602109260
:104D2000150280910E018C3049F488E00E94B00E8B
:104D3000882321F085E080930101ECCF0E949E142E
:104D400082FF1DC00E949E1483FD97C088E00E94D0
:104D5000BB0E882309F4C7C3809110018F3F31F047
:104D600090910E019F3F11F089134CC388E092E0AF
:104D70000E9416198CE397E00E949318CBCF84E031
:104D80000E94BB0E8111DECF0E949E1483FDDACFFC
:104D900088E00E94BB0E8111D5CF10910E011C300E
:104DA000A0F580E80E94B00E8823A1F0812F63E077
:104DB0000E949730992371F0115010930E018FEFDC
:104DC00080930F01809310018093110188E092E09D
:104DD0000E94161980E10E94B00E8823B1F0209144
:104DE0000E01822F63E00E949730923071F02F5FA6
:104DF00020930E018FEF80930F0180931001809319
:104E0000110188E092E00E94161980E20E94B00E23
:104E10008823A1F080910E01833080F08C3039F12D
:104E2000835080930E018FEF80930F0180931001C8
:104E30008093110188E092E00E94161980E40E949C
:104E4000B00E882309F466CF80910E01893098F462
:104E50008D5F80930E018FEF80930F01809310017F
:104E60008093110188E092E00E94161953CF39E037
:104E700030930E01D8CF8CE0ECCFE0910E0166E0CC
:104E8000E69FF0011124E55CF84F1281173009F418
:104E900041CF88E00E94B00E8823C9F080910F01B5
:104EA00090E0019663E070E00E94B73080930F01BC
:104EB000163009F09FC0813019F482E080930F0111
:104EC0008FEF8093100188E092E00E94161981E034
:104ED0008093150290910E01993008F091C0809155
:104EE0000F01933008F40AC1823008F4E2C1823025
:104EF00009F010CF80E80E94B00E882319F080E0FE
:104F00000E946F0D80E10E94B00E882319F080E0AE
:104F10000E94190D80E40E94B00E882319F089E0E8
:104F20000E94C00D80E20E94B00E882319F089E033
:104F30000E94390E009110010F3F09F493CF8BEAC4
:104F4000089FD12C1124D69410910E01189FE12CAA
:104F50001124E6948CE1E89EC02C11248EE18C0D86
:104F600080930D02812F0E9424189E2D990F9E0D73
:104F7000191B52E1952E199D800D1124845F809399
:104F80000E029D2D9E1991503EE0939F100D11240D
:104F9000110F60E2C60EC10EC0920F028093100284
:104FA000C0921102802F0E942418382F802F63E0B6
:104FB0000E949730999D802D1124885F76E0079F8D
:104FC000F0011124E55CF84F928124E0963009F05D
:104FD00020E0830F90911101911198E0820F890FC9
:104FE000809312029CE1D99E902D1124935F90939F
:104FF000130207C11A3009F063CF10920F0160CF7E
:105000009C3008F087CE80E80E94B00E882319F00B
:1050100080E00E946F0D80E10E94B00E882319F09D
:1050200080E00E94190D80E40E94B00E882319F0E0
:1050300086E00E94C00D80E20E94B00E882319F025
:1050400086E00E94390E88E092E00E941619D09006
:1050500010018FEFD81609F45DCE10910E010BEA06
:10506000109F012D112406958CE1089FE02C11243E
:105070008DE08E0D80930D02812F0E942418902FB9
:10508000990F900F191B92E1199F902D1124985F91
:1050900020910F01211128E01BEAD19E112D11242E
:1050A0001695890F820F80930E02912F990F910F01
:1050B000CD2CC91A011B9C2DE2E70E9F900D1124E7
:1050C000990FF1E2EF0EE90EE0920F0280931002C9
:1050D000E09211028D2D0E94241802E1C09E800DE5
:1050E0001124845F809312029CE1199F102D1124DA
:1050F00022E02D1508F080C190E07FC1823008F4D5
:1051000083C0823009F006CE80E80E94B00E88236A
:1051100019F080E00E946F0D80E10E94B00E88239C
:1051200019F080E00E94190D80E40E94B00E8823DF
:1051300019F089E00E94C00D80E20E94B00E882321
:1051400019F089E00E94390ED09010017FEFD71638
:1051500009F488CEE0900E018EE180930D028E2D31
:105160000E94241862E1C62EEC9C800D1124845FFD
:1051700080930E029BEAD99E012D11240695E99E8B
:10518000912D11249695091B002E000C110B015036
:105190001109292F220F920FE91A9E2DEEE00E9F82
:1051A000900D1124990F905E90930F02809310023E
:1051B000909311028D2D0E942418282F8D2D63E0CD
:1051C0000E9497309C9D802D1124885F36E0D39EED
:1051D000F0011124E55CF84F928134E0963009F03B
:1051E00030E0820F90911101911198E0830F890FA7
:1051F000809312029CE1909F002D1124075D009383
:1052000013028093140286CD80E20E94B00E8823A0
:1052100049F0809110018A3F91F18F3F19F48AEF94
:105220008093100180E40E94B00E882349F08091A1
:1052300010018A3F31F18B3F19F48AEF80931001FE
:1052400088E092E00E941619809110018B3FD9F4FA
:105250008CE080930D0280910E0192E1899F802D58
:10526000112490910F01911196E0875F890F80932F
:105270000E0291E090930F02809310024BCD8BEFC2
:10528000CFCF8FEFDBCF8A3F09F044CD8CE0809306
:105290000D0280910E0192E1899F802D1124909141
:1052A0000F01911196E0875F890F80930E0294E0C1
:1052B000E1CF80E80E94B00E882319F080E20E94BE
:1052C0006F0D80E10E94B00E882319F080E10E94EA
:1052D000190D80E40E94B00E882319F086E00E9428
:1052E000C00D80E20E94B00E882319F086E00E9473
:1052F000390E88E092E00E941619C0900E018BEAE8
:10530000C89EE12C1124E6948CE1E89ED02C112457
:105310001DE01D0D10930D0266E0C69EF0011124E4
:10532000E55CF84F82810CE0863009F008E08C2DB6
:105330000E9424189BEAC99E912D11249695292F2D
:10534000220F920FC91A9C2D800F72E1C79E800D0B
:10535000112400910F01011108E0800F80930E02CB
:10536000009110010B3F91F00F3F09F4D3CC0A3F9D
:10537000C1F4990F191B125010930F028093100261
:10538000109311028EE380931202C4CC990F191B63
:10539000125010930F02809310021093110282E0BA
:1053A000F2CF1BEA019F112D11241695912F990F11
:1053B000910FC02EC91AE11A9C2DE2E7EE9E900DC6
:1053C0001124990FF1E2DF0ED90ED0920F028093D3
:1053D0001002D0921102802F0E94241822E1C29E56
:1053E000800D1124845F809312029CE1199F102D7F
:1053F0001124033008F080CE94E0165E190F10934C
:105400001302FFCE20910F0140911101E7E3F6E076
:10541000DF0156E0580F11963C9111975230A0F4DD
:10542000831320C012963C91129793131BC01396BE
:105430003C911397321316C014963C911497332362
:1054400089F014961C9292CC9817D8F493130AC042
:1054500012963C911297831305C013963C911397B3
:10546000341751F31D966BE377E06A177B0799F6C3
:105470003481311133C0523088F481839283238385
:1054800012C08313EFCF12963C9112979313EACF79
:1054900013963C9113972313E5CFCECF981768F757
:1054A00091838283438381E0848380910D0285838D
:1054B00080910E02868380910F0287838091100273
:1054C000808780911102818780911202828780916A
:1054D0001302838780911402848748CC3D96EA1793
:1054E000FB0731F643CC0E949E1482FF5AC084E031
:1054F0000E94B00EE0900E01882349F076E0E79E0E
:10550000F0011124E55CF84F8281809307028BEA59
:10551000E89E812D11248695833028F0833009F090
:10552000F9CB82E03BC0CE2CD12C46E0942E9C9C43
:1055300080019D9C100D1124055C184FF801848199
:10554000882379F380E80E94B00E882369F0E99CF3
:10555000C0011124835C984F0E944618F801828391
:105560008CE397E00E94931880E10E94B00E88239C
:10557000A1F016E0E19EC0011124835C984F0E94C7
:1055800032181C9DF0011D9DF00D1124E55CF84FB3
:1055900082838CE397E00E94931881E08093160247
:1055A000B9CB84E00E94BB0E882309F4B3CB909161
:1055B0000E019C3009F4AECB9F3F09F4ABCB209198
:1055C0000702273009F4A6CB06E0909FF0011124D2
:1055D000E55CF84F8281281709F49CCB263038F41B
:1055E000863038F48650823008F094CB02C0863082
:1055F000C8F7E7E3F6E08181981711F08281811105
:1056000014823D9617E0EB33F107A9F783CB809125
:105610001F02811138C0ABE3B7E040E012969C91C5
:105620001297973051F12DEF280F263008F441E002
:10563000963009F41FC121E09A3009F41CC120E022
:1056400090E0E7E3F6E050E03481332359F06181E4
:10565000861301C0232F6281861304C06381611108
:1056600044C4532F3D9637E0EB33F30769F75523D6
:1056700051F0992341F0222331F08F5F16968C3040
:1056800069F64111FAC080910602813011F410923E
:1056900006020E94FF1900E027E348E270E060E0A4
:1056A00090E080E00E94D01425E346E261E070E0E3
:1056B00081E090E00E94C81521E049E264E285E0C3
:1056C0000E94081581E08093020818E010930008FA
:1056D0001093FF0784E0809301088FE79AE00E940F
:1056E000A417109300081093FF078BE28093010822
:1056F0008AE79AE00E94A41710920208E09006023E
:10570000EE2DF0E0EE59FE4F6081109300081093EB
:10571000FF076093010870E001E028E040E284E0C8
:1057200090E00E94D014D11009C020E042E75AE076
:105730006DE070E08EE190E00E94891462E0E61670
:1057400009F4B4C06E1508F49BC0EE2009F4A9C09A
:1057500071E088E69AE0E71609F4A5C081E080933D
:10576000020880910502823009F4D3C1833009F424
:1057700009C2813009F0FCC080910402843618F41B
:105780008F5F8093040240E060E080E00E94A614F6
:10579000109104028FEF810F8F3068F4809184079D
:1057A000882349F080918B078111A2C060E080E2DC
:1057B00040E00E94A6148FED810F8F3068F4809135
:1057C0008407823048F080919207811194C060E094
:1057D00080E240E00E94A61411541F3068F48091CA
:1057E0008407833048F080919907811187C060E079
:1057F00080E240E00E94A61400E029E34EE468E065
:1058000070E084E290E00E94D01427E34CE469E069
:1058100070E085E290E00E94C81521E043E16EE669
:1058200088E20E9408158AE2809300088093FF07AF
:105830008AE08093010885ED91E00E94F21908E169
:1058400010E09BE2E92E50918407151708F459C027
:105850002BE337E040E081E0541709F482C0F901FE
:10586000E05BFF4F90819111982F4F5F295F3F4F71
:10587000892FF2CF20E091E0E4CEDD24D39409CF4C
:1058800083E0E81631F194E0E91268CF88E0809374
:1058900000088093FF078BE28093010884E59AE07B
:1058A00002C08DE69AE00E94A41758CF83E69AE0E2
:1058B0000E94A4173BEFC32EE12C10E000E020E093
:1058C0004EE55AE068E170E08FE190E00E945E12E0
:1058D00045CF89E59AE00E94A4172BEFC22EE12C58
:1058E00010E000E020E04EE55AE061E270E0ECCF2D
:1058F00060E280E05DCF60E280E06BCF60E280E05C
:1059000078CFE0920008E092FF070093010883EE51
:1059100091E00E94F219812E912CC40101960E94FF
:10592000661E89EE91E00E94F219EDE01E9FB00123
:105930001124695E7F4FF89CF001F99CF00D112451
:10594000E557F84F808120E04EE35AE0811102C014
:1059500048E25AE080E690E00E9479141F5F035FFE
:1059600072CF882329F081E080939A0710920E016C
:1059700080E80E94B00E882379F080910602882387
:1059800059F090910502911107C0823009F0D9C1F8
:10599000D110D7C11092060280E80E94B00E882371
:1059A00071F080910502833051F483E092E00E940F
:1059B000461880910302873011F41092030280E1AF
:1059C0000E94B00E882379F080910602843058F44A
:1059D00090910502911107C08111B7C1D110B5C1D5
:1059E00082E08093060280E10E94B00E882379F065
:1059F00080910502833059F483E092E00E943218CE
:105A000080910302873019F486E08093030280E4DA
:105A10000E94B00E882351F080910602823031F44A
:105A200090910502911102C08093050280E40E94CA
:105A3000B00E882351F080910602833031F49091AA
:105A40000502911102C08093050280E20E94B00E0F
:105A5000882359F080910502882339F010920502BD
:105A600040E060E080E00E94A61484E00E94B00E56
:105A7000882371F08091050281110AC08FEF809315
:105A80000F01809310018093110184E08093010144
:105A900084E00E94B00E882359F08091050288238B
:105AA00039F01092050240E060E080E00E94A61408
:105AB00088E00E94B00EE82E882311F40C949924FB
:105AC00080910602823009F40CC208F040C188239C
:105AD00009F44CC1813011F00C9499241092040205
