:100000000C945C0C0C94840C0C94840C0C94840C58
:100010000C94840C0C94840C0C94840C0C94840C20
:100020000C94840C0C94840C0C949B190C940D1A55
:100030000C94840C0C94840C0C94840C0C94840C00
:100040000C94840C0C94840C0C94840C0C94840CF0
:100050000C94840C0C94840C0C94840C0C94E61C6E
:100060000C94840C0C94840C0C94840C0C94840CD0
:100070000C94840C0C94840C0C94840C0C94840CC0
:100080000C94E81D0C94840C0C94840C0C94840C3B
:100090000C94840C0C94840C0C94840C0C94840CA0
:1000A0000C94840C0C94840C0C94840C4E4F5400CF
:1000B000584E4F5200584F52004E4F52004F520070
:1000C0004E414E4400414E44000808080707070708
:1000D00007070A0A0A030101001000101010110896
:1000E00008070303070707070A07070300022200A0
:1000F00012221112220808070101070707070A0741
:100100000703000222011222111222080808070721
:10011000070707070A0A0A0311111000010111114C
:10012000010808070107070707070A0A0703010173
:1001300022110122101122080807040707070707E8
:100140000A0A0703101022000122011022080708E2
:100150000707070707070A0A0703112012002102F1
:100160001120020808070107070707070A0A070303
:1001700001012211012210102208080703070707B6
:1001800007070A0A070310102201002201112208A2
:1001900008070706070707070A0A070310100000E9
:1001A00001221101220808070701070707070A0AA9
:1001B000070311102200012210002208080706067A
:1001C000070707070A07070310122201022210027D
:1001D000220808070607070607070A0707030102A0
:1001E0002200122210122208070807070707070734
:1001F0000A0A070311102200012211002208080830
:100200000707070707070A07070311121200020270
:100210000012020807070007030707070A0A070278
:100220001120220021220807070707070707070AEE
:100230000A070211202200212208070701070707E9
:1002400007070A07070201222210222208080707CF
:1002500007070707070A07070301022200122211F6
:1002600012220808070707070707070A07070301FD
:1002700002220012221012220808070707070707A8
:10028000070A07070300022201122210122208089F
:10029000070707070707070A0707030002220012DC
:1002A000221112220808070707070707070A07078E
:1002B0000301022201122210122208080707070771
:1002C0000707070A07070300022201122211122260
:1002D0000807070707070707070A0707020122227F
:1002E000102222D5F08D14A1C881CFD9F1AF200002
:1002F00031007D00000032002100900100800B02DF
:100300007D00000032009302F40100003200008002
:100310004F004100412020204F00410A420041206F
:1003200042204F00C500C000BD00B900B500B000BC
:10033000AC00101008FF01010101010101020204DB
:1003400018E08080087F404040404040402020101E
:100350000C03000008FF0101010101010102020478
:1003600018E040C0087F40404040404040202010FE
:100370000C030101080B0DF1010101010101020251
:1003800004186080086858474040404040402020A2
:10039000100C0300080B0DF1010101010102020420
:1003A00018E040C0086858474040404040202010B6
:1003B0000C030101080B0CF0030DF1010101020215
:1003C00004186080086818076058474040402020A3
:1003D000100C0300080B0CF0030DF10101020204E4
:1003E00018E040C0086818076058474040202010B7
:1003F0000C030101808080FF0204081020C040C06F
:10040000808080800000007F20100804020101012C
:1004100000000000000000000000000000000000DC
:1004200000000000000000000000000000000000CC
:10043000000000000508DF9F1F9FDF0508FBF9F89B
:10044000F9FB0A0AFC0201894141890102FC000111
:1004500002020202020201000A0AFC020149818131
:10046000490102FC00010202020202020100517570
:1004700069740048656C700003051F0E04496E66C0
:100480006F0054657374004261636B000607545635
:100490005555565451756974004261636B0A546531
:1004A00073740A496E666F0A48656C700008083CF0
:1004B0007E83EDED837E3C4C766C200000FEFEFEDC
:1004C000FEFEFEFEFEFE0000000000000000000038
:1004D00000000080C0E0F0F8F8FCFCFEFEFEFEFE2E
:1004E000FEFEFEFEFEFEFCFCF8F8F0E0C080000020
:1004F0000000000000C0E0F0F0F8FCFCFCFEFEFE96
:10050000FEFEFEFEFEFEFCFCFCF8F0E0C0800000FB
:10051000FEFEFCF8F2E6CE9E3E7EFEFEFEFEFEFEF7
:10052000FEE0C080000000000080C0E0FEFEFEFE95
:10053000FEFEFE7E3E1E000000FFFFFFFFFFFFFFEE
:10054000FFFF00000000000000000000F0FCFFFFC3
:10055000FFFFFFFFFF7F1F0F0707030303030307CF
:10056000070F1F7FFFFFFFFFFFFFFFFCF0C0FCFE38
:10057000FFFFFFFFFFFFFF1F0F070703E3E3E3E3B7
:10058000E7E7E7EFEFEFE7E3E1E0E060FFFFFFFF22
:10059000FFFFFFFFFF000003071F3F7FFFFFFFFF7D
:1005A000FFFCF8FCFFFFFFFFFF7F1F0F07030000AA
:1005B0000000000000FFFFFFFFFFFF7F3F1F000064
:1005C00000000000000000007FFFFFFFFFFFFFFFB3
:1005D000FFF0C08000000000000000000080C0F0BC
:1005E000FFFFFFFFFFFFFFFF7F1FFFFFFFFFFFFF7B
:1005F000FFFFF880000000003F3F3F3F3F3F3FBF0D
:10060000BFFFFF9F0F070100FFFFFFFFFFFFFFFF7F
:10061000FF0000000080E0F0F8FFFFFFFFFFFFFF9A
:10062000FFFFFFFFF8F0E080000000000000000086
:10063000001F0F87C3E1F0F8FCFEFEFEFEFEFEFE8B
:10064000FEFEFEFEFEFFFFFF1F3F7FFFFFFFFFFFDF
:10065000FFFFFEFEFEFEFEFFFFFFFFFFFFFF7F3FEF
:100660001F0F0701000001030F1F3F7FFFFFFFFF68
:10067000FFFFFEFEFEFEFEFEFEFFFFFFFFFF7F7F91
:100680001F0E0000FFFFFFFFFF7FBFDFEFF0FCFE4C
:10069000FFFFFFFFFF3F1F0F07010001070F1F3F75
:1006A000FFFFFFFFFFFEFCF0E0C08000000203033D
:1006B000030303030303030303030303030303030A
:1006C000030303030000000000010103030303030D
:1006D0000303030303030101000000000000000006
:1006E00000000000000000000000010103030303FC
:1006F00003030303030303010100000000000000E3
:1007000003030301000003030303030303030303C1
:1007100003000000000000000000000003030303CA
:1007200003030303030303007C24000000F8F8F82C
:10073000F8F80000000000000000000000000000C9
:100740000000000080C0E0E0F0F0F0F8F8F8F8F801
:10075000F8F8F0F0F0E0E0C08000000000000000D9
:10076000000000000080C0C0E0F0F0F0F8F8F8F8F9
:10077000F8F8F8F0F0F0E0E0C080000000000000C1
:10078000F8E0C080000008183878F8F8F8E0C08079
:1007900000000000000000000080C0E0F8F8F878D9
:1007A000381800000000000000FFFFFFFFFF0000FE
:1007B000000000000000000000000000E0F8FEFF64
:1007C000FF3F0F07030101000000000000000101CE
:1007D00003070F3FFFFFFEF8E00000000080F8FC79
:1007E000FEFF7F0F07030101000000008080808171
:1007F000818387838180800000000000FFFFFFFF6E
:10080000FF00000000000003070F3F7FFFFCF860BF
:100810000070F8FCFF7F3F0F07030000000000009E
:100820000000000000FFFF7F3F1F000000000000ED
:1008300000000000000000003FFFFFFFFFE080001D
:10084000000000000000000000000000000080E048
:10085000FFFFFFFF3F000000000FFFFFFFFFF080E2
:1008600000000000000000000F0F0F0F0F0F0F0F10
:100870000703000000000000FFFFFFFFFF00000073
:10088000000000000080E0F0F8FDF8700070F8FD56
:10089000F8F0E08000000000000000000000000010
:1008A000000180C0E0F0F8F8F8F8F8F8F8F8F8F887
:1008B000F8F8F8F8000003070F1F3F3F7E7CFCF8B4
:1008C000F8F8F8F8F8F8FC7C7E3F3F1F0F070300AC
:1008D0000000000000000001070F1F3F3F7E7CFC6E
:1008E000F8F8F8F8F8F8F8F87C7E3E3F1F0E0400A0
:1008F00000000000FF7F3F1F070080C0E0F0FCFE0B
:10090000FF3F1F0F0701000000000001070F1F3FFE
:10091000FFFEFCF0E0C080000000000000000000CE
:1009200000000000000000000000000000000000C7
:1009300000000000000000000000000000000000B7
:1009400000000000000000000000000000000000A7
:100950000000000000000000000000000000000097
:100960000000000000000000000000000000000087
:100970000000000000000000000000000000000077
:100980000000000000000000000000000000000067
:100990000000000000008040919191919396949600
:1009A0009390909090909090909090909090909044
:1009B0009090909E8282F212121212129292929251
:1009C0001212129292F28202020282828282020247
:1009D000028282FE80000000808080800000008013
:1009E0008080800000008080808000FF000080F018
:1009F000888402010080F0888402010080F09888D9
:100A000004020282828282020202020202020202C4
:100A1000020202020202020291919191919191913E
:100A20009191919191919191919191919111111136
:100A3000111111111111111010101010FFFFFFFFF3
:100A4000000000FFFFFFFF000000FFFFFFFF0000AE
:100A500000FFFFFFFF000000FFFFFFFF000000FF9F
:100A6000FFFFFF000000FFFFFFFF00FF0000FFFF90
:100A7000FFFF000000FFFFFFFF000000FFFFFFFF80
:100A8000000000FFFFFFFF101010101010101010DA
:100A900010101010101010101D3723371D01010108
:100AA000010101010101010101010101FF0000003B
:100AB0000000000000000000000000000F0F0F0FFA
:100AC0000000000F0F0F0F0080C06F3F0F0F0000DE
:100AD000000F0F0F0F0080C06F3F1F0F0000000FAF
:100AE0000F0F0F0000000FFF0F8FC07FC0800F0F90
:100AF0000F0F0000000F0F0F0F0000000F0F0F0F60
:100B00000000000F0F0F0F000000000000000000A9
:100B100000000000000000000000000000000000D5
:100B20000000000000000000000000000F089E9E72
:100B30009E9E9E9E9E9E9E9E9E9E00000000000089
:100B40000000386C446C3E83C16030180808080807
:100B500008C8682C66C30100000000000000000007
:100B600000000000000000FF000306040603000070
:100B70000000000000000000000000000000000075
:100B80000000000000000000008F8F8F8F8F8F8F7C
:100B90008F8F8F8F04040404121212121212121279
:100BA0001212121212121212121212121212D7D79B
:100BB000D7D7D7D7D7D7D7D7D7D71010909090906F
:100BC000909090988C86C3612060C0000000000067
:100BD0000001030203010101010101010101C161E1
:100BE0002161C18181818181818181818181818135
:100BF0008181818181818181818181C1612161C105
:100C000001011D3722361C0000C7C7C7C7C7C7C7A9
:100C1000C7C7C7C702020202C0C0C0C0C0C0C0C0B0
:100C2000C0C0C0C0C0C0C0C0C0C060301808EBEBBE
:100C3000EBEBEBEBEBEBEBEBEBEB89898484848464
:100C40008484848E9B919B8F82838180808080802E
:100C50008080808080808080808080808080C16370
:100C60002263C180808080808080808080808080BE
:100C700080808080808080000000000103FE0301EE
:100C8000000000000000000000E3E3E3E3E3E3E32F
:100C9000E3E3E3E3818181818080808080808080C4
:100CA000808080808080C0602060C0000000F1F102
:100CB000F1F1F1F1F1F1F1F1F1F16030180808080A
:100CC00008080808080808080808080808080808A4
:100CD0000808080808080808080808080808090B90
:100CE0000A0B090808081C3622361C000000000008
:100CF000000000000000FF0000000000007F4040F6
:100D0000404040404040404040F1F1F1F1F1F1F10C
:100D1000F1F1F1F10000000000000000000000000F
:100D20000000100010001103121311101E027A7A35
:100D30007A7A7A7A7A7A7A7A7A7A020202020202E3
:100D400002020202020202020202C2623E68C808F5
:100D50000808080808080808080808080808080813
:100D60000808080808080808080808080808080803
:100D70001C3622361C000F08000800080000000086
:100D8000000000000000000000787878787878781B
:100D9000787878780000000029003B0029009C004A
:100DA000000007002900D800000046053100D800E7
:100DB000000007003100D8000000C7012500D8005E
:100DC000000007002500D8000000C7012900D80056
:100DD000000007002900D800000046054100D800A7
:100DE000000007004100D8000000C7013100D80012
:100DF000000007003100D8000000C7012900D8001A
:100E0000000007002900D800000046053100D80086
:100E1000000007003100D8000000C7012500D00005
:100E200025000700000007002500D8000000C900C9
:100E300000000E000000F2002900DB0000000700A7
:100E40002900DB0000005B054100DB00000007001B
:100E50004100DB000000CE013E00DB000000070087
:100E60003E00DB000000CE012900DB00000007008F
:100E70002900DB0000005B0500800000000001008D
:100E80000100000101010000010001010100010158
:100E9000010000000000010101000101010100004A
:100EA000010001000100000101000000000001013B
:100EB000010001010100000001000100010000012A
:100EC0000101000201010200020202020202FFFF10
:100ED000FFFFFFFFFFFFFFFF3F3F3F3F3F3F3F3F22
:100EE0003F3F0A0E00FEC2C202C2DE1EFE00001F0D
:100EF000101616101E1E1F0000FEC2DA1AC2DE1ED9
:100F0000FE00001F101010101E1E1F0000FEC2DA8F
:100F10001A021E1EFE00001F101616101E1E1F00B5
:100F200000FE0E0E0E8EBE3EFE00001F1F1F1C1D7B
:100F30001D1C1F0000000000000000000000000059
:100F4000000000000000000000FE0E6E6E0E3E3E2F
:100F5000FE00001F1F1F1C1C1C1C1F000A0E00FE91
:100F6000BE8EB6B68EBEFE00001F1A1A1A1A1A1AC4
:100F70001F00FFFFFFFFFFFFFFFFFFFF3F3F3F3F60
:100F80003F3F3F3F3F3F0A0E00FEEEE6E2E6EEFE49
:100F9000FE00001F1D1911191D1F1F000504060961
:100FA0000909060E040406040F02040906060904D2
:100FB000090604040F0506070807010F06090701C3
:100FC00006020204080F060906090603040A0906B8
:100FD0000516EE226222E2C848D452D21D0404044F
:100FE0000505051F1B1B1B1F05051F1B111B1F10C4
:100FF000140000000000F02040802010048C4010FD
:10100000300808080808FF00008041221C08080872
:1010100008000000000007020100000000000000BE
:10102000000000000000F0E0C080000000804010E0
:10103000300808080808FFFFFFFF7F3E1C0808086B
:10104000080000000000070301000000000000008D
:10105000000000000000F0E0C0802010040C000040
:10106000000808080808FFFFFFFF7F3E1C0808086B
:10107000080000000000070301000000000000005D
:10108000003EFFAB55AB55AB55AB55AB56ACF8E09E
:10109000E03E7F6A556A556A556A556A351A0F03EC
:1010A000033EFFAB55AB55AB55AB55AB56ACF8E07B
:1010B000E03E7F6A556A556A556A556A351A0F03CC
:1010C000033E3F0DFB55AB55AB55AB55AB56AC781E
:1010D000E03E7E586F556A556A556A556A351A0F53
:1010E000033E3F1DFB55AB55AB55AB55AA54B8E07D
:1010F000E03E7E5C6F556A556A556A552A150E03A7
:10110000033C3F0CF0030DFB55AB55AB55AA54F80F
:10111000E01E7E180760586F556A556A552A150FEC
:10112000033E3F0CF0030DFB55AB55AB56ACF8E05E
:10113000E03E7E180760586F556A556A351A0F03EE
:101140000380C0C0FFAB56AC58B0E0C0C080808008
:10115000800001017F6A351A0D06030101000000BD
:10116000000000000000000000000000000000007F
:10117000000000000000000000000000000000006F
:101180000011098282C745C70404040808101038FA
:1011900028381010000001010100000000000000CC
:1011A00000000000008282C745C740404020201058
:1011B0001038283810100000010101000000000064
:1011C00000000000000000061AFFBDB9B139BDFFE4
:1011D0008BEBCAE98BFF36D6D2D4D60303020202C8
:1011E000020513D151D55BD125A4B4ACA5030404E9
:1011F0000404151355000100010001000100010065
:101200000100010001000100555500000000000030
:101210000000000000000000000000000055050074
:10122000040004000400040004000400040004009E
:1012300004000504083E09093E3F25251A1E212108
:10124000123F21211E3F2525213F0505011E212991
:101250003A3F04043F213F21001021211F3F040A8F
:10126000313F2020203F02023F3F02043F1E212148
:101270001E3F0909061E21112E3F09093622252588
:1012800019013F01011F20201F0F10201F3F1010C8
:101290003F3B04043B03043807312D2321102A2A45
:1012A0003C3F2424181C2222141824243F1C2A2AE0
:1012B0002C047E05014C52523E3F040438243D204C
:1012C000004040443D3F081422213F20003E0404DA
:1012D0003E3E04023C1C22221C7E22221C1C222296
:1012E0007E3E040204242A2A12021F22201E2020ED
:1012F0001E0E10201E3E10103E360808364E50506E
:101300003E322A26221E29251E223F20003229296C
:10131000261221251A0C0A3F08172525191E2525F6
:1013200018013905031A25251A0629291E002F0040
:1013300000002000000229050201020408102040DC
:1013400080080B00020202010009040000010202F1
:1013500000000524001001052401010104240206F7
:10136000052406000107058103100040090401005F
:10137000020A000000070502024000000705830280
:101380004000000403090412010002EF0201404181
:1013900023368000010102030141726475696E6F9A
:1013A000204C4C430041726475696E6F204C656F30
:1013B0006E6172646F0000000000003E5B4F5B3E98
:1013C0003E6B4F6B3E1C3E7C3E1C183C7E3C181C0A
:1013D000577D571C1C5E7F5E1C00183C1800FFE701
:1013E000C3E7FF0018241800FFE7DBE7FF30483AA7
:1013F000060E2629792926407F050507407F052509
:101400003F5A3CE73C5A7F3E1C1C08081C1C3E7F90
:1014100014227F22145F5F005F5F06097F017F0057
:101420006689956A606060606094A2FFA294080477
:101430007E040810207E201008082A1C08081C2A98
:1014400008081E101010100C1E0C1E0C30383E38F0
:1014500030060E3E0E06000000000000005F000097
:101460000007000700147F147F14242A7F2A122308
:101470001308646236495620500008070300001C18
:101480002241000041221C002A1C7F1C2A08083E21
:101490000808008070300008080808080000606034
:1014A0000020100804023E5149453E00427F4000A2
:1014B00072494949462141494D331814127F10277A
:1014C000454545393C4A49493141211109073649C9
:1014D000494936464949291E00001400000040349D
:1014E00000000008142241141414141400412214A2
:1014F0000802015909063E415D594E7C1211127CC9
:101500007F494949363E414141227F4141413E7F29
:10151000494949417F090909013E414151737F0809
:1015200008087F00417F41002040413F017F0814AF
:1015300022417F404040407F021C027F7F04081010
:101540007F3E4141413E7F090909063E4151215EEE
:101550007F09192946264949493203017F01033F82
:101560004040403F1F2040201F3F4038403F631411
:1015700008146303047804036159494D43007F4113
:1015800041410204081020004141417F0402010250
:101590000440404040400003070800205454784075
:1015A0007F284444383844444428384444287F3809
:1015B0005454541800087E090218A4A49C787F088B
:1015C00004047800447D40002040403D007F102806
:1015D000440000417F40007C047804787C080404C7
:1015E000783844444438FC1824241818242418FC5F
:1015F0007C08040408485454542404043F44243C04
:101600004040207C1C2040201C3C4030403C442872
:101610001028444C9090907C4464544C440008360C
:10162000410000007700000041360800020102047A
:10163000023C2623263C1EA1A161123A4040207A9A
:1016400038545455592155557941215454784121E4
:101650005554784020545579400C1E527212395519
:101660005555593954545459395554545800004516
:101670007C410002457D420001457C40F02924293F
:10168000F0F0282528F07C545545002054547C5413
:101690007C0A097F49324949493232484848323246
:1016A0004A4848303A4141217A3A42402078009DE8
:1016B000A0A07D39444444393D4040403D3C24FF96
:1016C0002424487E4943662B2FFC2F2BFF0929F643
:1016D00020C0887E090320545479410000447D4194
:1016E0003048484A32384040227A007A0A0A727DED
:1016F0000D19317D2629292F282629292926304808
:101700004D4020380808080808080808382F10C875
:10171000ACBA2F102834FA00007B000008142A14F9
:101720002222142A14089500220095AA005500AA26
:10173000AA55AA55AA000000FF00101010FF0014BF
:101740001414FF001010FF00FF1010F010F014141C
:1017500014FC001414F700FF0000FF00FF1414F441
:1017600004FC141417101F10101F101F1414141F42
:1017700000101010F0000000001F101010101F10BB
:10178000101010F010000000FF10101010101010BA
:101790001010FF10000000FF140000FF00FF000009
:1017A0001F10170000FC04F414141710171414F47D
:1017B00004F40000FF00F714141414141414F700B8
:1017C000F7141414171410101F101F141414F41409
:1017D0001010F010F000001F101F0000001F140078
:1017E0000000FC140000F010F01010FF10FF1414A3
:1017F00014FF141010101F00000000F010FFFFFF76
:10180000FFFFF0F0F0F0F0FFFFFF0000000000FF2E
:10181000FF0F0F0F0F0F38444438447C2A2A3E1420
:101820007E02020606027E027E026355494163384B
:1018300044443C04407E201E2006027E020299A5FC
:10184000E7A5991C2A492A1C4C7201724C304A4D5A
:101850004D303048784830BC625A463D3E4949498F
:10186000007E0101017E2A2A2A2A2A44445F444438
:1018700040514A444040444A51400000FF0103E0C7
:1018800080FF000008086B6B083612362436060FFE
:10189000090F06000018180000001010003040FF6B
:1018A0000101001F01011E00191D1712003C3C3CE4
:1018B0003C0000000000562F11241FBECFEFDAE0DD
:1018C000DEBFCDBF11E0A0E0B1E0E8E8F1E602C084
:1018D00005900D92A83EB107D9F728E0A8EEB1E037
:1018E00001C01D92A731B207E1F71CE0CCE5DCE0B6
:1018F00004C02197FE010E94B730CB35D107C9F74C
:101900000E949C210C94C2300C940000089508950C
:1019100080E090E00895CF92EF920F93CF93DF9302
:10192000EC016A3079F43D89298D89899A89329F41
:10193000800D911D11249A8B898B8F8990E0988B53
:101940008F872FC06D3069F1262F49895A896F859D
:101950007889CD88EC880B890E94AC202D89622F74
:1019600070E08F85988936E0239F800D911D1124AA
:10197000988B8F872E892223A1F0488D5AEF56032A
:101980009001579F300D1124240F311D281739075E
:1019900044F4E881F9810190F081E02D6AE0CE0104
:1019A000099581E090E0DF91CF910F91EF90CF907A
:1019B0000895CF92EF920F931F93CF93DF93FC0183
:1019C00096816A3031F4858184836185960F968390
:1019D00042C0262FEF01848161E0690F2F3379F136
:1019E00064F42E32A1F01CF42132A9F022C090ED53
:1019F000920F9A30F0F42C5F0FC02134D4F02B35C5
:101A000044F09FE9920F9A31A0F4275405C02FE3C8
:101A100003C0215401C02EE33F81062E000C770B3A
:101A2000082E000C990B313061F443E352E10E941F
:101A3000732088858C5F9C81890F8C830CC020E487
:101A4000EBCF3BEFC32EE12C00E010E043E352E18B
:101A50000E94481EEECF81E090E0DF91CF911F9170
:101A60000F91EF90CF90089560387105D0F4403415
:101A70005105B8F4E9E3F3E180E1849FD001A07857
:101A80001124A60F4770E40FF11D8491A15FBD4F93
:101A9000222319F06C91862B03C080956C918623CC
:101AA0008C9308951F93CF93DF93C82FDFE3D81B48
:101AB000C03288F41C2F117020E04C2F60E8812F79
:101AC0000E94041620E04D2F60E8812F0E9404162A
:101AD000CF5FD150EDCFDF91CF911F910895BF928D
:101AE000CF92DF92EF92FF920F931F93CF93DF93EA
:101AF000E62E93E1F92EF80E00E02BE0D22ED60E62
:101B000017E034E2C32EC60E4CE0B42EB60E809120
:101B10005C07081708F0A9C0CDEECF0D823011F098
:101B200090E001C09CE09C0F90937A079093790716
:101B3000E0927B0780EC91E00E94E01580915C07C9
:101B4000823011F080E001C08CE0C80FC0937A07AA
:101B5000C0937907D0927B07C02FD0E01C9FF00183
:101B60001D9FF00D1124E35AF84F8081823018F444
:101B70000E94D91504C08EEB91E00E94E0158EEB17
:101B800091E00E94E0151C9FF0011D9FF00D1124B3
:101B9000E05AF84F8081823010F40E94D91584EC0D
:101BA00091E00E94E0151C9FF0011D9FF00D112493
:101BB000E25AF84F8081823018F40E94D91504C08F
:101BC0008EEB91E00E94E0158EEB91E00E94E01513
:101BD0001C9FF0011D9FF00D1124EF59F84F8081DB
:101BE000823010F40E94D91584EC91E00E94E01537
:101BF0001C9FF0011D9FF00D1124E15AF84F8081C8
:101C0000823018F40E94D91504C08EEB91E00E9436
:101C1000E0158EEB91E00E94E0151C9FF0011D9FE6
:101C2000F00D1124EE59F84F8081823010F40E949B
:101C3000D91584EC91E00E94E01580915C07282F73
:101C400030E021503109C217D3075CF4823011F023
:101C500040E001C04CE04F0D21E06C2D8B2D0E9427
:101C600024160F5F89E1F80E52CFDF91CF911F91BB
:101C70000F91FF90EF90DF90CF90BF900895CF939A
:101C8000DF93EC01E88181E08E0F8883F0E0E65875
:101C9000F14F84910E94D9158EEB91E00E94E015DE
:101CA000E88181E08E0F8883F0E0E658F14F84915F
:101CB000823018F40E94D91504C08EEB91E00E9486
:101CC000E0158EEB91E00E94E015E88181E08E0F37
:101CD0008883F0E0E658F14F8491DF91CF910C9426
:101CE000D915EBEA8E9FE12D1124E695E43028F416
:101CF000F0E0E45AFE4F808108958FEF0895FC01D3
:101D00008081883018F08A3070F408C0811102C0D8
:101D100087E007C09FEF980F908304C0883011F4CC
:101D200089E0808380810895FC018081883018F0EB
:101D30008A3070F408C0873011F4108208C091E036
:101D4000980F908304C0893011F488E080838081EB
:101D50000895DC0111969C911197963031F148F06D
:101D6000993041F19A3049F1983071F514968C917F
:101D7000089514968C911497811102C0E0E001C07F
:101D8000E2E015968C91E80F8CE0989F902D11243D
:101D900083E0E89FF0011124E90FF11DE458F14FB1
:101DA000E49181E0E13081F410C014969C9181E0CF
:101DB0008927089515968C91089515969C911597ED
:101DC00014968C91892B089580E00895CF92DF922C
:101DD000EF92FF920F931F93CF93DF93CDB7DEB7B0
:101DE00060970FB6F894DEBF0FBECDBF8BE08D8736
:101DF00088E28E8784E48F8780E6888B8CE0E0E53C
:101E0000F1E0DE01119601900D928A95E1F7809143
:101E100009018C3018F08C3001F12CC0E1E0F0E0C9
:101E2000EC0FFD1FE80FF11D608170E09BEA899FB8
:101E3000812D11248695FE01E80FF11D858520E096
:101E400042EF51E190E00E94732020E041EE51E129
:101E50006CE270E08BE790E00BC08091020284306E
:101E600049F420E047EC51E166E270E08AE790E057
:101E70000E94832009E116E0E12CF12CF80136974D
:101E80008081882309F43FC03196808198012350D6
:101E900031096901882371F0F9014081442351F02F
:101EA0003196208130E050E03297608170E090E020
:101EB0000E944416F6018081980121503109690180
:101EC000882371F0F9014081442351F0F801208109
:101ED00030E050E03297608170E090E00E9444165C
:101EE000F6018081882379F0F701E15FF94F43859E
:101EF000442349F0248530E050E0F801608170E02F
:101F000090E00E944416FDE0EF0EF11C035F1F4FAE
:101F100024E0E21621E0F20609F0B0CF80918607B6
:101F2000909187078F71992711E0409708F010E092
:101F30004091F201442369F08091F401882349F033
:101F4000481307C0212F6091F5018091F3010E9491
:101F500024168091F201882369F06091F4016623D0
:101F600049F04091F3019091F501491303C0212FED
:101F70000E9404164091F401442369F08091F60117
:101F8000882349F0481307C0212F6091F701809101
:101F9000F5010E9424168091F401882369F0609174
:101FA000F601662349F04091F5019091F70149133C
:101FB00003C0212F0E9404164091F601442369F0CA
:101FC0008091F801882349F0481307C0212F6091C0
:101FD000F9018091F7010E9424168091F60188236F
:101FE00069F06091F801662349F04091F701909102
:101FF000F901491303C0212F0E94041620911507EF
:102000002850223040F441E851E168E070E08DE072
:1020100090E00E94732020911B072850223040F44A
:1020200041E851E16AE170E08DE090E00E947320A8
:10203000209121072850223040F441E851E16CE220
:1020400070E08DE090E00E94732020912707CC245F
:10205000C394E22E01E810E142E353E067E070E050
:102060008AE290E00E94481E20912D07E22E42E372
:1020700053E069E170E08AE290E00E94481E2091FE
:102080003307E22E42E353E06BE270E08AE290E035
:102090000E94481E20913907E22E42E353E065E09A
:1020A00070E086E490E00E94481E20913F07E22EF7
:1020B00042E353E067E170E086E490E00E94481E4E
:1020C00020914507E22E42E353E069E270E086E4A6
:1020D00090E00E94481E80914B078A3079F58AE48F
:1020E00097E00E94A90E882351F080918607909175
:1020F00087078F719927409720F022E003C020E0E6
:1021000001C021E04FEE5FE063E070E081E690E027
:102110000E9473202EE030E046E750E06EE070E071
:1021200081E790E00E9444162FE330E046E750E05C
:102130006EE070E086E790E00E94441680915107BF
:102140008A3079F580E597E00E94A90E882351F046
:1021500080918607909187078F719927409720F08B
:1021600022E003C020E001C021E04FEE5FE065E126
:1021700070E081E690E00E94732020E230E046E7C4
:1021800050E060E270E081E790E00E9444162FE3A7
:1021900030E046E750E060E270E086E790E00E94C1
:1021A0004416809157078A3079F586E597E00E94BA
:1021B000A90E882351F080918607909187078F712F
:1021C0009927409720F022E003C020E001C021E0E1
:1021D0004FEE5FE067E270E081E690E00E947320DE
:1021E00022E330E046E750E062E370E081E790E010
:1021F0000E9444162FE330E046E750E062E370E0CF
:1022000086E790E00E94441620E030E046E750E088
:1022100060E070E080E090E00E94441627E330E048
:1022200040E050E065E070E080E090E00E944416FD
:102230002AE330E044E050E067E070E084E090E0C2
:102240000E9444162FE330E046E750E06FE370E071
:1022500080E090E00E94441621E048E76FE380E0D0
:102260000E94241620E048EE5FE060E070E080E02D
:1022700090E00E94732020E041EE5FE06AE370E0AE
:1022800080E090E00E9473208091FB0181112AC0C0
:102290008091FA01811126C020E040ED5FE060E00E
:1022A00070E08BE790E00E948320809113071AE092
:1022B000612F0E948330282F4CE95FE068E170E0D5
:1022C0008BE790E00E94832080911307612F0E948A
:1022D0008330292F4CE95FE06DE170E08BE790E0FF
:1022E0000E9483208091FB01813091F4809109014B
:1022F000893070F4CC24C394E12C02E71FE020E085
:1023000046E85FE06FEF7FEF87E790E00E94481EAE
:102310008091FB01823091F480910901893070F441
:10232000CC24C394E12C02E71FE020E04CE55FE001
:102330006FEF7FEF87E790E00E94481E8091FA01DF
:10234000882339F1E0910901EC3018F536E0E39F7C
:10235000F0011124ED5EF84F8281863011F08A3051
:1023600049F420910A012D5FCC24C394E12C0EEC9A
:102370001EE007C0CC24C394E12C0EEC1EE020919B
:102380000A0142EE5EE06FEF7FEF87E790E00E9488
:10239000481E80917207882309F491C0809102023F
:1023A000843009F08CC08091010200E028E18A317C
:1023B00009F546E564E170E08FE090E00E94E215E7
:1023C00021E047E164E682E10E94041621E046E252
:1023D00064E682E10E94041685E180937A07809387
:1023E00079078BE180937B0781E080937C0786EC03
:1023F00091E055C042E564E170E081E190E00E9427
:10240000E21521E047E160E684E10E94041621E044
:1024100047E260E684E10E94041686E180937A0731
:10242000809379078BE180937B0711E010937C0701
:1024300087ED91E00E94E01580910001882361F012
:1024400001E028E046E06BE170E081E590E00E9469
:10245000E21510927C0702C010937C0784EE91E095
:102460000E94E0158AE580937A07809379078BE1D3
:1024700080937B078091000181110CC001E028E06E
:1024800046E06BE170E089E590E00E94E215109271
:102490007C0703C081E080937C0786EE91E0609624
:1024A0000FB6F894DEBF0FBECDBFDF91CF911F9165
:1024B0000F91FF90EF90DF90CF900C94E015609615
:1024C0000FB6F894DEBF0FBECDBFDF91CF911F9145
:1024D0000F91FF90EF90DF90CF900895FC01148250
:1024E000158216821782108611861286138614862C
:1024F0000895EF92FF920F931F93CF93DF931F9254
:10250000CDB7DEB77C01FC0100811181C801698370
:102510000E940A306981681719F0C8010E941230C0
:10252000C7010F90DF91CF911F910F91FF90EF9016
:1025300008950F931F93CF93DF9300D0CDB7DEB7ED
:10254000082F80EA91E00E940A30182F81EA91E07A
:102550000E940A30011104C01C3411F48835D9F0EE
:1025600080EA91E09A8389836CE4CE0101960E940F
:10257000791281EA91E09A83898368E5CE01019618
:102580000E94791282EA91E09A83898360E0CE0109
:1025900001960E9479120F900F90DF91CF911F91B9
:1025A0000F9108959C01240F311D1216130674F526
:1025B000803891055CF5FC0197FF02C0E0E0F0E097
:1025C0002138310514F020E830E02E1BAB014770B4
:1025D000552781E001C0880F4A95EAF777FF02C0CE
:1025E000695F7F4F93E0759567959A95E1F77695CA
:1025F000762F662777956795E60FF71FE15FFD4F0A
:10260000215020F09081982B9193FACF0895009754
:1026100069F0FC0101900020E9F73197AF01481BF8
:10262000590BBC0185E797E00C943D1C80E090E0DD
:1026300008958F929F92AF92BF920F931F93CF9363
:10264000DF93CDB7DEB7A1970FB6F894DEBF0FBE0C
:10265000CDBF19A2423008F44AE08E010F5D1F4F32
:10266000842E912CA12CB12CA50194010E945230F2
:10267000E62FB901CA0101501109EA3014F4E05DF6
:1026800001C0E95CD801EC93232B242B252B61F7A7
:10269000C8010E940713A1960FB6F894DEBF0FBEC3
:1026A000CDBFDF91CF911F910F91BF90AF909F90C1
:1026B0008F900895DF92EF92FF920F931F93CF9325
:1026C000DF937C01D22E8B01040F111DEB0177FFEC
:1026D0000EC0C0E0D0E00BC0C417D5077CF42D2D90
:1026E000AE01B70183E897E00E94340D2196A8015E
:1026F000013411058CF340E450E0EECFDF91CF912F
:102700001F910F91FF90EF90DF900895A82F3091C7
:10271000090120910B012A3F09F450C02F3F09F411
:102720004DC086E0289FF0011124EC5EF84F8181B6
:10273000863051F080910C01811106C0293020F4BF
:1027400081E080930C0108954BEA349F312D1124D0
:1027500036952C3050F5822F63E00E948330923002
:10276000E1F0249F212D112426959F5F422F440FD5
:10277000420F592F540F86E0589FF0011124EC5E50
:10278000F84F8181873031F050930B01321754F0AC
:1027900082E0D7CF9F5F933061F7A4FF0FC08AEF2D
:1027A00080930B0110920C0108952B3F21F42FEF21
:1027B000230F9FEFDACF20E090E0D7CF089530913C
:1027C000090190910B01292F2B7F2B3F09F449C060
:1027D00026E0929FF0011124EC5EF84F2181263013
:1027E00021F020910C012130A9F02BEA329F312DEC
:1027F000112436959C3088F4929F212D1124269522
:10280000422F440F420F941B69F485FF2AC08BEFBF
:1028100080930B0110920C0108959A3FB1F72FEFAE
:10282000230F93E09150422F440F420F592F540F22
:1028300066E0569FF0011124EC5EF84F618167302D
:1028400069F050930B0132172CF481E023301CF017
:1028500080E001C082E080930C010895915030F730
:10286000D4CF089520910B01909109012F3F09F4D5
:10287000292F10920C01263018F4233028F016C0AE
:10288000293030F12F3FB9F520912707273011F07B
:1028900023E02FC020912D07273011F024E029C01C
:1028A00020913307273011F025E023C0209139070C
:1028B000273011F026E01DC020913F07273011F08E
:1028C00027E017C020914507273011F028E011C0FC
:1028D00020914B072A3011F429E00BC020915107B9
:1028E0002A3011F42AE005C0209157072A3019F444
:1028F0002BE020930B013BEA939F912D1124969599
:1029000020910B01239F212D11242695921303C0A2
:102910002FEF20930B0180FF09C020910B013BEAB0
:10292000239F212D11242695291760F081FF11C0C6
:1029300080910B012BEA829F812D11248695981797
:1029400028F008952FEF20930B01F0CF8FEF8093A5
:102950000B01089520910B01909109012F3F09F47B
:10296000292F10920C01293028F42630D8F4233076
:1029700020F43AC02C3040F137C0209115072730A1
:1029800019F010920B0130C020911B07273011F075
:1029900021E005C020912107273031F122E020936A
:1029A0000B0122C020912707273011F023E0F7CF39
:1029B00020912D07273011F024E0F1CF209133072B
:1029C0002730D9F225E0EBCF20913907273011F0DD
:1029D00026E0E5CF30913F07373009F720914507D2
:1029E000273001F328E0DBCF3BEA939F912D1124A0
:1029F000969520910B01239F212D1124269592134A
:102A000003C02FEF20930B0180FF09C020910B0121
:102A10003BEA239F212D11242695291760F081FF81
:102A200011C080910B012BEA829F812D1124869584
:102A3000981728F008952FEF20930B01F0CF8FEF18
:102A400080930B0108952F923F924F925F926F9265
:102A50007F928F929F92AF92BF92CF92DF92EF922E
:102A6000FF920F931F93CF93DF934C016C0125E0EE
:102A7000C20ED11CC0E0F60134978081873009F482
:102A800070C083E1682E86E0782E90E1E92E96E012
:102A9000F92E02E116E021E1A22E26E0B22ED0E0CE
:102AA000312CF3018081882399F0F50190819C13EA
:102AB0000FC0F70190819B3F31F4F8019081911193
:102AC00002C033243394F70190819B3F09F46AC01C
:102AD000F701908126E0290F223088F12401F6E0E9
:102AE0009F9F400C511C1124882399F0F50180818F
:102AF0008C130FC022242394F80180818111212C92
:102B0000C2010E94A90E882321F0222011F0332453
:102B10003394F3018081882391F0F50180818C1337
:102B20000EC022242394F8018081813009F0212CE9
:102B3000C2010E94A90E882311F02110D1E0FDE00E
:102B40006F0E711C2DE0E20EF11C035F1F4F8DE034
:102B5000A80EB11CE4E1EE16E7E0FE0609F0A1CFF5
:102B600002C0D0E0312CF60131973082F601D083DB
:102B7000CF5FF6E0CF0ED11CCC3009F07CCFDF91D7
:102B8000CF911F910F91FF90EF90DF90CF90BF906A
:102B9000AF909F908F907F906F905F904F903F90FD
:102BA0002F900895F8019081913009F091CFD1E0F4
:102BB0008FCF682F70E080E090E04AE00C9419130A
:102BC0000C940713CF92DF92EF92FF920F931F9313
:102BD000CF93DF936B01122FEC017C01E40EF11C0B
:102BE000CE15DF0544F4202F412FB601CE010E94FF
:102BF0005A132196F5CFDF91CF911F910F91FF903E
:102C0000EF90DF90CF900895FF920F931F93CF9393
:102C1000DF93C82FD62FF22E681710F4C62FD82FA7
:102C2000042F10E0DC1750F06C2F70E02F2DA8015E
:102C300083E897E00E94340DCE5FF4CFDF91CF910F
:102C40001F910F91FF900895FF920F931F93CF93C1
:102C5000DF93C82FD62FF22E681710F4C62FD82F67
:102C6000042F10E0DC1750F04C2F50E02F2DB8014E
:102C700083E897E00E94340DCE5FF4CFDF91CF91CF
:102C80001F910F91FF9008955F926F927F928F92A4
:102C90009F92AF92BF92CF92DF92EF92FF920F93EB
:102CA0001F93CF93DF93EC018B017A01A901461B9F
:102CB000570B57FF03C0519541955109C7018C1B14
:102CC0009D0B97FF03C091958195910955245394CD
:102CD0008417950714F0512C0AC09E2D8F2D790171
:102CE000292F382F9C2F8D2FE801092F182FEC1634
:102CF000FD0654F4902F812F8901292F382F9C2F06
:102D00008D2FE701E92EF82E37016C1A7D0A590143
:102D1000A01AB10AB7FE03C0B194A194B10863012F
:102D200077FE03C08FEFC81AD80AD594C79402174C
:102D3000130714F08FEF01C081E0882E880F9908E7
:102D4000EC16FD06B4F021E0552019F0AE01B801F3
:102D500002C0A801BE0183E897E00E94340DCA18A2
:102D6000DB08D7FE04C0080D191DC60CD71C219620
:102D7000E7CFDF91CF911F910F91FF90EF90DF9000
:102D8000CF90BF90AF909F908F907F906F905F900B
:102D9000089520918907282329F490918807982382
:102DA00081E009F480E0089520918907282329F023
:102DB00090918807982381E009F080E008950F93AF
:102DC0001F93CF93DF938C01C0E0D0E0F801EC0FAC
:102DD000FD1F6491662371F0E0917507F09176070D
:102DE0000190F081E02D85E797E00995892B11F09E
:102DF0002196ECCFCE01DF91CF911F910F910895D5
:102E0000EF92FF920F931F93CF93DF93EC018B010F
:102E1000E42EF22E6034710510F40E94D212B80133
:102E20006F0D711D615071096034710520F44E2DD4
:102E3000CE010E94D21221E04F2DB801CE010E9496
:102E40005A13CE018E0D911D21E04F2DB80101972F
:102E5000DF91CF911F910F91FF90EF900C945A1337
:102E6000CF92DF92EF92FF92CF93DF936C01990F95
:102E7000EE08FF08F7FE1FC0E0917507F091760796
:102E80000190F081E02D6DE285E797E00995EC0176
:102E900066277727CB016C197D098E099F094AE0C7
:102EA0000E9419138C0F9D1FDF91CF91FF90EF901F
:102EB000DF90CF9008954AE0C701B601DF91CF912E
:102EC000FF90EF90DF90CF900C941913EFE0F2E0B9
:102ED000A0E0B8E000800EBC8111012C1197A0FD8C
:102EE000FDCF0192B9F70DB40895FC0180910E0257
:102EF000811103C08FEF9FEF08959FB7F89482E090
:102F00008093E9002091F20030E01216130614F4C9
:102F100021E030E02115310559F0289884E68093AE
:102F20000D028091F10080838091F200882319F0D6
:102F30009FBFC90108958BE68093E800F9CF2FB7B2
:102F4000F89483E08093E9009091E800892F8072E3
:102F500095FF04C09091F20080E4891B2FBF089573
:102F60008F929F92AF92BF92CF92DF92EF92FF9299
:102F70000F931F93CF93DF935C016B017A018091D4
:102F80000801882309F45BC080910E02882309F4AC
:102F900056C080910C0280FF05C08091E0008260E5
:102FA0008093E000E70110E00AEF83E0882E9AE3C7
:102FB000992E2097D9F10E949F1781110AC00150C4
:102FC00009F43DC061E070E080E090E00E94AC1C3C
:102FD000F0CF282F30E0C217D3070CF48C2F4FB757
:102FE000F8948092E9009091E80095FF1DC0282F89
:102FF00030E0C21BD30BF601982F915020F0819145
:103000008093F100FACFC20ED31E112319F09092D3
:10301000E80009C08091E80085FD06C09092E800B4
:1030200011E0209709F010E04FBFC3CF1111C3CFBB
:103030005D9884E680930B021E141F0444F081E027
:1030400090E0F5019383828380E090E001C0C701A6
:10305000DF91CF911F910F91FF90EF90DF90CF9074
:10306000BF90AF909F908F90089580919D078111A0
:103070000DC082E08093990784E080939A071092B4
:103080009C0710929B0781E080939D0789E997E058
:103090000895CF93DF931F92CDB7DEB76983DC012C
:1030A000ED91FC910280F381E02D41E050E0BE0102
:1030B0006F5F7F4F09950F90DF91CF91089583E067
:1030C0008093E9008091F200882319F08AE38093CD
:1030D000E8000895FC018485958597FD0BC09FB796
:1030E000F89482E08093E9008091F2009FBF90E025
:1030F000019608959FB7F89482E08093E90080914B
:10310000F2009FBF90E00895409107085091080891
:10311000209105083091060842175307B4F49091A6
:10312000E8009570E1F39091E80092FD19C080935A
:10313000F100809107089091080801968F739927F4
:10314000892B19F48EEF8093E80080910708909105
:1031500008080196909308088093070881E0089575
:1031600080E00895CF92DF92EF92FF920F931F932A
:10317000CF93DF931F92CDB7DEB7182F062FE42E23
:10318000862F880F8E5F99830E94841883E00E94A7
:103190008418F12EC12E9981D92E8C2D8F1980176C
:1031A00098F4F601E7FE02C0849101C080810E947C
:1031B0008418182F80E00E9484188123FFEFCF1A13
:1031C000DF0A8111EACF01C081E00F90DF91CF913A
:1031D0001F910F91FF90EF90DF90CF900895DF92B5
:1031E000EF92FF920F931F93CF93DF93D82E8A0114
:1031F0007B01E40EF51EEB01CE15DF0571F0D7FE65
:1032000003C0FE01849101C088810E948418219628
:103210008111F2CF8FEF9FEF01C0C801DF91CF91F5
:103220001F910F91FF90EF90DF900895615030F063
:103230002091F100FC0120830196F8CF289884E6C4
:1032400080930D0208950E949F1790E00895CF93F8
:10325000DF931F92CDB7DEB7FC018485958597FD7E
:1032600005C02FEF3FEF358724870BC0CE010196B5
:103270000E947517019719F4898190E002C08FEFC1
:103280009FEF0F90DF91CF9108950F931F93CF93EE
:10329000DF931F92CDB7DEB78C01FC018485958545
:1032A00097FF0EC0CE0101960E947517019719F481
:1032B000298130E002C02FEF3FEFF80135872487E6
:1032C000F801848595850F90DF91CF911F910F9123
:1032D00008950F931F93CF93DF931F92CDB7DEB75F
:1032E00082E0898342E450E061E473E180E80E9477
:1032F000EF180E943518DC0112960D911C9113975E
:103300000115110569F0D801ED91FC910280F3815E
:10331000E02DBE016F5F7F4FC801099597FF07C081
:1033200089810F90DF91CF911F910F910895F8013E
:1033300000851185E5CF1F920F920FB60F921124D1
:103340008F939F938091E1009091E100937F909300
:10335000E10083FF0FC01092E90091E09093EB0031
:103360001092EC0092E39093ED0010920E0298E020
:103370009093F00082FF20C093E09093E900909139
:10338000F200992319F09AE39093E80090910B02D0
:10339000992339F090910B02915090930B0299234D
:1033A00089F190910D02992339F090910D0291507D
:1033B00090930D02992341F184FF10C08091E200A7
:1033C0008E7E81608093E2008091E1008F7E809309
:1033D000E10080910C028E7E806111C080FF16C0DA
:1033E0008091E2008E7E80618093E2008091E10016
:1033F0008E7E8093E10080910C028E7E81608093AE
:103400000C0204C05D9ACDCF289AD6CF9F918F91A0
:103410000F900FBE0F901F9018951F920F920FB62E
:103420000F921124CF92DF92EF92FF920F931F938E
:103430002F933F934F935F936F937F938F939F93BC
:10344000AF93BF93EF93FF93CF93DF93CDB7DEB7E7
:103450006C97DEBFCDBF1092E9008091E80083FF3A
:10346000EDC168E0CE0145960E94161982EF809367
:10347000E8008D8987FF05C09091E80090FFFCCFA0
:1034800003C09EEF9093E800982F907609F0C6C095
:103490009E892F89188D91110CC0803829F4809154
:1034A00004088093F10002C01092F1001092F10024
:1034B00048C1422F50E0512B913051F4811141C14C
:1034C0004130510509F03DC1809104088D7F0BC04A
:1034D000933061F4811135C14130510509F031C19A
:1034E000809104088260809304082BC1953041F4D8
:1034F0008091E80080FFFCCF20682093E30021C189
:10350000963009F05FC0EB8CFC8C1092E9001092B1
:10351000080810920708123091F5109206081092D0
:1035200005080E94691999E0BE016F5F7F4FDB01BA
:10353000E92F1D92EA95E9F799831A8391E09E831A
:1035400090EA98879AEF99872091070830910808A8
:10355000275F3F4F3C832B838D831092E9001092AD
:10356000080810920708F0920608E092050849E062
:1035700050E080E00E94EF180E946919E2C0F092CA
:103580000608E09205080E943518DC011296ED90BD
:10359000FC901397E114F10409F4C0C0D701ED9138
:1035A000FC910480F581E02DBE016B5E7F4FC70169
:1035B0000995009719F00CF0C4C0C7C0F701E0846A
:1035C000F184E8CF973009F4C0C0983021F481E04D
:1035D0008093F100B6C0993009F0B3C0837009F050
:1035E000B4C0E3E9F1E081E021E036E39081992382
:1035F00061F08093E9002093EB0091919093EC00AF
:103600003093ED008F5F873089F78EE78093EA0073
:103610001092EA008F8980930E0293C08B8D9C8D4F
:103620001092E9001092080810920708909306087B
:1036300080930508898D811156C08E899D89913AA4
:1036400059F4813209F081C047E050E061E071E057
:1036500080E00E94EF1875C0913209F076C0833285
:1036600089F4888D90E0982F88272F89822BA0E0FD
:10367000B0E080930D0190930E01A0930F01B093E1
:1036800010015FC0803269F48091E80082FFFCCFB6
:1036900067E081E091E00E9416198BEF8093E800CB
:1036A00006C0823209F04DC08F8980930801809155
:1036B0000308882319F0EEEFFAE002C0E0E0F8E03A
:1036C0008091010190910201A0910301B091040148
:1036D000803B9440A105B10509F07BC080910801B1
:1036E00080FF93C076C00E943518DC0112960D91C0
:1036F0001C9113970115110541F1D801ED91FC9131
:103700000190F081E02DBE016B5E7F4FC8010995ED
:10371000811117C0F80100851185ECCF113009F433
:103720004EC0133091F48F89882309F445C082304C
:1037300081F440E860E185EA93E10E94B2188823B1
:1037400021F08EEF8093E80079C081E28093EB0056
:1037500075C0813029F440E86BE089E993E1EDCF51
:10376000833099F70E943518DC011296ED90FC9099
:1037700013978E010F5F1F4F6801E114F10479F078
:10378000D701ED91FC910680F781E02DB801C701CA
:103790000995080F111DF701E084F184EECFD801DF
:1037A0001C92F60101900020E9F73197BF016C19D6
:1037B0007D0940E0C601C1CF63E873E102C067E85C
:1037C00073E16115710509F2FB01449150E080E855
:1037D00040CF0FB6F894A8958091600088618093DF
:1037E0006000109260000FBEA895EE3F2AE0F2073D
:1037F00039F08091FE0A9091FF0A91838083A1CFD6
:103800001092FF0A1092FE0A9CCFEE3F8AE0F80762
:1038100031F0808191819093FF0A8093FE0A87E7BF
:1038200097E7918380839BE088E10FB6F894A89591
:10383000809360000FBE9093600083CF6C960FB6AC
:10384000F894DEBF0FBECDBFDF91CF91FF91EF9116
:10385000BF91AF919F918F917F916F915F914F91A8
:103860003F912F911F910F91FF90EF90DF90CF909C
:103870000F900FBE0F901F901895CF92DF92EF928E
:10388000FF920F931F93CF93DF936C017A018B010B
:10389000C0E0D0E0CE15DF0589F0D8016D918D0133
:1038A000D601ED91FC910190F081E02DC6010995C2
:1038B000892B11F47E0102C02196ECCFC701DF9164
:1038C000CF911F910F91FF90EF90DF90CF900895CF
:1038D00080910002E091FE01F091FF01882349F000
:1038E000CF0102969093FF018093FE018591949100
:1038F0000895CF0102969093FF018093FE0180818D
:10390000918108958091E80108950E94BD303FB7EC
:10391000F8948091130890911408A0911508B09123
:10392000160826B5A89B05C02F3F19F00196A11DCA
:10393000B11D3FBFBA2FA92F982F8827820F911D45
:10394000A11DB11DBC01CD0142E0660F771F881F8C
:10395000991F4A95D1F708958F929F92AF92BF9287
:10396000CF92DF92EF92FF926B017C010E94871C45
:103970004B015C01C114D104E104F104F1F00E9497
:10398000871CDC01CB0188199909AA09BB09883E6B
:103990009340A105B10570F321E0C21AD108E108F6
:1039A000F10888EE880E83E0981EA11CB11CC1149A
:1039B000D104E104F10419F7DDCFFF90EF90DF901F
:1039C000CF90BF90AF909F908F9008951F920F92CD
:1039D0000FB60F9211242F933F938F939F93AF9322
:1039E000BF938091E9019091EA01A091EB01B09120
:1039F000EC013091120823E0230F2D3720F40196BB
:103A0000A11DB11D05C026E8230F0296A11DB11D01
:103A1000209312088093E9019093EA01A093EB01AF
:103A2000B093EC018091130890911408A0911508AF
:103A3000B09116080196A11DB11D809313089093B3
:103A40001408A0931508B0931608BF91AF919F91E9
:103A50008F913F912F910F900FBE0F901F9018954F
:103A6000E1E7F0E080818D7F80831092910046989D
:103A7000479810920B080895CF92DF92EF92FF9231
:103A80000F931F93CF93DF930E94681C811520E84A
:103A9000920751F4DF91CF911F910F91FF90EF901A
:103AA000DF90CF900C94301D21E020930B088130E3
:103AB00020E8920751F48091FC019091FD019093D0
:103AC000FF018093FE010E94681C97FD05C02091B4
:103AD0000A08222309F440C02091090821113CC0A2
:103AE00021E020930C08EC01DF77209769F481E056
:103AF00080930D0846983FE9C32E3FE0D32EE12C7A
:103B0000F12CCAEFD0E014C08E0120E030E060E478
:103B100072E48FE090E0A90198010E9420306901D1
:103B20007A0181E0C81AD108E108F10810920D0865
:103B3000E0917307F09174070995811103C081E04A
:103B400080930D0880910C08882309F43FC0809170
:103B50000D0881113BC003C010920C08C4CF4699D8
:103B600035C0479A0E94681C009771F09C01DE01E5
:103B70000E947430DC01CB0129E0B595A79597959B
:103B800087952A95D1F703C08FEF9FEFDC01109244
:103B900090002AE020939100D0929900C092980062
:103BA00080930E0890930F08A0931008B09311080B
:103BB00080917100826080937100DF91CF911F919D
:103BC0000F91FF90EF90DF90CF9008954798CACF64
:103BD0001F920F920FB60F9211242F933F934F9382
:103BE0005F936F937F938F939F93AF93BF93EF9365
:103BF000FF9380910E0890910F08A0911008B0914A
:103C00001108892B8A2B8B2B81F180910D08811152
:103C10000BC098B180E4892788B980910C0888236B
:103C200019F088B1805888B980910E0890910F08DA
:103C3000A0911008B0911108181619061A061B0653
:103C4000B4F480910E0890910F08A0911008B091E3
:103C500011080197A109B10980930E0890930F08EC
:103C6000A0931008B093110802C00E943C1DFF9160
:103C7000EF91BF91AF919F918F917F916F915F91E4
:103C80004F913F912F910F900FBE0F901F9018955D
:103C90006F927F928F929F92AF92BF92CF92DF925C
:103CA000EF92FF920F931F93CF93DF9300D000D03A
:103CB000CDB7DEB73A014115510509F401C2FA0149
:103CC000F49031965491F2E06F0E711CAF2CB12C30
:103CD000211102C0EE2069F1A52FA695A695A69503
:103CE000B0E0E1E0F0E0352F377011F4E0E0F0E013
:103CF000AE0FBF1FAA9EF001AB9EF00DBA9EF00D55
:103D00001124A3E08A2EC81003C0EE0FFF1F0AC0C3
:103D10000115110539F0EE9ED001EF9EB00D112472
:103D20000A0F1B1F2E9FD0012F9FB00D11246A0E6A
:103D30007B1E2FEFC21208C00115110519F0CC240B
:103D4000C39402C032E0C32EDC01AA0DBB1D1A16BB
:103D50001B060CF0B5C1803891050CF0B1C19B0178
:103D6000250F311D121613060CF0AAC1603471051F
:103D70000CF0A6C16114710409F4A2C1362F37708A
:103D8000932EFB0177FD379623E0F595E7952A956D
:103D9000E1F72E2F77FF04C0992011F02FEF2E0F9F
:103DA00097FF05C0EE27FF27E81BF90B02C0E0E0F4
:103DB000F0E0A038B1051CF030E8381B01C03F2D01
:103DC0003E1B622F022E000C770B2F3F1CF4462F58
:103DD000409501C040E0B1E0A52FA77009F4B0E024
:103DE000569556955695DB2ED50E6D0D711D693085
:103DF00071051CF058E0D52ED21AD41A240FDC011C
:103E000050E82503A00DB11D1124AE0FBF1F4F9D1B
:103E1000E00DF11D1124A3014E0F5F1F81E090E022
:103E20007C01092C02C0EE0CFF1C0A94E2F783E02F
:103E3000C81609F404C18C15A8F091E0C91609F45C
:103E4000B5C0E2E0CE123CC18FEF8E9DB0018F9DD8
:103E5000700D1124609570957C836B837C806D2C34
:103E6000620E2BC0FAEFCF1631F09BEF892EC810EF
:103E700027C1D20E87C0D20E51C0FA01E00FF11F48
:103E8000E491EE9D6001EF9DD00C1124DA82C9828D
:103E900027FD07C0FC01D080ED2DE623CE2AFC01D2
:103EA000C082911013C00F5F1F4F0196031728F3B4
:103EB0002F5F4A0D5B1DA058BF4F261509F400C1A6
:103EC000CD01815F9D4F00E010E0F0CF27305CF71F
:103ED000FC01E058FF4FC080C7208A80C828C082FC
:103EE000E2CFFA01E60FF71FE491EE9D8001EF9D0E
:103EF000100D11241A83098327FD04C0FC011081D1
:103F0000012B0083911013C06F5F7F4F01966317E1
:103F100040F32F5F4A0D5B1DA058BF4F2D1509F4CC
:103F2000CFC0CD01815F9D4F60E070E0F0CF2730C2
:103F30005CF78C0100581F4FF801C080FA81CF2A2E
:103F4000F801C082E1CFFA01E00FF11FE491EE9D8C
:103F5000C001EF9D900D11249A83898327FD05C030
:103F60008095FB01908189238083911014C00F5F9D
:103F70001F4F6F5F7F4F031730F32F5F4A0D5B1D9D
:103F8000A058BF4F2D1509F49BC0BD01615F7D4F47
:103F900000E010E0F0CF273054F7FB01E058FF4F6E
:103FA0008A818095908189238083E1CF0E0F1F1F26
:103FB0008D2C820E281509F483C0CD01815F9D4FA1
:103FC0006C0160E070E0631790F5F801E60FF71FF1
:103FD000E491EE9DC001EF9D900D11248095909588
:103FE0009C838B83FA01E60FF71FE491EE9D30016D
:103FF000EF9D700C11247A82698227FD05C0F601BD
:1040000090818923682A6082992059F027304CF4E6
:10401000F601E058FF4F90818C8189239A81892B8A
:1040200080836F5F7F4FFFEFCF1ADF0ACCCF2F5F08
:104030004A0D5B1D0A0D1B1DA058BF4FBBCF832F20
:1040400090E0E40FF51FA15FBD4F60E870E0681BD2
:10405000790BA81AB90A8501000F111F5D2D832E57
:10406000CF93DF93ED01EF96EF962296A590C59042
:10407000992059F0AE9C5001CE9C600127302CF461
:10408000F880D094FD20FB28F99222233AF0FC908E
:10409000C094FC20FA28FD920C944F2011963A957A
:1040A00029F75A9551F0382D23951124E00FF11D71
:1040B000A60FB11DC60FD11DD9CFDF91CF9111240D
:1040C0000F900F900F900F90DF91CF911F910F9154
:1040D000FF90EF90DF90CF90BF90AF909F908F9028
:1040E0007F906F900895CF92EF920F931F933AEFC6
:1040F000C32EE12C00E010E00E94481E1F910F919A
:10410000EF90CF900895CF92EF920F931F9332E0EC
:10411000C32EE12C00E010E00E94481E1F910F9179
:10412000EF90CF900895BC0180E090E00C94AC1C1F
:104130008FB18095807F669B88601C9B846008950A
:1041400093E894BD609567BD91EF90938000409394
:10415000880080938A0008952F923F924F925F9239
:104160006F927F928F929F92AF92BF92CF92DF9287
:10417000EF92FF920F931F93CF93DF93CDB7DEB7EC
:1041800027970FB6F894DEBF0FBECDBF603871051C
:104190000CF06EC0403451050CF06AC0FB0135E0F4
:1041A000C39EE00DF11D11241E161F060CF060C009
:1041B0008C2C912CFA0138E0C39EE00DF11D1124E6
:1041C0001E161F060CF054C02C2CEA8209833A01FB
:1041D00045E0249F800111247F836E830A541C4E86
:1041E00030E0FC013496FC83EB83F80154903530C9
:1041F00009F4512C530188E0382E50FC02C04A804B
:1042000001C0498041100BC0FA814981F41307C0F5
:1042100056943A94A80CB91C3110EFCF1DC0EE8013
:10422000FF808E2D9E81891B821590F765018C2D54
:104230008A19821568F4242DA601B7018B819C810F
:104240003D830E94340D5FEFC51AD50A3D81EFCF43
:104250008FEFE81AF80AE5CF3F5FEE81FF81E80DA6
:10426000F91DFF83EE830F5F1F4F363009F0BDCF7E
:1042700027960FB6F894DEBF0FBECDBFDF91CF916A
:104280001F910F91FF90EF90DF90CF90BF90AF9074
:104290009F908F907F906F905F904F903F902F9066
:1042A0000895CF92EF920F93CF93DF93EC016A3092
:1042B00069F42D8989899A8938E0239F800D911DA1
:1042C00011249A8B898B188A1F862EC06D3061F15C
:1042D000262F49895A896F857889CD88EC880B8982
:1042E0000E94AC202D89422F50E08F85988936E0BE
:1042F000239F800D911D1124988B8F872E89222357
:1043000099F06AEF64039001659F300D11242058E5
:104310003F4F2817390744F4E881F9810190F08173
:10432000E02D6AE0CE01099581E090E0DF91CF9128
:104330000F91EF90CF900895CF93DF9300D01F920D
:10434000CDB7DEB7789484B5826084BD84B58160D2
:1043500084BD85B5826085BD85B5816085BD809150
:104360006E00816080936E001092810080918100C8
:1043700082608093810080918100816080938100C0
:1043800080918000816080938000809191008260A4
:104390008093910080919100816080939100809141
:1043A00090008160809390008091C1008460809330
:1043B000C1008091C10082608093C1008091C100E2
:1043C00081608093C1008091C30081608093C300AD
:1043D0008091C00082608093C0008091C2008160A3
:1043E0008093C20080917A00846080937A008091EB
:1043F0007A00826080937A0080917A008160809355
:104400007A0080917A00806880937A0010920E0280
:104410001092040810920C028091D7008160809362
:10442000D70080EA8093D80089B5806189BD89B5BD
:10443000826089BD09B400FEFDCF61E070E080E0DC
:1044400090E00E94AC1C8091D8008F7C80618093AA
:10445000D8008091E000807F8093E0008091E100AF
:104460008E7E8093E1008DE08093E200559A209A41
:10447000EEEFFFE7859194918B3F9C4D19F481E01D
:104480008093030881EC80937C0085B1806F85B9AF
:1044900084B1877E84B984B1876E84B95E9A5F984F
:1044A0008AB1806D8AB9769A6E9881B3806F81BB2C
:1044B000899880B38D7080BB80E58CBD81E08DBD17
:1044C00085E090E00E9493205F9A85E090E00E9452
:1044D00093205E985C98E3EEF2E08DE08E0F94916D
:1044E0009EBD00000DB407FEFDCF31968E13F7CFB1
:1044F0005C9A81E88093640080916500816080937C
:1045000065000E94982087FF15C05C9885EA8EBDE3
:1045100000000DB407FEFDCF5C9A2E982F982D98C1
:104520008091640080628093640081E083BF8895FD
:1045300013BEFCCF02E010E00E94982082FF40C032
:104540002D980E94982084788438C1F00E94982089
:104550008471843181F52D9A88EC90E00E9493203B
:104560002E981A83098360E0CE0101960E94791289
:1045700084EF91E00E9493202E9A18C02D9A88EC27
:1045800090E00E9493202F981A8309836FEFCE0149
:1045900001960E94791284EF91E00E9493202F9A55
:1045A0000E94982084788438D9F3D0CF0E94982034
:1045B00084718431D9F388EC90E00E949320BCCFC1
:1045C0002D9A80E180938A07809164008E7F80938A
:1045D000640080917A00806480937A0080917A00F0
:1045E00086FDFCCF00917800109179000E94871C15
:1045F00020E030E0980111270027600F711F821F13
:10460000931F611571058105910511F00E9401301C
:104610008091640081608093640011E0109395079D
:1046200089E08093980782E090E00E940A30882316
:1046300029F03E9A3F9A1093E80104C01092E801D5
:104640003E983F9880E00E94991282EA91E00E9491
:104650000A308093010283E0882E912C92EAA92EE1
:10466000BB24B3948FB7F8944091E9015091EA01CB
:104670006091EB017091EC018FBF80918B07342F1B
:10468000381B832FF0908C07FF2029F030938D0783
:1046900010928C0722C690918A07391748F48F5FD1
:1046A000891708F01AC681E083BF889513BE15C626
:1046B00011E010938C0740938B07809186079091AF
:1046C00087070196909387078093860780918807D4
:1046D000809389070E949820809388078091020226
:1046E000823009F45FC028F4882381F0813031F1F1
:1046F000F1C5843009F452C108F4D4C0853009F002
:10470000E9C5A5E1B7E060E080E0B7C18BE4809344
:104710000A0210930202809171008D7F80937100D4
:104720001093000288E99DE09093FF018093FE01C1
:104730009093FD018093FC010E943C1D20E046E91E
:1047400059E060E070E080E090E00E94832080917A
:10475000860780FD07C080910A02882319F08150E6
:1047600080930A0210910A02103298F4812F0E945D
:10477000520D11110EC0CC24C394E12C0CEB14E0AB
:1047800020E048E257E06EE070E083E090E00E94B5
:10479000481E0E94982087FFA8C50E94982084FD8B
:1047A000B8C5A3C50E94301D80910102E82FF0E03A
:1047B000EE0FFF1FE65EFE4F208131818F5F8093F9
:1047C0001307A7E1B7E080E090E0F901E80FF91FD7
:1047D0006491AD0143505109FA0180834F5F5F4FEF
:1047E000FA01608341E08330910518F0673009F0E9
:1047F00040E04C93019616968C30910531F7F90103
:104800003C96E491E0935C07A901435F5F4F83E12D
:1048100097E02A5E3F4FFA016491DC01A65BBF4F2F
:10482000E62FF0E074E0F595E7957A95E1F7EC93E3
:10483000FC01E35BFF4F6F706083FA013196E491F6
:1048400011966E2F70E0F4E075956795FA95E1F793
:104850006C931396EF70EC93FA013296E4911297F1
:104860006E2F70E014E0759567951A95E1F76C93DB
:104870001396EF70EC934D5F5F4F07964217530707
:1048800051F60FE016E0C8010E946E12035F1F4F41
:10489000F7E003311F07B9F783E08093020288E253
:1048A00080930A0220E046E959E060E070E080E091
:1048B00090E00E94832080E00E94520D00E020E4FE
:1048C00041E560E070E087E190E00E94E21501E0E0
:1048D0002AE04DE460E070E089E190E00E94E2159A
:1048E0008CE180937A078093790711E010937B071E
:1048F00010927C0789E991E00E94E01580911307EE
:104900000AE0602F0E94833090E00E94301780916F
:104910001307602F0E948330892F90E00E94301788
:1049200010937C0721E049E160E480E00E942416B6
:1049300021E045E660E480E00E94241621E04FE398
:1049400065E689E10E9404166DE080E20E946F0D29
:1049500080910A02882319F0815080930A02809185
:104960000A02811115C089E380937A078093790741
:1049700085E380937B0780EA91E00E94E01520E0C8
:104980004DEA54E065E370E087E590E00E94732013
:1049900088E00E94C9168111B9C39CC48091720736
:1049A000882391F18FEF80930A0180930B0180930C
:1049B0000C0180E20E94C916882329F08091000131
:1049C000882309F44EC580E40E94C916882321F08B
:1049D00080910001811148C5109101021A3131F115
:1049E00088E00E94C916882321F08091000181117E
:1049F0003EC588E00E94C9168823C1F0809100015D
:104A0000882309F444C512C01092FB011092FA01E8
:104A1000809109018C3009F03DC588E00E94C916DB
:104A2000882309F437C585E0809302020E94E60ED0
:104A300051C42DEF280F263008F461E0963009F1BB
:104A40009A3009F541E091E020E030E050E0F901D2
:104A5000E15FF94F7481711119C0235F3F4F24301A
:104A600071E03707A1F7552301F19923F1F04423B1
:104A7000E1F08F5F16968C30B1F09C919730C9F6BB
:104A8000F8CF40E0E0CF40E090E0DECF71817813D6
:104A900001C041E072817813E0CF738171110C94F1
:104AA000D72E51E0DACF611107C080910602813024
:104AB00029F41092060202C0FF24F3940E94E60E2D
:104AC00000E027E348E260E070E080E090E00E94D0
:104AD000E21525E346E261E070E081E090E00E94AB
:104AE000001721E049E264E285E00E94041681E0BB
:104AF00080937C0708E000937A070093790784E0AD
:104B000080937B0789E994E00E94DF1600937A077F
:104B1000009379078BE280937B0784E994E00E94FD
:104B2000DF1610927C0710910602E12FF0E0EB5E99
:104B3000FE4F608100937A070093790760937B07AB
:104B400070E001E028E040E284E090E00E94E2159D
:104B5000F11009C020E04CE854E06DE070E08EE117
:104B600090E00E9483201230D1F038F41123A1F09C
:104B70001130C9F582E894E034C01330F9F01430F4
:104B800091F588E080937A07809379078BE2809390
:104B90007B078EE694E025C087E894E022C08DE78D
:104BA00094E00E94DF164BEFC42EE12C00E010E0F1
:104BB00020E048E754E068E170E00EC083E794E04D
:104BC0000E94DF163BEFC32EE12C00E010E020E056
:104BD00048E754E061E270E08FE190E00E94481EF7
:104BE00002C00E94DF1681E080937C07809105025D
:104BF000823009F4C3C0833009F4F9C0813009F070
:104C0000D2C180910402843618F48F5F809304022D
:104C100040E060E080E00E94A020109104028FEF4D
:104C2000810F8F3080F480915C07882361F0809140
:104C30006307811103C060E080E202C080E060E2AF
:104C400040E00E94A0208FED810F8F3080F4809192
:104C50005C07823060F080916A07882319F080E059
:104C600060E202C060E080E240E00E94A0201154B7
:104C70001F3080F480915C07833060F08091710771
:104C8000811103C060E080E202C080E060E240E0A9
:104C90000E94A02000E029E34EE468E070E084E296
:104CA00090E00E94E21527E34CE469E070E085E2C1
:104CB00090E00E94001721E043E16EE688E20E9446
:104CC00004168AE280937A07809379078AE08093BA
:104CD0007B0786EA91E00E94E01508E110E09BE284
:104CE000E92E27E0D22E20915C07121788F5E0927A
:104CF0007A07E092790700937B0784EB91E00E94AA
:104D0000E015612E712CC30101960E9430178AEBC9
:104D100091E00E94E015D69CF001D79CF00D112483
:104D2000ED59F84F80819DE0199FB0011124695E13
:104D30007F4F20E0882319F048E554E002C042E4A8
:104D400054E080E690E00E9473201F5F035FCBCFAA
:104D5000E3E6F7E080E091E0821739F0308131112D
:104D600001C090E08F5F3796F7CF992309F41BC1FC
:104D700081E0809372071092090115C100E029E3D8
:104D80004EE468E070E084E290E00E94E21527E3E0
:104D90004CE469E070E085E290E00E94001721E0B9
:104DA00043E16EE688E20E9404168AE280937A0765
:104DB000809379071AE010937B0789E991E00E94BC
:104DC000E01580911307612F0E94833090E00E94CC
:104DD000301780911307612F0E948330892F90E054
:104DE0000E94301767E18BE20E946F0DDCC000E08B
:104DF00029E341E568E070E084E290E00E94E2157A
:104E000027E34FE469E070E085E290E00E9400173C
:104E100001E027E347E069E070E081E790E00E946D
:104E2000E21520E04BE354E06AE070E082E790E0B6
:104E30000E94832020E044E354E066E370E082E7D0
:104E400090E00E94832021E043E16EE688E20E9428
:104E500004162091030242E353E061E270E083E331
:104E600090E00E94832088E280937A0780937907FC
:104E70001AE010937B07E0910302F0E0EE0FFF1FB2
:104E8000EC5DFC4F859194910E94DF1680910302A6
:104E90008630B1F085E580937A0780937907109387
:104EA0007B078EE193E00E94DF168AE280937A0707
:104EB0008093790780E280937B078AE193E015C0B5
:104EC00085E580937A078093790710937B0784E1C7
:104ED00093E00E94DF168AE280937A078093790735
:104EE00084E280937B0782E193E00E94DF1687E4EF
:104EF00080937A078093790785E280937B0780E12E
:104F000093E00E94DF16809103029CE0899F802D30
:104F10001124898315E510937A071093790785E1A9
:104F200080937B07CE0101960E943F0E21E04EE167
:104F30006EE682E50E94041610937A0710937907B3
:104F400080E280937B07CE0101960E943F0E21E014
:104F500049E26EE682E50E940416809103028630E3
:104F600011F110937A07109379078BE280937B07F6
:104F7000CE0101960E943F0E21E044E36EE682E5F9
:104F80000E94041610937A071093790786E38093A2
:104F90007B07CE0101960E943F0E21E04FE36EE6B3
:104FA00082E50E94041680E80E94C916882379F0E1
:104FB00080910602882359F090910502911107C053
:104FC000823009F0FBC6F110F9C61092060280E8A3
:104FD0000E94C916882371F080910502833051F434
:104FE00083E092E00E94940E80910302873011F4D6
:104FF0001092030280E10E94C916882379F0809103
:105000000602843058F490910502911107C0811175
:10501000D9C6F110D7C682E08093060280E10E94D3
:10502000C916882379F080910502833059F483E012
:1050300092E00E947F0E80910302873019F486E08F
:105040008093030280E40E94C916882349F080916E
:105050000602823029F490910502992309F4B4C61E
:1050600080E40E94C916882349F0809106028330AB
:1050700029F490910502992309F4A9C680E20E94BF
:10508000C916882321F0809105028111A3C684E00E
:105090000E94C916882329F080910502882309F40B
:1050A000A1C684E00E94C916882321F080910502E0
:1050B0008111A3C688E00E94C916882309F40AC199
:1050C00080910602823009F4F4C060F48823B9F0BC
:1050D000813009F0FFC01092040200E017E0DD24E7
:1050E000D39479C0833009F4E4C0843009F0F2C06D
:1050F000109206021092050210920202EBC08FEF8E
:1051000080930A0180930B0180930C0184E08093CB
:105110000202E0C0E02EF12C1E9DC0011F9D900DEB
:1051200011248D5E984FFC01E05BFF4FD0823697D3
:105130008081823008F455C01E9DF0011F9DF00D46
:105140001124E25AF84F8081823008F452C01E9D2B
:10515000F0011F9DF00D1124E15AF84F808182303B
:1051600008F44FC084E197E00E9423151E9DF001D2
:105170001F9DF00D1124DF01AD5EB84F2D013D01E3
:10518000BDE46B0E711CF3018081823008F441C0D4
:105190001E9DF0011F9DF00D11249F012D5E384FC3
:1051A000290139013EE4630E711CD3018C918230D8
:1051B000E8F11E9DF0011F9DF00D11249F012D5E51
:1051C000384F790139013FE4630E711CD3018C9192
:1051D0008230C8F10F5F20915C07021708F49ACF64
:1051E0003FC0882311F088E001C089E08093150753
:1051F000A3CF882311F088E001C089E080931B07CA
:10520000A6CF882311F088E001C089E080932107B0
:10521000A9CF8AE497E00E94A90E90E0D3012C91D7
:1052200030E08217930709F0F0C5B2CF80E597E030
:105230000E94A90E90E0F301208130E082179307CD
:1052400009F0E8C5B6CF86E597E00E94A90E90E088
:10525000F301208130E08217930709F0E0C5BACF4F
:10526000E3E6F7E080E091E0821739F03081311118
:1052700001C090E08F5F3796F7CF911103C080EFA8
:1052800092E002C08EEF92E0209171002D7F20937A
:10529000710011E0109300029093FF018093FE01D2
:1052A0009093FD018093FC010E943C1D1093050228
:1052B00011C0809305020EC09D3311F510920902B2
:1052C00040E060E080E00E94A02081E00E9499120E
:1052D0001092010281E00E94661780E090E0892B25
:1052E00009F4C0C90E940000BDC980910902882349
:1052F00039F040E060E080E00E94A02010920902B6
:105300000E94982085FD1AC00E94982086FD16C034
:105310008EC0909109029F5F90930902953180F3AE
:105320009D3350F620E430E0A901491B5109CA0120
:1053300040E060E0880F0E94A020E2CF8091080248
:105340008F5F809308028C3808F066C08636E8F1DB
:1053500001E028E04EE160E070E083E690E00E942A
:10536000E21510927C0785E680937A07809379078F
:1053700010927B0787EB94E00E94DF1685E780930D
:105380007A078093790710927B078091010290E061
:1053900001960AE010E0B8010E948F30CB010E9414
:1053A00030178091010290E00196B8010E948F3081
:1053B0000E94301781E080937C0788E00E94C91624
:1053C000882309F487CF82E0A2CE853630F040E012
:1053D00060E080E00E94A020BBCF813510F040E269
:1053E000F7CF803551F70E94982085FF04C0809147
:1053F000010281112BC00E94982086FF04C0809179
:1054000001028A3138F160910102BA82A982CE018B
:1054100001960E9479129CCF813A18F48D3818F3C6
:10542000DECF813A51F685E680930802D0CF809195
:105430000802882311F280E20E94D41681110EC066
:1054400080E40E94D416811109C082CF81508093DC
:105450000102D1CF8F5F80930102D5CF1092080255
:1054600077CF10930001AFCA10920001B5CA61E076
:10547000610F60930102BA82A982CE0101960E9457
:1054800079121092720782E080930202B2CA1092DF
:105490007207CCCA0E94982082FD05C084E00E9459
:1054A000D416882329F00E94982083FD0BC0D9C20E
:1054B0000E94982083FDF7CF88E00E94D4168111C6
:1054C000F2CF03C4E091090126E0E29FF00111242C
:1054D000ED5EF84F1281173009F4A8CA88E00E94E7
:1054E000C9168823E1F080910A0190E00196B40189
:1054F0000E948F3080930A01163031F4019741F4F5
:1055000082E080930A0104C01A3011F410920A015B
:105510008FEF80930B018DEE91E00E946E1281E07F
:105520008093FA0190910901993028F480910A0141
:10553000933028F0D6C09C3008F411C277CA82306C
:1055400020F0823009F456C071CA80E20E94C91668
:10555000882359F080910B018A3F21F08F3F29F475
:105560008AEF01C08BEF80930B0180E40E94C91683
:10557000882359F080910B018A3F21F08B3F29F459
:105580008AEF01C08FEF80930B018DEE91E00E94B6
:105590006E1280910B018B3F99F48CE08093F201A5
:1055A0008091090192E1899F902D112480910A0137
:1055B000811186E0975F890F8093F30191E015C018
:1055C0008A3F09F033CA8CE08093F201809109018F
:1055D00092E1899F902D112480910A01811186E02A
:1055E000975F890F8093F30194E09093F401809387
:1055F000F5011CCA80E80E94C916882319F080E0D2
:105600000E94DF1380E10E94C916882319F080E010
:105610000E94861380E40E94C916882319F089E04D
:105620000E94321480E20E94C916882319F089E092
:105630000E94AA14F0900B013FEFF31609F4B1C3D6
:10564000109109018EE18093F201812F0E94710E69
:1056500022E1E22E1E9D800D1124845F8093F301D0
:105660002BEAF29E012D11240695129F212D112463
:105670002695021B01509CE1099F002D1124922FB9
:10568000990F290F121B110F105E100F1093F401C8
:105690008093F5011093F6018F2D0E94710E282F33
:1056A0008F2D63E00E9483309E9D902D1124985F82
:1056B00046E0F49EF0011124ED5EF84F82818630C1
:1056C00011F030E001C034E0920F20910C01211163
:1056D00028E0390F230F2093F701075D0093F801AD
:1056E0003BC1823020F0823009F4B7C09FC980E806
:1056F0000E94C916882319F080E20E94DF1380E11E
:105700000E94C916882319F080E10E94861380E464
:105710000E94C916882319F086E00E94321480E2A4
:105720000E94C916882319F086E00E94AA148DEE03
:1057300091E00E946E12F09009018BEAF89E812D93
:105740001124E82EE6949CE1E99E902D11241DE0A1
:10575000190F1093F20156E0F59EF0011124ED5E51
:10576000F84F8281863011F008E001C00CE08F2DE7
:105770000E94710E2BEAF29E212D1124922F9695F4
:10578000292F220F290F9F2D921B800F382F62E1A6
:10579000969F300D112420910A01211128E0320F2B
:1057A0003093F30120910B012B3F99F02F3F09F427
:1057B0003DC92A3FF1F4292F2195220F2250922F23
:1057C000910F9093F4013093F5019093F6018EE3DD
:1057D0000DC0292F2195220F2250922F910F9093C7
:1057E000F4013093F5019093F60182E08093F70184
:1057F0001DC90BEA209F012D11240695802F880FCB
:10580000800FF22EF81A9F2D990F9C5E910F8E2D0E
:10581000801B7CE1879F901911249093F4013093B1
:10582000F5019093F601822F2B830E94710E92E175
:10583000F99E800D1124845F8093F7019CE1099FFC
:10584000002D11242B81233010F090E001C094E052
:10585000065E090F0093F80100C180E80E94C91696
:10586000882319F080E00E94DF1380E10E94C916AE
:10587000882319F080E00E94861380E40E94C916F4
:10588000882319F089E00E94321480E20E94C91630
:10589000882319F089E00E94AA14D0900B01AFEF81
:1058A000DA1609F47EC29BEAD99EF12C1124F694F3
:1058B00010910901199FE12C1124E6940CE1602E4E
:1058C000E69C002D1124025E0093F201812F0E94BC
:1058D000710E9E2D990F9E0D191B92E1792E179D29
:1058E000800D1124845F8093F301110F1E5F100F50
:1058F0003F2D3E193150369D100D11241093F401A7
:105900008093F5011093F6018D2D0E94710E282FC2
:105910008D2D63E00E948330979D902D1124985F18
:10592000B6E0DB9EF0011124ED5EF84F82818630F7
:1059300011F030E001C034E0920F20910C012111F0
:1059400028E0390F230F2093F7018CE1F89E802D7A
:105950001124835F8093F8012093F90167C880E8E0
:105960000E94C916882319F080E00E94DF1380E1AD
:105970000E94C916882319F080E00E94861380E4F3
:105980000E94C916882319F086E00E94321480E232
:105990000E94C916882319F086E00E94AA148DEE91
:1059A00091E00E946E12F09009011BEAF19EE12C39
:1059B0001124E694D0900B01D19E112D112416953F
:1059C0007E2C711AEFEFDE1609F430C80CE1E09E70
:1059D000002D1124035F0093F2018F2D0E94710EA0
:1059E0009E2D990FE90EFE1892E1F99E902D11243B
:1059F000985F20910A01211128E0980F290F209328
:105A0000F3018D2D63E00E948330892F880F8C5E17
:105A1000080FFCE17F9E001911240093F4012093EC
:105A2000F5010093F6018D2D9B830E94710E9B81E1
:105A300022E1929F800D1124845F8093F7019CE105
:105A4000199F102D112432E03D1510F490E001C093
:105A500094E0165E190F1093F8018093F9010C94ED
:105A6000162588E00E94D416882309F492C08091FC
:105A70000B018F3F09F483C0909109019F3F09F406
:105A80007EC0891709F47BC040910A0150910C0136
:105A900001E116E060E176E0E3E1F6E0A2E16A2EE2
:105AA000A6E07A2E24E1B6E0DB2ED80E7F01A4E03A
:105AB000EA1AF108B1E0BD1518F0DB013C910FC006
:105AC000DB013C91981758F4391319C0D8013C9167
:105AD000381315C0D3013C91351311C00AC03813D7
