:100000000C945A0C0C94820C0C94820C0C94820C60
:100010000C94820C0C94820C0C94820C0C94820C28
:100020000C94820C0C94820C0C94F11E0C94631FA3
:100030000C94820C0C94820C0C94820C0C94820C08
:100040000C94820C0C94820C0C94820C0C94820CF8
:100050000C94820C0C94820C0C94820C0C94B512AF
:100060000C94820C0C94820C0C94820C0C94820CD8
:100070000C94820C0C94820C0C94820C0C94820CC8
:100080000C94B7130C94820C0C94820C0C94820C7C
:100090000C94820C0C94820C0C94820C0C94820CA8
:1000A0000C94820C0C94820C0C94820C4E4F5400D5
:1000B000584E4F5200584F52004E4F52004F520070
:1000C0004E414E4400414E44000808080707070708
:1000D00007070A0A0A030101001000101010110896
:1000E00008070303070707070A07070300022200A0
:1000F00012221112220808070101070707070A0741
:100100000703000222011222111222080808070721
:10011000070707070A0A0A0311111000010111114C
:10012000010808070107070707070A0A0703010173
:1001300022110122101122080807040707070707E8
:100140000A0A0703101022000122011022080708E2
:100150000707070707070A0A0703112012002102F1
:100160001120020808070107070707070A0A070303
:1001700001012211012210102208080703070707B6
:1001800007070A0A070310102201002201112208A2
:1001900008070706070707070A0A070310100000E9
:1001A00001221101220808070701070707070A0AA9
:1001B000070311100000012210002208080706069C
:1001C000070707070A07070310122201022210225D
:1001D000220808070607070607070A0707030102A0
:1001E0002200122210122208070807070707070734
:1001F0000A0A070311102200012211002208080830
:100200000707070707070A07070311121200020270
:100210000012020807070007030707070A0A070278
:100220001120220021220807070707070707070AEE
:100230000A070211202200212208070701070707E9
:1002400007070A07070201222210222208080707CF
:1002500007070707070A07070301022200122211F6
:1002600012220808070707070707070A07070301FD
:1002700002220012221012220808070707070707A8
:10028000070A07070300022201122210122208089F
:10029000070707070707070A0707030002220012DC
:1002A000221112220808070707070707070A07078E
:1002B0000301022201122210122208080707070771
:1002C0000707070A07070300022201122211122260
:1002D0000807070707070707070A0707020122227F
:1002E000102222D5F08D14A1C881CFD9F1AF200002
:1002F00031007D00000032002100900100800B02DF
:100300007D00000032009302F40100003200008002
:100310004F004100412020204F00410A420041206F
:1003200042204F00C500C000BD00B900B500B000BC
:10033000AC00101008FF01010101010101020204DB
:1003400018E08080087F404040404040402020101E
:100350000C03000008FF0101010101010102020478
:1003600018E040C0087F40404040404040202010FE
:100370000C030101080B0DF1010101010101020251
:1003800004186080086858474040404040402020A2
:10039000100C0300080B0DF1010101010102020420
:1003A00018E040C0086858474040404040202010B6
:1003B0000C030101080B0CF0030DF1010101020215
:1003C00004186080086818076058474040402020A3
:1003D000100C0300080B0CF0030DF10101020204E4
:1003E00018E040C0086818076058474040202010B7
:1003F0000C030101808080FF0204081020C040C06F
:10040000808080800000007F20100804020101012C
:1004100000000000000000000000000000000000DC
:1004200000000000000000000000000000000000CC
:10043000000000000508DF9F1F9FDF0508FBF9F89B
:10044000F9FB0A0AFC0201894141890102FC000111
:1004500002020202020201000A0AFC020149818131
:10046000490102FC00010202020202020100517570
:1004700069740048656C700003051F0E04496E66C0
:100480006F0054657374004261636B000607545635
:100490005555565451756974004261636B0A546531
:1004A00073740A496E666F0A48656C700008083CF0
:1004B0007E83EDED837E3C00FEFEFEFEFEFEFEFE34
:1004C000FE0000000000000000000000000080C0EE
:1004D000E0F0F8F8FCFCFEFEFEFEFEFEFEFEFEFE78
:1004E000FEFCFCF8F8F0E0C0800000000000000016
:1004F000C0E0F0F0F8FCFCFCFEFEFEFEFEFEFEFEA0
:10050000FEFCFCFCF8F0E0C0800000FEFEFCF8F20F
:10051000E6CE9E3E7EFEFEFEFEFEFEFEE0C08000BB
:100520000000000080C0E0FEFEFEFEFEFEFE7E3EFD
:100530001E000000FFFFFFFFFFFFFFFFFF000000A6
:1005400000000000000000F0FCFFFFFFFFFFFFFFC6
:100550007F1F0F0707030303030307070F1F7FFF17
:10056000FFFFFFFFFFFFFCF0C0FCFEFFFFFFFFFFF0
:10057000FFFF1F0F070703E3E3E3E3E7E7E7EFEF1F
:10058000EFE7E3E1E0E060FFFFFFFFFFFFFFFFFFBA
:10059000000003071F3F7FFFFFFFFFFFFCF8FCFF8A
:1005A000FFFFFFFF7F1F0F07030000000000000098
:1005B000FFFFFFFFFFFF7F3F1F0000000000000064
:1005C0000000007FFFFFFFFFFFFFFFFFF0C0800084
:1005D000000000000000000080C0F0FFFFFFFFFFF0
:1005E000FFFFFF7F1FFFFFFFFFFFFFFFFFF8800000
:1005F0000000003F3F3F3F3F3F3FBFBFFFFF9F0F18
:10060000070100FFFFFFFFFFFFFFFFFF00000000EB
:1006100080E0F0F8FFFFFFFFFFFFFFFFFFFFFFF8A5
:10062000F0E0800000000000000000001F0F87C302
:10063000E1F0F8FCFEFEFEFEFEFEFEFEFEFEFEFE0D
:10064000FFFFFF1F3F7FFFFFFFFFFFFFFFFEFEFEDD
:10065000FEFEFFFFFFFFFFFFFF7F3F1F0F070100B1
:100660000001030F1F3F7FFFFFFFFFFFFFFEFEFEA6
:10067000FEFEFEFEFFFFFFFFFF7F7F1F0E0000FF5D
:10068000FFFFFFFF7FBFDFEFF0FCFEFFFFFFFFFF7D
:100690003F1F0F07010001070F1F3FFFFFFFFFFF75
:1006A000FEFCF0E0C0800000020303030303030329
:1006B000030303030303030303030303030303000D
:1006C000000000000101030303030303030303030A
:1006D0000301010000000000000000000000000015
:1006E00000000000000101030303030303030303ED
:1006F00003030101000000000000000303030100E8
:1007000000030303030303030303030300000000C8
:1007100000000000000000030303030303030303BE
:100720000303007C24000000F8F8F8F8F80000004B
:100730000000000000000000000000000000008039
:10074000C0E0E0F0F0F0F8F8F8F8F8F8F8F0F0F0C1
:10075000E0E0C08000000000000000000000000099
:1007600080C0C0E0F0F0F0F8F8F8F8F8F8F8F0F031
:10077000F0E0E0C080000000000000F8E0C0800071
:100780000008183878F8F8F8E0C080000000000091
:100790000000000080C0E0F8F8F878381800000089
:1007A00000000000FFFFFFFFFF000000000000004E
:1007B00000000000000000E0F8FEFFFF3F0F07030D
:1007C000010100000000000000010103070F3FFFCE
:1007D000FFFEF8E00000000080F8FCFEFF7F0F073E
:1007E0000301010000000080808081818387838174
:1007F00080800000000000FFFFFFFFFF00000000FE
:10080000000003070F3F7FFFFCF8600070F8FCFF5B
:100810007F3F0F0703000000000000000000000001
:10082000FFFF7F3F1F0000000000000000000000ED
:100830000000003FFFFFFFFFE0800000000000001D
:1008400000000000000000000080E0FFFFFFFF3F0D
:10085000000000000FFFFFFFFFF08000000000001D
:100860000000000F0F0F0F0F0F0F0F070300000006
:10087000000000FFFFFFFFFF00000000000000007D
:1008800080E0F0F8FDF8700070F8FDF8F0E080000E
:100890000000000000000000000000000180C0E037
:1008A000F0F8F8F8F8F8F8F8F8F8F8F8F8F8F800C8
:1008B0000003070F1F3F3F7E7CFCF8F8F8F8F8F8BC
:1008C000F8FC7C7E3F3F1F0F070300000000000084
:1008D000000001070F1F3F3F7E7CFCF8F8F8F8F896
:1008E000F8F8F87C7E3E3F1F0E040000000000FF79
:1008F0007F3F1F070080C0E0F0FCFEFF3F1F0F0797
:1009000001000000000001070F1F3FFFFEFCF0E0A8
:10091000C080000000000000000000000000000097
:1009200000000000000000000000000000000000C7
:1009300000000000000000000000000000000000B7
:1009400000000000000000000000000000000000A7
:100950000000000000000000000000000000000097
:100960000000000000000000000000000000000087
:100970000000000000000000000000000000000077
:100980000000000000000000000000000000000067
:10099000008040919191919396949693909090902D
:1009A00090909090909090909090909090909E8247
:1009B00082F21212121212929292921212129292C7
:1009C000F282020202828282820202028282FE801D
:1009D0000000008080808000000080808080000017
:1009E000008080808000FF000080F0888402010089
:1009F00080F0888402010080F098880402028282DC
:100A000082820202020202020202020202020202C6
:100A10000202029191919191919191919191919173
:100A200091919191919191911111111111111111B6
:100A300011111010101010FFFFFFFF000000FFFF4A
:100A4000FFFF000000FFFFFFFF000000FFFFFFFFB0
:100A5000000000FFFFFFFF000000FFFFFFFF00009E
:100A600000FFFFFFFF00FF0000FFFFFFFF0000008F
:100A7000FFFFFFFF000000FFFFFFFF000000FFFF80
:100A8000FFFF101010101010101010101010101088
:100A90001010101D3723371D010101010101010153
:100AA00001010101010101FF000000000000000040
:100AB000000000000000000F0F0F0F0000000F0FDC
:100AC0000F0F0080C06F3F0F0F0000000F0F0F0FC0
:100AD0000080C06F3F1F0F0000000F0F0F0F0000BE
:100AE000000FFF0F8FC07FC0800F0F0F0F0000009F
:100AF0000F0F0F0F0000000F0F0F0F0000000F0F60
:100B00000F0F0000000000000000000000000000C7
:100B100000000000000000000000000000000000D5
:100B2000000000000000000F089E9E9E9E9E9E9E5C
:100B30009E9E9E9E9E0000000000000000386C44B7
:100B40006C3E83C16030180808080808C8682C6625
:100B5000C3010000000000000000000000000000D1
:100B60000000FF0003060406030000000000000070
:100B70000000000000000000000000000000000075
:100B8000000000008F8F8F8F8F8F8F8F8F8F8F043C
:100B9000040404121212121212121212121212125F
:100BA000121212121212121212D7D7D7D7D7D7D7C2
:100BB000D7D7D7D7D7101090909090909090988CCE
:100BC00086C3612060C00000000000000103020332
:100BD000010101010101010101C1612161C18181A5
:100BE00081818181818181818181818181818181F5
:100BF000818181818181C1612161C101011D372212
:100C0000361C0000C7C7C7C7C7C7C7C7C7C7C70203
:100C1000020202C0C0C0C0C0C0C0C0C0C0C0C0C00E
:100C2000C0C0C0C0C060301808EBEBEBEBEBEBEBE7
:100C3000EBEBEBEBEB8989848484848484848E9B46
:100C4000919B8F8283818080808080808080808063
:100C5000808080808080808080C1632263C18080AA
:100C60008080808080808080808080808080808084
:100C70008080000000000103FE030100000000006E
:100C800000000000E3E3E3E3E3E3E3E3E3E3E38122
:100C90008181818080808080808080808080808051
:100CA00080C0602060C0000000F1F1F1F1F1F1F1CD
:100CB000F1F1F1F1F1603018080808080808080897
:100CC00008080808080808080808080808080808A4
:100CD000080808080808080808090B0A0B0908088A
:100CE000081C3622361C0000000000000000000036
:100CF00000FF0000000000007F40404040404040B6
:100D000040404040F1F1F1F1F1F1F1F1F1F1F10088
:100D100000000000000000000000000000100010B3
:100D2000001103121311101E027A7A7A7A7A7A7AF3
:100D30007A7A7A7A7A02020202020202020202023B
:100D40000202020202C2623E68C8080808080808D7
:100D50000808080808080808080808080808080813
:100D600008080808080808080808081C3622361C65
:100D7000000F08000800080000000000000000004C
:100D8000000000007878787878787878787878003B
:100D900000000029003B0029009C000000070029FA
:100DA00000D800000046053100D8000000070031DF
:100DB00000D8000000C7012500D80000000700256A
:100DC00000D8000000C7012900D800000007002952
:100DD00000D800000046054100D80000000700418F
:100DE00000D8000000C7013100D800000007003122
:100DF00000D8000000C7012900D800000007002922
:100E000000D800000046053100D80000000700317E
:100E100000D8000000C7012500D000250007000011
:100E20000007002500D8000000C90000000E0000E7
:100E300000F2002900DB00000007002900DB0000B1
:100E4000005B054100DB00000007004100DB000003
:100E500000CE013E00DB00000007003E00DB00008A
:100E600000CE012900DB00000007002900DB0000A4
:100E7000005B05008004083E09093E3F25251A1E37
:100E80002121123F21211E3F2525213F0505011E5D
:100E900021293A3F04043F213F21001021211F3F17
:100EA000040A313F2020203F02023F3F02043F1E40
:100EB00021211E3F0909061E21112E3F0909362254
:100EC000252519013F01011F20201F0F10201F3F62
:100ED00010103F3B04043B03043807312D2321103D
:100EE0002A2A3C3F2424181C2222141824243F1CA4
:100EF0002A2A2C047E05014C52523E3F0404382419
:100F00003D20004040443D3F081422213F20003E48
:100F100004043E3E04023C1C22221C7E22221C1C95
:100F200022227E3E040204242A2A12021F22201EAC
:100F300020201E0E10201E3E10103E360808364E91
:100F400050503E322A26221E29251E223F200032E2
:100F50002929261221251A0C0A3F08172525191EB2
:100F6000252518013905031A25251A0629291E00E9
:100F70002F000000200000022905020102040810D1
:100F800020408000000000003E5B4F5B3E3E6B4F08
:100F90006B3E1C3E7C3E1C183C7E3C181C577D570B
:100FA0001C1C5E7F5E1C00183C1800FFE7C3E7FFB7
:100FB0000018241800FFE7DBE7FF30483A060E264A
:100FC00029792926407F050507407F05253F5A3CA2
:100FD000E73C5A7F3E1C1C08081C1C3E7F14227FE5
:100FE00022145F5F005F5F06097F017F00668995BD
:100FF0006A606060606094A2FFA29408047E0408A6
:1010000010207E201008082A1C08081C2A08081E28
:10101000101010100C1E0C1E0C30383E3830060E0E
:101020003E0E06000000000000005F000000070008
:101030000700147F147F14242A7F2A1223130864C4
:101040006236495620500008070300001C22410068
:101050000041221C002A1C7F1C2A08083E080800A8
:101060008070300008080808080000606000201048
:101070000804023E5149453E00427F400072494902
:1010800049462141494D331814127F1027454545E3
:10109000393C4A4949314121110907364949493604
:1010A000464949291E000014000000403400000099
:1010B00008142241141414141400412214080201CB
:1010C0005909063E415D594E7C1211127C7F4949F7
:1010D00049363E414141227F4141413E7F49494994
:1010E000417F090909013E414151737F0808087F8A
:1010F00000417F41002040413F017F081422417F91
:10110000404040407F021C027F7F0408107F3E4128
:1011100041413E7F090909063E4151215E7F09197F
:101120002946264949493203017F01033F40404097
:101130003F1F2040201F3F4038403F631408146386
:1011400003047804036159494D43007F4141410242
:1011500004081020004141417F0402010204404084
:10116000404040000307080020545478407F284442
:1011700044383844444428384444287F385454542C
:101180001800087E090218A4A49C787F080404783B
:1011900000447D40002040403D007F102844000076
:1011A000417F40007C047804787C0804047838444B
:1011B000444438FC1824241818242418FC7C0804FF
:1011C0000408485454542404043F44243C40402020
:1011D0007C1C2040201C3C4030403C4428102844CB
:1011E0004C9090907C4464544C440008364100007C
:1011F00000770000004136080002010204023C268C
:1012000023263C1EA1A161123A4040207A38545452
:1012100055592155557941215454784121555478D7
:101220004020545579400C1E52721239555555596B
:10123000395454545939555454580000457C410090
:1012400002457D420001457C40F0292429F0F02828
:101250002528F07C545545002054547C547C0A09C0
:101260007F4932494949323248484832324A48482F
:10127000303A4141217A3A42402078009DA0A07D39
:1012800039444444393D4040403D3C24FF242448F7
:101290007E4943662B2FFC2F2BFF0929F620C0889F
:1012A0007E090320545479410000447D4130484870
:1012B0004A32384040227A007A0A0A727D0D19318A
:1012C0007D2629292F28262929292630484D4020E6
:1012D000380808080808080808382F10C8ACBA2FC2
:1012E000102834FA00007B000008142A142222146B
:1012F0002A14089500220095AA005500AAAA55AA0A
:1013000055AA000000FF00101010FF00141414FF75
:10131000001010FF00FF1010F010F0141414FC0067
:101320001414F700FF0000FF00FF1414F404FC1471
:101330001417101F10101F101F1414141F0010106A
:1013400010F0000000001F101010101F10101010DF
:10135000F010000000FF101010101010101010FFFF
:1013600010000000FF140000FF00FF00001F101716
:101370000000FC04F414141710171414F404F400FF
:1013800000FF00F714141414141414F700F71414C5
:1013900014171410101F101F141414F4141010F04C
:1013A00010F000001F101F0000001F14000000FCC0
:1013B000140000F010F01010FF10FF141414FF14AC
:1013C0001010101F00000000F010FFFFFFFFFFF0E3
:1013D000F0F0F0F0FFFFFF0000000000FFFF0F0F34
:1013E0000F0F0F38444438447C2A2A3E147E0202F0
:1013F0000606027E027E0263554941633844443C3E
:1014000004407E201E2006027E020299A5E7A599CF
:101410001C2A492A1C4C7201724C304A4D4D303006
:1014200048784830BC625A463D3E494949007E01F1
:1014300001017E2A2A2A2A2A44445F444440514A10
:10144000444040444A51400000FF0103E080FF0057
:101450000008086B6B083612362436060F090F0693
:10146000000018180000001010003040FF010100BB
:101470001F01011E00191D1712003C3C3C3C0000DE
:101480000000000000000001000100000101010057
:101490000001000101010001010100000000000144
:1014A0000101000101010100000100010001000033
:1014B0000101000000000001010100010101000024
:1014C0000001000100010000010101000201010210
:1014D00000020202020202FFFFFFFFFFFFFFFFFF09
:1014E000FF3F3F3F3F3F3F3F3F3F3F0A0E00FEC2AF
:1014F000C202C2DE1EFE00001F101616101E1E1FA6
:101500000000FEC2DA1AC2DE1EFE00001F1010101C
:10151000101E1E1F0000FEC2DA1A021E1EFE000070
:101520001F101616101E1E1F0000FE0E0E0E8EBE81
:101530003EFE00001F1F1F1C1D1D1C1F0000000081
:10154000000000000000000000000000000000009B
:101550000000FE0E6E6E0E3E3EFE00001F1F1F1CA2
:101560001C1C1C1F000A0E00FEBE8EB6B68EBEFEF0
:1015700000001F1A1A1A1A1A1A1F00FFFFFFFFFF96
:10158000FFFFFFFFFF3F3F3F3F3F3F3F3F3F3F0AE0
:101590000E00FEEEE6E2E6EEFEFE00001F1D191153
:1015A000191D1F1F00050406090909060E0404067B
:1015B000040F02040906060904090604040F0506BF
:1015C000070807010F0609070106020204080F06B3
:1015D0000906090603040A09060516EE226222E23C
:1015E000C848D452D21D0404040505051F1B1B1B4B
:1015F0001F05051F1B111B1F10140000000000F029
:101600002040802010048C4010300808080808FF93
:1016100000008041221C08080808000000000007A4
:10162000020100000000000000000000000000F0C7
:10163000E0C080000000804010300808080808FF63
:10164000FFFFFF7F3E1C080808080000000000079D
:10165000030100000000000000000000000000F096
:10166000E0C0802010040C0000000808080808FFF3
:10167000FFFFFF7F3E1C080808080000000000076D
:10168000030100000000000000003EFFAB55AB5519
:10169000AB55AB55AB56ACF8E0E03E7F6A556A55AA
:1016A0006A556A556A351A0F03033EFFAB55AB55B1
:1016B000AB55AB55AB56ACF8E0E03E7F6A556A558A
:1016C0006A556A556A351A0F03033E3F0DFB55AB49
:1016D00055AB55AB55AB56AC78E03E7E586F556A6E
:1016E000556A556A556A351A0F033E3F1DFB55ABC7
:1016F00055AB55AB55AA54B8E0E03E7E5C6F556AD9
:10170000556A556A552A150E03033C3F0CF0030D2C
:10171000FB55AB55AB55AA54F8E01E7E1807605830
:101720006F556A556A552A150F033E3F0CF0030D9D
:10173000FB55AB55AB56ACF8E0E03E7E1807605861
:101740006F556A556A351A0F030380C0C0FFAB5648
:10175000AC58B0E0C0C0808080800001017F6A3555
:101760001A0D060301010000000000000000000047
:101770000000000000000000000000000000000069
:101780000000000000000000000011098282C7452F
:10179000C70404040808101038283810100000018D
:1017A0000101000000000000000000000000828233
:1017B000C745C7404040202010103828381010007E
:1017C0000001010100000000000000000000000016
:1017D000061AFFBDB9B139BDFF8BEBCAE98BFF36E5
:1017E000D6D2D4D60303020202020513D151D55B2F
:1017F000D125A4B4ACA503040404041513550001B9
:1018000000010001000100010001000100010001D0
:10181000005555000000000000000000000000001E
:10182000000000000000550500040004000400044E
:10183000000400040004000400040005080B00027A
:101840000202010009040000010202000005240058
:1018500010010524010101042402060524060001EB
:101860000705810310004009040100020A0000007E
:101870000705020240000007058302400000040340
:10188000090412010002EF020140412336800001E9
:101890000102030141726475696E6F204C4C430074
:1018A00041726475696E6F204C656F6E6172646F12
:1018B0000000672E11241FBECFEFDAE0DEBFCDBFE0
:1018C00011E0A0E0B1E0EEE2F0E602C005900D927A
:1018D000A83EB107D9F728E0A8EEB1E001C01D92FB
:1018E000A631B207E1F71CE0CAE5DCE004C02197AD
:1018F000FE010E940A30C935D107C9F70E94932121
:101900000C9415300C9400009C01240F311D12160C
:10191000130674F5803891055CF5FC0197FF02C051
:10192000E0E0F0E02138310514F020E830E02E1B33
:10193000AB014770552781E001C0880F4A95EAF74F
:1019400077FF02C0695F7F4F93E0759567959A9521
:10195000E1F77695762F662777956795E60FF71F5F
:10196000E25FFD4F215020F09081982B9193FACFA8
:101970000895009769F0FC0101900020E9F7319784
:10198000AF01481B590BBC0184E797E00C94071288
:1019900080E090E008958F929F92AF92BF920F9354
:1019A0001F93CF93DF93CDB7DEB7A1970FB6F8940F
:1019B000DEBF0FBECDBF19A2423008F44AE08E014F
:1019C0000F5D1F4F842E912CA12CB12CA5019401E9
:1019D0000E94A52FE62FB901CA0101501109EA3072
:1019E00014F4E05D01C0E95CD801EC93232B242BB7
:1019F000252B61F7C8010E94B90CA1960FB6F89487
:101A0000DEBF0FBECDBFDF91CF911F910F91BF9071
:101A1000AF909F908F900895DF92EF92FF920F9377
:101A20001F93CF93DF937C01D22E8B01040F111DE6
:101A3000EB0177FF0EC0C0E0D0E00BC0C417D507A4
:101A40007CF42D2DAE01B70182E897E00E94CA1602
:101A50002196A801013411058CF340E450E0EECF4B
:101A6000DF91CF911F910F91FF90EF90DF9008953C
:101A7000A82F3091090120910B012A3F09F450C091
:101A80002F3F09F44DC086E0289FF0011124ED5E40
:101A9000F84F8181863051F080910C01811106C090
:101AA000293020F481E080930C0108954BEA349FA3
:101AB000312D112436952C3050F5822F63E00E9491
:101AC000D62F9230E1F0249F212D112426959F5F7F
:101AD000422F440F420F592F540F86E0589FF001B8
:101AE0001124ED5EF84F8181873031F050930B0166
:101AF000321754F082E0D7CF9F5F933061F7A4FF95
:101B00000FC08AEF80930B0110920C0108952B3FB8
:101B100021F42FEF230F9FEFDACF20E090E0D7CF13
:101B200008953091090190910B01292F2B7F2B3FB4
:101B300009F449C026E0929FF0011124ED5EF84FB0
:101B40002181263021F020910C012130A9F02BEACF
:101B5000329F312D112436959C3088F4929F212D8F
:101B600011242695422F440F420F941B69F485FFE0
:101B70002AC08BEF80930B0110920C0108959A3FBD
:101B8000B1F72FEF230F93E09150422F440F420FF4
:101B9000592F540F66E0569FF0011124ED5EF84F67
:101BA0006181673069F050930B0132172CF481E0AA
:101BB00023301CF080E001C082E080930C01089586
:101BC000915030F7D4CF089520910B0190910901E5
:101BD0002F3F09F4292F10920C01263018F42330DE
:101BE00028F016C0293030F12F3FB9F52091260793
:101BF000273011F023E02FC020912C07273011F05F
:101C000024E029C020913207273011F025E023C0BD
:101C100020913807273011F026E01DC020913E07A3
:101C2000273011F027E017C020914407273011F02A
:101C300028E011C020914A072A3011F429E00BC096
:101C4000209150072A3011F42AE005C02091560750
:101C50002A3019F42BE020930B013BEA939F912D3E
:101C60001124969520910B01239F212D1124269557
:101C7000921303C02FEF20930B0180FF09C0209126
:101C80000B013BEA239F212D11242695291760F093
:101C900081FF11C080910B012BEA829F812D1124BD
:101CA0008695981728F008952FEF20930B01F0CF19
:101CB0008FEF80930B01089520910B019091090102
:101CC0002F3F09F4292F10920C01293028F42630D7
:101CD000D8F4233020F43AC02C3040F137C02091A2
:101CE0001407273019F010920B0130C020911A0709
:101CF000273011F021E005C020912007273031F175
:101D000022E020930B0122C020912607273011F0FA
:101D100023E0F7CF20912C07273011F024E0F1CFFA
:101D2000209132072730D9F225E0EBCF20913807F8
:101D3000273011F026E0E5CF30913E07373009F724
:101D400020914407273001F328E0DBCF3BEA939F43
:101D5000912D1124969520910B01239F212D112463
:101D60002695921303C02FEF20930B0180FF09C02B
:101D700020910B013BEA239F212D11242695291741
:101D800060F081FF11C080910B012BEA829F812DB1
:101D900011248695981728F008952FEF20930B01B2
:101DA000F0CF8FEF80930B0108952F923F924F92C7
:101DB0005F926F927F928F929F92AF92BF92CF92DB
:101DC000DF92EF92FF920F931F93CF93DF934C011B
:101DD0006C0125E0C20ED11CC0E0F6013497808171
:101DE000873009F470C082E1682E86E0782E9FE08B
:101DF000E92E96E0F92E01E116E020E1A22E26E080
:101E0000B22ED0E0312CF3018081882399F0F501C6
:101E100090819C130FC0F70190819B3F31F4F80132
:101E20009081911102C033243394F70190819B3F3C
:101E300009F46AC0F701908126E0290F223088F169
:101E40002401F6E09F9F400C511C1124882399F037
:101E5000F50180818C130FC022242394F801808126
:101E60008111212CC2010E947D19882321F022209A
:101E700011F033243394F3018081882391F0F5012C
:101E800080818C130EC022242394F801808181303C
:101E900009F0212CC2010E947D19882311F0211024
:101EA000D1E0FDE06F0E711C2DE0E20EF11C035F2E
:101EB0001F4F8DE0A80EB11CE3E1EE16E7E0FE0631
:101EC00009F0A1CF02C0D0E0312CF6013197308269
:101ED000F601D083CF5FF6E0CF0ED11CCC3009F0F5
:101EE0007CCFDF91CF911F910F91FF90EF90DF900A
:101EF000CF90BF90AF909F908F907F906F905F90AA
:101F00004F903F902F900895F8019081913009F003
:101F100091CFD1E08FCF682F70E080E090E04AE071
:101F20000C94CB0C0C94B90CCF92DF92EF92FF92F1
:101F30000F931F93CF93DF936B01122FEC017C0162
:101F4000E40EF11CCE15DF0544F4202F412FB6011D
:101F5000CE010E940C0D2196F5CFDF91CF911F91FC
:101F60000F91FF90EF90DF90CF900895FF920F9325
:101F70001F93CF93DF93C82FD62FF22E681710F43C
:101F8000C62FD82F042F10E0DC1750F06C2F70E014
:101F90002F2DA80182E897E00E94CA16CE5FF4CFE9
:101FA000DF91CF911F910F91FF900895FF920F93B2
:101FB0001F93CF93DF93C82FD62FF22E681710F4FC
:101FC000C62FD82F042F10E0DC1750F04C2F50E014
:101FD0002F2DB80182E897E00E94CA16CE5FF4CF99
:101FE000DF91CF911F910F91FF9008955F926F92B3
:101FF0007F928F929F92AF92BF92CF92DF92EF9299
:10200000FF920F931F93CF93DF93EC018B017A0123
:10201000A901461B570B57FF03C051954195510924
:10202000C7018C1B9D0B97FF03C09195819591096A
:10203000552453948417950714F0512C0AC09E2DF3
:102040008F2D7901292F382F9C2F8D2FE801092FF3
:10205000182FEC16FD0654F4902F812F8901292F9B
:10206000382F9C2F8D2FE701E92EF82E37016C1A9F
:102070007D0A5901A01AB10AB7FE03C0B194A19418
:10208000B108630177FE03C08FEFC81AD80AD59450
:10209000C7940217130714F08FEF01C081E0882E58
:1020A000880F9908EC16FD06B4F021E0552019F0D0
:1020B000AE01B80102C0A801BE0182E897E00E940B
:1020C000CA16CA18DB08D7FE04C0080D191DC60CB5
:1020D000D71C2196E7CFDF91CF911F910F91FF90F1
:1020E000EF90DF90CF90BF90AF909F908F907F90B8
:1020F0006F905F90089520918807282329F490918C
:102100008707982381E009F480E0089520918807EB
:10211000282329F090918707982381E009F080E037
:10212000089593E894BD609567BD91EF909380000A
:102130001092880080938A0008950F931F93CF9385
:10214000DF938C01C0E0D0E0F801EC0FFD1F64913B
:10215000662371F0E0917407F09175070190F081AA
:10216000E02D84E797E00995892B11F02196ECCFBB
:10217000CE01DF91CF911F910F910895EF92FF92C1
:102180000F931F93CF93DF93EC018B01E42EF22E7C
:102190006034710510F40E94840CB8016F0D711D3C
:1021A000615071096034710520F44E2DCE010E94FA
:1021B000840C21E04F2DB801CE010E940C0DCE0100
:1021C0008E0D911D21E04F2DB8010197DF91CF9128
:1021D0001F910F91FF90EF900C940C0DCF92DF9216
:1021E000EF92FF92CF93DF936C01990FEE08FF08F7
:1021F000F7FE1FC0E0917407F09175070190F08120
:10220000E02D6DE284E797E00995EC0166277727DA
:10221000CB016C197D098E099F094AE00E94CB0C05
:102220008C0F9D1FDF91CF91FF90EF90DF90CF90AB
:1022300008954AE0C701B601DF91CF91FF90EF907A
:10224000DF90CF900C94CB0CEEE0F2E0A0E0B8E091
:1022500000800EBC8111012C1197A0FDFDCF0192D1
:10226000B9F70DB40895FC0180910D02811103C0EE
:102270008FEF9FEF08959FB7F89482E08093E90075
:102280002091F20030E01216130614F421E030E041
:102290002115310559F0289884E680930C0280912D
:1022A000F10080838091F200882319F09FBFC9015B
:1022B00008958BE68093E800F9CF2FB7F89483E078
:1022C0008093E9009091E800892F807295FF04C007
:1022D0009091F20080E4891B2FBF08958F929F9206
:1022E000AF92BF92CF92DF92EF92FF920F931F9324
:1022F000CF93DF935C016B017A0180910801882301
:1023000009F45BC080910D02882309F456C08091C6
:102310000B0280FF05C08091E00082608093E000A6
:10232000E70110E00AEF83E0882E9AE3992E2097C8
:10233000D9F10E945D1181110AC0015009F43DC01C
:1023400061E070E080E090E00E947B12F0CF282FE7
:1023500030E0C217D3070CF48C2F4FB7F89480925B
:10236000E9009091E80095FF1DC0282F30E0C21BC6
:10237000D30BF601982F915020F081918093F100BA
:10238000FACFC20ED31E112319F09092E80009C0B3
:102390008091E80085FD06C09092E80011E020974A
:1023A00009F010E04FBFC3CF1111C3CF5D9884E691
:1023B00080930A021E141F0444F081E090E0F501AE
:1023C0009383828380E090E001C0C701DF91CF91C9
:1023D0001F910F91FF90EF90DF90CF90BF90AF9043
:1023E0009F908F90089580919C0781110DC082E08D
:1023F0008093980784E08093990710929B0710922E
:102400009A0781E080939C0788E997E00895CF922E
:10241000DF92EF92FF920F931F93CF93DF936C01A4
:102420007A018B01C0E0D0E0CE15DF0589F0D8013C
:102430006D918D01D601ED91FC910190F081E02D1F
:10244000C6010995892B11F47E0102C02196ECCFBB
:10245000C701DF91CF911F910F91FF90EF90DF9017
:10246000CF90089580910002E091FE01F091FF016C
:10247000882349F0CF0102969093FF018093FE01DB
:10248000859194910895CF0102969093FF018093D6
:10249000FE018081918108958091E8010895089559
:1024A000089580E090E008950E9410303FB7F894BE
:1024B00080910C0890910D08A0910E08B0910F0822
:1024C00026B5A89B05C02F3F19F00196A11DB11D8F
:1024D0003FBFBA2FA92F982F8827820F911DA11DCA
:1024E000B11DBC01CD0142E0660F771F881F991F07
:1024F0004A95D1F708958F929F92AF92BF92CF9253
:10250000DF92EF92FF926B017C010E9456124B0109
:102510005C01C114D104E104F104F1F00E945612EF
:10252000DC01CB0188199909AA09BB09883E9340AF
:10253000A105B10570F321E0C21AD108E108F10844
:1025400088EE880E83E0981EA11CB11CC114D10432
:10255000E104F10419F7DDCFFF90EF90DF90CF9009
:10256000BF90AF909F908F9008951F920F920FB6DB
:102570000F9211242F933F938F939F93AF93BF9309
:102580008091E9019091EA01A091EB01B091EC01F9
:1025900030910B0823E0230F2D3720F40196A11D65
:1025A000B11D05C026E8230F0296A11DB11D209381
:1025B0000B088093E9019093EA01A093EB01B0939B
:1025C000EC0180910C0890910D08A0910E08B0913B
:1025D0000F080196A11DB11D80930C0890930D0862
:1025E000A0930E08B0930F08BF91AF919F918F9168
:1025F0003F912F910F900FBE0F901F901895E1E71C
:10260000F0E080818D7F80831092910046984798FA
:10261000109204080895CF92DF92EF92FF920F93E9
:102620001F93CF93DF930E943212811520E8920707
:1026300051F4DF91CF911F910F91FF90EF90DF90B8
:10264000CF900C94FF1221E020930408813020E801
:10265000920751F48091FC019091FD019093FF014C
:102660008093FE010E94321297FD05C0209103085D
:10267000222309F440C02091020821113CC021E02E
:1026800020930508EC01DF77209769F481E08093BF
:10269000060846983FE9C32E3FE0D32EE12CF12CEB
:1026A000CAEFD0E014C08E0120E030E060E472E4B4
:1026B0008FE090E0A90198010E94732F69017A01CF
:1026C00081E0C81AD108E108F10810920608E091EB
:1026D0007207F09173070995811103C081E080931F
:1026E000060880910508882309F43FC080910608F8
:1026F00081113BC003C010920508C4CF469935C074
:10270000479A0E943212009771F09C01DE010E94EC
:10271000C72FDC01CB0129E0B595A7959795879543
:102720002A95D1F703C08FEF9FEFDC011092900044
:102730002AE020939100D0929900C0929800809353
:10274000070890930808A0930908B0930A0880919D
:102750007100826080937100DF91CF911F910F9182
:10276000FF90EF90DF90CF9008954798CACF1F92C7
:102770000F920FB60F9211242F933F934F935F93B5
:102780006F937F938F939F93AF93BF93EF93FF9339
:102790008091070890910808A0910908B0910A0853
:1027A000892B8A2B8B2B81F18091060881110BC01C
:1027B00098B180E4892788B980910508882319F0A9
:1027C00088B1805888B98091070890910808A09135
:1027D0000908B0910A08181619061A061B06B4F45F
:1027E0008091070890910808A0910908B0910A0803
:1027F0000197A109B1098093070890930808A09355
:102800000908B0930A0802C00E940B13FF91EF91D0
:10281000BF91AF919F918F917F916F915F914F91F8
:102820003F912F910F900FBE0F901F9018956F92B0
:102830007F928F929F92AF92BF92CF92DF92EF9250
:10284000FF920F931F93CF93DF9300D000D0CDB7AB
:10285000DEB73A014115510509F401C2FA01F490BD
:1028600031965491F2E06F0E711CAF2CB12C2111F6
:1028700002C0EE2069F1A52FA695A695A695B0E019
:10288000E1E0F0E0352F377011F4E0E0F0E0AE0F5A
:10289000BF1FAA9EF001AB9EF00DBA9EF00D112451
:1028A000A3E08A2EC81003C0EE0FFF1F0AC0011557
:1028B000110539F0EE9ED001EF9EB00D11240A0FE4
:1028C0001B1F2E9FD0012F9FB00D11246A0E7B1E5F
:1028D0002FEFC21208C00115110519F0CC24C394C2
:1028E00002C032E0C32EDC01AA0DBB1D1A161B0666
:1028F0000CF0B5C1803891050CF0B1C19B01250FDA
:10290000311D121613060CF0AAC1603471050CF0CB
:10291000A6C16114710409F4A2C1362F3770932E39
:10292000FB0177FD379623E0F595E7952A95E1F7CA
:102930002E2F77FF04C0992011F02FEF2E0F97FF55
:1029400005C0EE27FF27E81BF90B02C0E0E0F0E02E
:10295000A038B1051CF030E8381B01C03F2D3E1BEC
:10296000622F022E000C770B2F3F1CF4462F409550
:1029700001C040E0B1E0A52FA77009F4B0E0569582
:1029800056955695DB2ED50E6D0D711D693071056E
:102990001CF058E0D52ED21AD41A240FDC0150E8CE
:1029A0002503A00DB11D1124AE0FBF1F4F9DE00DDB
:1029B000F11D1124A3014E0F5F1F81E090E07C0107
:1029C000092C02C0EE0CFF1C0A94E2F783E0C81643
:1029D00009F404C18C15A8F091E0C91609F4B5C03A
:1029E000E2E0CE123CC18FEF8E9DB0018F9D700D45
:1029F0001124609570957C836B837C806D2C620EB6
:102A00002BC0FAEFCF1631F09BEF892EC81027C1EB
:102A1000D20E87C0D20E51C0FA01E00FF11FE4912F
:102A2000EE9D6001EF9DD00C1124DA82C98227FD52
:102A300007C0FC01D080ED2DE623CE2AFC01C08228
:102A4000911013C00F5F1F4F0196031728F32F5FDC
:102A50004A0D5B1DA058BF4F261509F400C1CD01DA
:102A6000825F9D4F00E010E0F0CF27305CF7FC0163
:102A7000E058FF4FC080C7208A80C828C082E2CFBC
:102A8000FA01E60FF71FE491EE9D8001EF9D100D16
:102A900011241A83098327FD04C0FC011081012B36
:102AA0000083911013C06F5F7F4F0196631740F34F
:102AB0002F5F4A0D5B1DA058BF4F2D1509F4CFC0E5
:102AC000CD01825F9D4F60E070E0F0CF27305CF772
:102AD0008C0100581F4FF801C080FA81CF2AF801FD
:102AE000C082E1CFFA01E00FF11FE491EE9DC00139
:102AF000EF9D900D11249A83898327FD05C0809551
:102B0000FB01908189238083911014C00F5F1F4FB8
:102B10006F5F7F4F031730F32F5F4A0D5B1DA05887
:102B2000BF4F2D1509F49BC0BD01625F7D4F00E0D2
:102B300010E0F0CF273054F7FB01E058FF4F8A81B7
:102B40008095908189238083E1CF0E0F1F1F8D2CEC
:102B5000820E281509F483C0CD01825F9D4F6C0160
:102B600060E070E0631790F5F801E60FF71FE4915D
:102B7000EE9DC001EF9D900D1124809590959C8352
:102B80008B83FA01E60FF71FE491EE9D3001EF9D74
:102B9000700C11247A82698227FD05C0F6019081AC
:102BA0008923682A6082992059F027304CF4F60175
:102BB000E058FF4F90818C8189239A81892B8083F3
:102BC0006F5F7F4FFFEFCF1ADF0ACCCF2F5F4A0D29
:102BD0005B1D0A0D1B1DA058BF4FBBCF832F90E07C
:102BE000E40FF51FA25FBD4F60E870E0681B790B32
:102BF000A81AB90A8501000F111F5D2D832ECF93EE
:102C0000DF93ED01EF96EF962296A590C59099205F
:102C100059F0AE9C5001CE9C600127302CF4F88016
:102C2000D094FD20FB28F99222233AF0FC90C09426
:102C3000FC20FA28FD920C941E1611963A9529F75D
:102C40005A9551F0382D23951124E00FF11DA60F50
:102C5000B11DC60FD11DD9CFDF91CF9111240F9097
:102C60000F900F900F90DF91CF911F910F91FF90D8
:102C7000EF90DF90CF90BF90AF909F908F907F901C
:102C80006F900895CF92EF920F931F933AEFC32E58
:102C9000E12C00E010E00E9417141F910F91EF90BB
:102CA000CF900895CF92EF920F931F93CF93DF931E
:102CB000FC0196816A3031F4858184836185960FA9
:102CC000968342C0262FEF01848161E0690F2F3384
:102CD00079F164F42E32A1F01CF42132A9F022C063
:102CE00090ED920F9A30F0F42C5F0FC02134D4F0A5
:102CF0002B3544F09FE9920F9A31A0F4275405C078
:102D00002FE303C0215401C02EE33F81062E000CA7
:102D1000770B082E000C990B313061F445E75EE02B
:102D20000E94421688858C5F9C81890F8C830CC021
:102D300020E4EBCF3BEFC32EE12C00E010E045E7B1
:102D40005EE00E941714EECF81E090E0DF91CF911A
:102D50001F910F91EF90CF900895CF92EF920F9324
:102D60001F9332E0C32EE12C00E010E00E94171404
:102D70001F910F91EF90CF900895BC0180E090E0FB
:102D80000C947B128FB18095807F669B88601C9B22
:102D90008460089560387105D0F440345105B8F46A
:102DA000EBE7FFE080E1849FD001A0781124A60F1B
:102DB0004770E40FF11D8491A25FBD4F222319F0EB
:102DC0006C91862B03C080956C9186238C9308951B
:102DD0002F923F924F925F926F927F928F929F922B
:102DE000AF92BF92CF92DF92EF92FF920F931F9319
:102DF000CF93DF93CDB7DEB727970FB6F894DEBF3A
:102E00000FBECDBF603871050CF06EC04034510567
:102E10000CF06AC0FB0135E0C39EE00DF11D1124EA
:102E20001E161F060CF060C08C2C912CFA0138E0A5
:102E3000C39EE00DF11D11241E161F060CF054C098
:102E40002C2CEA8209833A0145E0249F8001112459
:102E50007F836E830D57104F30E0FC013496FC8366
:102E6000EB83F8015490353009F4512C530188E07C
:102E7000382E50FC02C04A8001C0498041100BC06E
:102E8000FA814981F41307C056943A94A80CB91CEE
:102E90003110EFCF1DC0EE80FF808E2D9E81891BEB
:102EA000821590F765018C2D8A19821568F4242DFE
:102EB000A601B7018B819C813D830E94CA165FEFFA
:102EC000C51AD50A3D81EFCF8FEFE81AF80AE5CF92
:102ED0003F5FEE81FF81E80DF91DFF83EE830F5FF9
:102EE0001F4F363009F0BDCF27960FB6F894DEBFDE
:102EF0000FBECDBFDF91CF911F910F91FF90EF904B
:102F0000DF90CF90BF90AF909F908F907F906F9009
:102F10005F904F903F902F900895CF92EF920F9334
:102F2000CF93DF93EC016A3069F42D8989899A89FE
:102F300038E0239F800D911D11249A8B898B188A6C
:102F40001F862EC06D3061F1262F49895A896F8501
:102F50007889CD88EC880B890E94E8162D89422F4C
:102F600050E08F85988936E0239F800D911D1124B4
:102F7000988B8F872E89222399F06AEF6403900142
:102F8000659F300D112420583F4F2817390744F40E
:102F9000E881F9810190F081E02D6AE0CE01099588
:102FA00081E090E0DF91CF910F91EF90CF90089565
:102FB000CF92EF920F93CF93DF93EC016A3079F4C5
:102FC0003D89298D89899A89329F800D911D11240F
:102FD0009A8B898B8F8990E0988B8F872FC06D306B
:102FE00069F1262F49895A896F857889CD88EC88BF
:102FF0000B890E94E8162D89622F70E08F859889D1
:1030000036E0239F800D911D1124988B8F872E8988
:103010002223A1F0488D5AEF56039001579F300D9F
:103020001124240F311D2817390744F4E881F98150
:103030000190F081E02D6AE0CE01099581E090E0F9
:10304000DF91CF910F91EF90CF9008951F93CF9381
:10305000DF93C82FDFE3D81BC03288F41C2F117018
:1030600020E04C2F60E8812F0E94B60F20E04D2F0A
:1030700060E8812F0E94B60FCF5FD150EDCFDF9176
:10308000CF911F910895BF92CF92DF92EF92FF925E
:103090000F931F93CF93DF93E62E93E1F92EF80E53
:1030A00000E02BE0D22ED60E17E034E2C32EC60E7F
:1030B0004CE0B42EB60E80915B07081708F0A9C04B
:1030C000CDEECF0D823011F090E001C09CE09C0F5E
:1030D0009093790790937807E0927A0780EC91E0DB
:1030E0000E94920F80915B07823011F080E001C056
:1030F0008CE0C80FC0937907C0937807D0927A0705
:10310000C02FD0E01C9FF0011D9FF00D1124E45A48
:10311000F84F8081823018F40E948B0F04C08EEB30
:1031200091E00E94920F8EEB91E00E94920F1C9F03
:10313000F0011D9FF00D1124E15AF84F808182307B
:1031400010F40E948B0F84EC91E00E94920F1C9F60
:10315000F0011D9FF00D1124E35AF84F8081823059
:1031600018F40E948B0F04C08EEB91E00E94920F26
:103170008EEB91E00E94920F1C9FF0011D9FF00DBD
:103180001124E05AF84F8081823010F40E948B0F96
:1031900084EC91E00E94920F1C9FF0011D9FF00DA6
:1031A0001124E25AF84F8081823018F40E948B0F6C
:1031B00004C08EEB91E00E94920F8EEB91E00E9492
:1031C000920F1C9FF0011D9FF00D1124EF59F84F35
:1031D0008081823010F40E948B0F84EC91E00E9479
:1031E000920F80915B07282F30E021503109C217E0
:1031F000D3075CF4823011F040E001C04CE04F0D89
:1032000021E06C2D8B2D0E94D60F0F5F89E1F80E07
:1032100052CFDF91CF911F910F91FF90EF90DF90F0
:10322000CF90BF900895CF93DF93EC01E88181E0C8
:103230008E0F8883F0E0ED57FB4E84910E948B0F38
:103240008EEB91E00E94920FE88181E08E0F8883DF
:10325000F0E0ED57FB4E8491823018F40E948B0F02
:1032600004C08EEB91E00E94920F8EEB91E00E94E1
:10327000920FE88181E08E0F8883F0E0ED57FB4EDE
:103280008491DF91CF910C948B0FEBEA8E9FE12D0F
:103290001124E695E43028F4F0E0E257FE4F8081F7
:1032A00008958FEF0895FC018081883018F08A30EE
:1032B00070F408C0811102C087E007C09FEF980F2B
:1032C000908304C0883011F489E080838081089560
:1032D000FC018081883018F08A3070F408C0873093
:1032E00011F4108208C091E0980F908304C08930D7
:1032F00011F488E0808380810895DC0111969C910F
:103300001197963031F148F0993041F19A3049F1F6
:10331000983071F514968C91089514968C911497A9
:10332000811102C0E0E001C0E2E015968C91E80F47
:103330008CE0989F902D112483E0E89FF0011124E8
:10334000E90FF11DEB57FB4EE49181E0E13081F490
:1033500010C014969C9181E08927089515968C9150
:10336000089515969C91159714968C91892B089524
:1033700080E00895CF92DF92EF92FF920F931F9318
:10338000CF93DF93CDB7DEB760970FB6F894DEBF6B
:103390000FBECDBF8BE08D8788E28E8784E48F8758
:1033A00080E6888B8CE0E2E8F1E0DE011196019086
:1033B0000D928A95E1F7809109018C3018F08C30DC
:1033C00001F12CC0E1E0F0E0EC0FFD1FE80FF11D72
:1033D000608170E09BEA899F812D11248695FE0112
:1033E000E80FF11D858520E04BEF57E190E00E944A
:1033F000421620E04AEE57E16CE270E08BE790E085
:103400000BC080910202843049F420E040ED57E186
:1034100066E270E08AE790E00E94AD1608E116E0EF
:10342000E12CF12CF80136978081882309F43FC004
:10343000319680819801235031096901882371F008
:10344000F9014081442351F03196208130E050E071
:103450003297608170E090E00E94F60FF601808163
:103460009801215031096901882371F0F9014081E7
:10347000442351F0F801208130E050E03297608120
:1034800070E090E00E94F60FF6018081882379F0C9
:10349000F701E25FF94F4385442349F0248530E08A
:1034A00050E0F801608170E090E00E94F60FFDE0CE
:1034B000EF0EF11C035F1F4F24E0E21621E0F2063D
:1034C00009F0B0CF80918507909186078F71992779
:1034D00011E0409708F010E04091F201442369F0B8
:1034E0008091F401882349F0481307C0212F60918F
:1034F000F5018091F3010E94D60F8091F20188239B
:1035000069F06091F401662349F04091F3019091D4
:10351000F501491303C0212F0E94B60F4091F40119
:10352000442369F08091F601882349F0481307C0CD
:10353000212F6091F7018091F5010E94D60F8091B3
:10354000F401882369F06091F601662349F0409107
:10355000F5019091F701491303C0212F0E94B60F86
:103560004091F601442369F08091F801882349F0E5
:10357000481307C0212F6091F9018091F7010E9443
:10358000D60F8091F601882369F06091F8016623D7
:1035900049F04091F7019091F901491303C0212F9F
:1035A0000E94B60F209114072850223040F44AE8B8
:1035B00057E168E070E08DE090E00E9442162091B3
:1035C0001A072850223040F44AE857E16AE170E0D7
:1035D0008DE090E00E944216209120072850223072
:1035E00040F44AE857E16CE270E08DE090E00E9420
:1035F000421620912607CC24C394E22E0AE816E155
:1036000042E353E067E070E08AE290E00E94171422
:1036100020912C07E22E42E353E069E170E08AE258
:1036200090E00E94171420913207E22E42E353E00B
:103630006BE270E08AE290E00E9417142091380754
:10364000E22E42E353E065E070E086E490E00E9401
:10365000171420913E07E22E42E353E067E170E049
:1036600086E490E00E94171420914407E22E42E382
:1036700053E069E270E086E490E00E9417148091C4
:103680004A078A3079F589E497E00E947D198823FA
:1036900051F080918507909186078F719927409707
:1036A00020F022E003C020E001C021E048EF55E116
:1036B00063E070E081E690E00E9442162EE030E088
:1036C00046E750E06EE070E081E790E00E94F60F80
:1036D0002FE330E046E750E06EE070E086E790E0F0
:1036E0000E94F60F809150078A3079F58FE497E0B9
:1036F0000E947D19882351F080918507909186075B
:103700008F719927409720F022E003C020E001C08C
:1037100021E048EF55E165E170E081E690E00E942C
:10372000421620E230E046E750E060E270E081E7D8
:1037300090E00E94F60F2FE330E046E750E060E2B1
:1037400070E086E790E00E94F60F809156078A307D
:1037500079F585E597E00E947D19882351F08091E5
:103760008507909186078F719927409720F022E076
:1037700003C020E001C021E048EF55E167E270E0BE
:1037800081E690E00E94421622E330E046E750E0F6
:1037900062E370E081E790E00E94F60F2FE330E0F3
:1037A00046E750E062E370E086E790E00E94F60FA3
:1037B00020E030E046E750E060E070E080E090E03C
:1037C0000E94F60F27E330E040E050E065E070E053
:1037D00080E090E00E94F60F2AE330E044E050E001
:1037E00067E070E084E090E00E94F60F2FE330E0A5
:1037F00046E750E06FE370E080E090E00E94F60F53
:1038000021E048E76FE380E00E94D60F20E041EF1F
:1038100055E160E070E080E090E00E94421620E018
:103820004AEE55E16AE370E080E090E00E944216C3
:103830008091FB0181112AC08091FA01811126C07B
:1038400020E049ED55E160E070E08BE790E00E94F8
:10385000AD16809112071AE0612F0E94D62F282FF3
:1038600045EA55E168E170E08BE790E00E94AD1613
:1038700080911207612F0E94D62F292F45EA55E12A
:103880006DE170E08BE790E00E94AD168091FB0146
:10389000813091F480910901893070F4CC24C39473
:1038A000E12C0BE715E120E04FE855E16FEF7FEFEA
:1038B00087E790E00E9417148091FB01823091F419
:1038C00080910901893070F4CC24C394E12C0BE77A
:1038D00015E120E045E655E16FEF7FEF87E790E0E7
:1038E0000E9417148091FA01882301F1E0910901E7
:1038F000E930E0F480910A0136E0E39FF001112401
:10390000EE5EF84F9281963011F020E001C023E086
:10391000280FCC24C394E12C07ED14E14BEE54E1C5
:103920006FEF7FEF87E790E00E9417148091710797
:10393000882309F491C080910202843009F08CC080
:103940008091010200E028E18A3109F546E564E151
:1039500070E08FE090E00E94940F21E047E164E680
:1039600082E10E94B60F21E046E264E682E10E9415
:10397000B60F85E180937907809378078BE1809378
:103980007A0781E080937B0786EC91E055C042E5A1
:1039900064E170E081E190E00E94940F21E047E152
:1039A00060E684E10E94B60F21E047E260E684E130
:1039B0000E94B60F86E180937907809378078BE1A8
:1039C00080937A0711E010937B0787ED91E00E94C6
:1039D000920F80910001882361F001E028E046E029
:1039E0006BE170E081E590E00E94940F10927B07FC
:1039F00002C010937B0784EE91E00E94920F8AE54B
:103A000080937907809378078BE180937A07809180
:103A1000000181110CC001E028E046E06BE170E09C
:103A200089E590E00E94940F10927B0703C081E02B
:103A300080937B0786EE91E060960FB6F894DEBF28
:103A40000FBECDBFDF91CF911F910F91FF90EF90EF
:103A5000DF90CF900C94920F60960FB6F894DEBF73
:103A60000FBECDBFDF91CF911F910F91FF90EF90CF
:103A7000DF90CF900895FC01148215821682178280
:103A8000108611861286138614860895EF92FF928F
:103A90000F931F93CF93DF931F92CDB7DEB77C01B7
:103AA000FC0100811181C80169830E945D2F698139
:103AB000681719F0C8010E94652FC7010F90DF91A8
:103AC000CF911F910F91FF90EF9008950F931F9347
:103AD000CF93DF9300D0CDB7DEB7082F80EA91E017
:103AE0000E945D2F182F81EA91E00E945D2F011145
:103AF00004C01C3411F48835D9F080EA91E09A832F
:103B000089836CE4CE0101960E94461D81EA91E012
:103B10009A83898368E5CE0101960E94461D82EA58
:103B200091E09A83898360E0CE0101960E94461D50
:103B30000F900F90DF91CF911F910F910895CF9328
:103B4000DF931F92CDB7DEB76983DC01ED91FC9165
:103B50000280F381E02D41E050E0BE016F5F7F4FB6
:103B600009950F90DF91CF91089583E08093E9004C
:103B70008091F200882319F08AE38093E800089589
:103B8000FC018485958597FD0BC09FB7F89482E072
:103B90008093E9008091F2009FBF90E00196089524
:103BA0009FB7F89482E08093E9008091F2009FBF74
:103BB00090E0089540911408509115082091120842
:103BC0003091130842175307B4F49091E8009570B0
:103BD000E1F39091E80092FD19C08093F10080918B
:103BE00014089091150801968F739927892B19F461
:103BF0008EEF8093E800809114089091150801964B
:103C0000909315088093140881E0089580E008954A
:103C1000CF92DF92EF92FF920F931F93CF93DF9398
:103C20001F92CDB7DEB7182F062FE42E862F880FF0
:103C30008E5F99830E94DA1D83E00E94DA1DF12EC7
:103C4000C12E9981D92E8C2D8F19801798F4F601E9
:103C5000E7FE02C0849101C080810E94DA1D182F06
:103C600080E00E94DA1D8123FFEFCF1ADF0A811165
:103C7000EACF01C081E00F90DF91CF911F910F91AA
:103C8000FF90EF90DF90CF900895DF92EF92FF9238
:103C90000F931F93CF93DF93D82E8A017B01E40EFD
:103CA000F51EEB01CE15DF0571F0D7FE03C0FE0156
:103CB000849101C088810E94DA1D21968111F2CF82
:103CC0008FEF9FEF01C0C801DF91CF911F910F913E
:103CD000FF90EF90DF900895615030F02091F10057
:103CE000FC0120830196F8CF289884E680930C028B
:103CF00008950E945D1190E00895CF93DF931F9285
:103D0000CDB7DEB7FC018485958597FD05C02FEF03
:103D10003FEF358724870BC0CE0101960E943311F7
:103D2000019719F4898190E002C08FEF9FEF0F9007
:103D3000DF91CF9108950F931F93CF93DF931F923D
:103D4000CDB7DEB78C01FC018485958597FF0EC049
:103D5000CE0101960E943311019719F4298130E0B8
:103D600002C02FEF3FEFF80135872487F8018485E3
:103D700095850F90DF91CF911F910F9108950F932B
:103D80001F93CF93DF931F92CDB7DEB782E0898375
:103D900042E450E06CE378E180E80E94451E0E9416
:103DA000F311DC0112960D911C9113970115110569
:103DB00069F0D801ED91FC910280F381E02DBE0104
:103DC0006F5F7F4FC801099597FF07C089810F90EA
:103DD000DF91CF911F910F910895F8010085118512
:103DE000E5CF1F920F920FB60F9211248F939F93DE
:103DF0008091E1009091E100937F9093E10083FF37
:103E00000FC01092E90091E09093EB001092EC004B
:103E100092E39093ED0010920D0298E09093F000E1
:103E200082FF20C093E09093E9009091F2009923E3
:103E300019F09AE39093E80090910A02992339F0DF
:103E400090910A02915090930A02992389F19091DE
:103E50000C02992339F090910C02915090930C022E
:103E6000992341F184FF10C08091E2008E7E816031
:103E70008093E2008091E1008F7E8093E100809149
:103E80000B028E7E806111C080FF16C08091E2001F
:103E90008E7E80618093E2008091E1008E7E80932F
:103EA000E10080910B028E7E816080930B0204C042
:103EB0005D9ACDCF289AD6CF9F918F910F900FBE4C
:103EC0000F901F9018951F920F920FB60F9211240A
:103ED000CF92DF92EF92FF920F931F932F933F9316
:103EE0004F935F936F937F938F939F93AF93BF9302
:103EF000EF93FF93CF93DF93CDB7DEB76C97DEBF21
:103F0000CDBF1092E9008091E80083FFEDC168E029
:103F1000CE0145960E946C1E82EF8093E8008D8949
:103F200087FF05C09091E80090FFFCCF03C09EEF93
:103F30009093E800982F907609F0C6C09E892F894B
:103F4000188D91110CC0803829F48091110880934C
:103F5000F10002C01092F1001092F10048C1422F0E
:103F600050E0512B913051F4811141C14130510544
:103F700009F03DC1809111088D7F0BC0933061F431
:103F8000811135C14130510509F031C180911108CD
:103F90008260809311082BC1953041F48091E80034
:103FA00080FFFCCF20682093E30021C1963009F008
:103FB0005FC0EB8CFC8C1092E900109215081092F7
:103FC0001408123091F510921308109212080E94F2
:103FD000BF1E99E0BE016F5F7F4FDB01E92F1D928D
:103FE000EA95E9F799831A8391E09E8390EA98878E
:103FF0009AEF99872091140830911508275F3F4F59
:104000003C832B838D831092E90010921508109247
:104010001408F0921308E092120849E050E080E0A2
:104020000E94451E0E94BF1EE2C0F0921308E0925B
:1040300012080E94F311DC011296ED90FC90139788
:10404000E114F10409F4C0C0D701ED91FC910480A2
:10405000F581E02DBE016B5E7F4FC701099500978A
:1040600019F00CF0C4C0C7C0F701E084F184E8CFB8
:10407000973009F4C0C0983021F481E08093F100BA
:10408000B6C0993009F0B3C0837009F0B4C0E3E959
:10409000F1E081E021E036E39081992361F08093A3
:1040A000E9002093EB0091919093EC003093ED00A8
:1040B0008F5F873089F78EE78093EA001092EA00DD
:1040C0008F8980930D0293C08B8D9C8D1092E90097
:1040D00010921508109214089093130880931208F8
:1040E000898D811156C08E899D89913A59F481320A
:1040F00009F081C047E050E061E071E080E00E949B
:10410000451E75C0913209F076C0833289F4888DDE
:1041100090E0982F88272F89822BA0E0B0E0809331
:104120000D0190930E01A0930F01B09310015FC099
:10413000803269F48091E80082FFFCCF67E081E083
:1041400091E00E946C1E8BEF8093E80006C08232E3
:1041500009F04DC08F898093080180911008882351
:1041600019F0EEEFFAE002C0E0E0F8E08091010122
:1041700090910201A0910301B0910401803B944011
:10418000A105B10509F07BC08091080180FF93C0B3
:1041900076C00E94F311DC0112960D911C911397C9
:1041A0000115110541F1D801ED91FC910190F081CB
:1041B000E02DBE016B5E7F4FC8010995811117C0CC
:1041C000F80100851185ECCF113009F44EC0133091
:1041D00091F48F89882309F445C0823081F440E846
:1041E00060E180EA98E10E94081E882321F08EEFAA
:1041F0008093E80079C081E28093EB0075C0813044
:1042000029F440E86BE084E998E1EDCF833099F739
:104210000E94F311DC011296ED90FC9013978E0131
:104220000F5F1F4F6801E114F10479F0D701ED91A0
:10423000FC910680F781E02DB801C7010995080FB0
:10424000111DF701E084F184EECFD8011C92F60134
:1042500001900020E9F73197BF016C197D0940E01A
:10426000C601C1CF6EE778E102C062E878E161156E
:10427000710509F2FB01449150E080E840CF0FB690
:10428000F894A895809160008861809360001092F6
:1042900060000FBEA895EE3F2AE0F20739F080914A
:1042A000FE0A9091FF0A91838083A1CF1092FF0AAA
:1042B0001092FE0A9CCFEE3F8AE0F80731F0808131
:1042C00091819093FF0A8093FE0A87E797E7918395
:1042D00080839BE088E10FB6F894A89580936000F6
:1042E0000FBE9093600083CF6C960FB6F894DEBF3C
:1042F0000FBECDBFDF91CF91FF91EF91BF91AF91F5
:104300009F918F917F916F915F914F913F912F91ED
:104310001F910F91FF90EF90DF90CF900F900FBE05
:104320000F901F901895CF93DF9300D01F92CDB7B9
:10433000DEB7789484B5826084BD84B5816084BD25
:1043400085B5826085BD85B5816085BD80916E0033
:10435000816080936E001092810080918100826064
:1043600080938100809181008160809381008091A1
:1043700080008160809380008091910082608093B2
:1043800091008091910081608093910080919000D4
:104390008160809390008091C10084608093C1000F
:1043A0008091C10082608093C1008091C1008160D2
:1043B0008093C1008091C30081608093C30080918D
:1043C000C00082608093C0008091C20081608093B1
:1043D000C20080917A00846080937A0080917A0094
:1043E000826080937A0080917A00816080937A0065
:1043F00080917A00806880937A0010920D0210926A
:10440000110810920B028091D70081608093D70031
:1044100080EA8093D80089B5806189BD89B58260C2
:1044200089BD09B400FEFDCF61E070E080E090E05E
:104430000E947B128091D8008F7C80618093D8008D
:104440008091E000807F8093E0008091E1008E7E8B
:104450008093E1008DE08093E200559A209AEEEF80
:10446000FFE7859194918B3F9C4D19F481E08093F7
:10447000100881EC80937C0085B1806F85B984B190
:10448000877E84B984B1876E84B95E9A5F988AB159
:10449000806D8AB9769A6E9881B3806F81BB899856
:1044A00080B38D7080BB80E58CBD81E08DBD85E0E3
:1044B00090E00E94BD165F9A85E090E00E94BD16D4
:1044C0005E985C98E3EEF2E08DE08E0F94919EBDD5
:1044D00000000DB407FEFDCF31968E13F7CF5C9A26
:1044E00081E880936400809165008160809365001D
:1044F0000E94C21687FF15C05C9885EA8EBD000039
:104500000DB407FEFDCF5C9A2E982F982D988091C0
:10451000640080628093640081E083BF889513BE4D
:10452000FCCF02E010E00E94C21682FF40C02D982E
:104530000E94C21684788438C1F00E94C216847129
:10454000843181F52D9A88EC90E00E94BD162E985A
:104550001A83098360E0CE0101960E94461D84EF14
:1045600091E00E94BD162E9A18C02D9A88EC90E01A
:104570000E94BD162F981A8309836FEFCE01019612
:104580000E94461D84EF91E00E94BD162F9A0E9462
:10459000C21684788438D9F3D0CF0E94C2168471B1
:1045A0008431D9F388EC90E00E94BD16BCCF2D9ADF
:1045B00080E180938907809164008E7F80936400FE
:1045C00080917A00806480937A0080917A0086FDE1
:1045D000FCCF00917800109179000E94561220E0E3
:1045E00030E0980111270027600F711F821F931F71
:1045F000611571058105910511F00E94542F80917C
:10460000640081608093640011E01093940789E056
:104610008093970782E090E00E945D2F882329F025
:104620003E9A3F9A1093E80104C01092E8013E9828
:104630003F9880E00E94661D82EA91E00E945D2F13
:104640008093010283E0A82EB12C92EA892E99244E
:1046500093948FB7F8944091E9015091EA016091E9
:10466000EB017091EC018FBF80918A07342F381BCA
:10467000832FF0908B07FF2029F030938C07109246
:104680008B071DC690918907391748F48F5F8917EA
:1046900008F015C681E083BF889513BE10C611E0EF
:1046A00010938B0740938A07809185079091860726
:1046B0000196909386078093850780918707809362
:1046C00088070E94C2168093870780910202823079
:1046D00009F45FC028F4882381F0813031F1ECC502
:1046E000843009F452C108F4D4C0853009F0E4C51F
:1046F000A4E1B7E060E080E0B7C18BE480930902F9
:1047000010930202809171008D7F8093710010934D
:10471000000283E99DE09093FF018093FE01909356
:10472000FD018093FC010E940B1320E041E959E058
:1047300060E070E080E090E00E94AD168091850717
:1047400080FD07C080910902882319F08150809371
:10475000090210910902103298F4812F0E94261844
:1047600011110EC0CC24C394E12C07EB14E020E01F
:1047700043E257E06EE070E083E090E00E9417149F
:104780000E94C21687FFA3C50E94C21684FDB0C551
:104790009EC50E94FF1280910102E82FF0E0EE0F0B
:1047A000FF1FE65EFE4F208131818F5F80931207ED
:1047B000A6E1B7E080E090E0F901E80FF91F64910D
:1047C000AD0143505109FA0180834F5F5F4FFA01F9
:1047D000608341E08330910518F0673009F040E0D4
:1047E0004C93019616968C30910531F7F9013C9661
:1047F000E491E0935B07A901435F5F4F82E197E09B
:104800002A5E3F4FFA016491DC01A65BBF4FE62FA1
:10481000F0E074E0F595E7957A95E1F7EC93FC010B
:10482000E35BFF4F6F706083FA013196E49111965C
:104830006E2F70E0F4E075956795FA95E1F76C934B
:104840001396EF70EC93FA013296E49112976E2F63
:1048500070E014E0759567951A95E1F76C931396DF
:10486000EF70EC934D5F5F4F07964217530751F679
:104870000EE016E0C8010E943B1D035F1F4FF7E0EA
:1048800002311F07B9F783E08093020288E2809328
:10489000090220E041E959E060E070E080E090E04A
:1048A0000E94AD1680E00E94261800E020E441E559
:1048B00060E070E087E190E00E94940F01E02AE060
:1048C0004DE460E070E089E190E00E94940F8CE19B
:1048D000809379078093780711E010937A071092FC
:1048E0007B0789E991E00E94920F809112070AE00C
:1048F000602F0E94D62F90E00E94EE108091120748
:10490000602F0E94D62F892F90E00E94EE10109306
:104910007B0721E049E160E480E00E94D60F21E0BE
:1049200045E660E480E00E94D60F21E04FE365E6B3
:1049300089E10E94B60F6DE080E20E9443188091E9
:104940000902882319F0815080930902809109029D
:10495000811115C089E3809379078093780785E3F7
:1049600080937A0780EA91E00E94920F20E04DEA5E
:1049700054E065E370E087E590E00E94421688E02D
:104980000E947B108111B5C397C480917107882361
:1049900091F18FEF80930A0180930B0180930C01BA
:1049A00080E20E947B10882329F0809100018823F7
:1049B00009F4B2C480E40E947B10882321F0809126
:1049C00000018111ACC4109101021A3131F188E06B
:1049D0000E947B10882321F0809100018111A2C4E4
:1049E00088E00E947B108823C1F080910001882319
:1049F00009F4A8C412C01092FB011092FA01809130
:104A000009018C3009F0A1C488E00E947B10882342
:104A100009F49BC485E0809302020E94BA194CC439
:104A20002DEF280F263008F461E0963009F19A3016
:104A300009F541E091E020E030E050E0F901E25F6B
:104A4000F94F7481711119C0235F3F4F243071E019
:104A50003707A1F7552301F19923F1F04423E1F041
:104A60008F5F16968C30B1F09C919730C9F6F8CFD5
:104A700040E0E0CF40E090E0DECF7181781301C0EC
:104A800041E072817813E0CF738171110C942C2E68
:104A900051E0DACF611107C080910602813029F41C
:104AA0001092060202C0FF24F3940E94BA1900E09B
:104AB00027E348E260E070E080E090E00E94940F1D
:104AC00025E346E261E070E081E090E00E94BE10E4
:104AD00021E049E264E285E00E94B60F81E0809324
:104AE0007B0708E0009379070093780784E08093C0
:104AF0007A0789E994E00E949D100093790700935A
:104B000078078BE280937A0784E994E00E949D10F5
:104B100010927B0710910602E12FF0E0EB5EFE4F52
:104B20006081009379070093780760937A0770E0BB
:104B300001E028E040E284E090E00E94940FF11050
:104B400009C020E04CE854E06DE070E08EE190E0B8
:104B50000E94AD161230D1F038F41123A1F01130BB
:104B6000C9F582E894E034C01330F9F0143091F5BF
:104B700088E080937907809378078BE280937A07A7
:104B80008EE694E025C087E894E022C08DE794E0AB
:104B90000E949D104BEFC42EE12C00E010E020E0BD
:104BA00048E754E068E170E00EC083E794E00E94BB
:104BB0009D103BEFC32EE12C00E010E020E048E721
:104BC00054E061E270E08FE190E00E94171402C0AF
:104BD0000E949D1081E080937B07809105028230C6
:104BE00009F4BFC0833009F4F5C0813009F0CEC1AB
:104BF00080910402843618F48F5F8093040260E091
:104C000080E00E949110109104028FEF810F8F308D
:104C100078F480915B07882359F0809162078111B5
:104C200003C060E080E202C080E060E20E94911078
:104C30008FED810F8F3078F480915B07823058F0D0
:104C400080916907811103C060E080E202C080E0CA
:104C500060E20E94911011541F3078F480915B073C
:104C6000833058F080917007811103C060E080E2CA
:104C700002C080E060E20E94911000E029E34EE46F
:104C800068E070E084E290E00E94940F27E34CE437
:104C900069E070E085E290E00E94BE1021E043E10F
:104CA0006EE688E20E94B60F8AE2809379078093CD
:104CB00078078AE080937A0786EA91E00E94920F53
:104CC00008E110E09BE2E92E27E0D22E20915B075D
:104CD000121788F5E0927907E092780700937A0737
:104CE00084EB91E00E94920F612E712CC30101961A
:104CF0000E94EE108AEB91E00E94920FD69CF00188
:104D0000D79CF00D1124EE59F84F80819DE0199F3A
:104D1000B0011124695E7F4F20E0882319F048E537
:104D200054E002C042E454E080E690E00E94421663
:104D30001F5F035FCBCFE2E6F7E080E091E08217F0
:104D400039F03081311101C090E08F5F3796F7CF95
:104D5000992309F41BC181E0809371071092090126
:104D600015C100E029E34EE468E070E084E290E0E1
:104D70000E94940F27E34CE469E070E085E290E044
:104D80000E94BE1021E043E16EE688E20E94B60F69
:104D90008AE280937907809378071AE010937A0764
:104DA00089E991E00E94920F80911207612F0E9481
:104DB000D62F90E00E94EE1080911207612F0E9482
:104DC000D62F892F90E00E94EE1067E18BE20E94BF
:104DD0004318DCC000E029E341E568E070E084E2CC
:104DE00090E00E94940F27E34FE469E070E085E2D1
:104DF00090E00E94BE1001E027E347E069E070E028
:104E000081E790E00E94940F20E04BE354E06AE0D9
:104E100070E082E790E00E94AD1620E044E354E0A9
:104E200066E370E082E790E00E94AD1621E043E186
:104E30006EE688E20E94B60F2091030242E353E03F
:104E400061E270E083E390E00E94AD1688E2809317
:104E50007907809378071AE010937A07E0910302AC
:104E6000F0E0EE0FFF1FEC5DFC4F859194910E94E6
:104E70009D10809103028630B1F085E5809379071B
:104E80008093780710937A078EE193E00E949D103B
:104E90008AE2809379078093780780E280937A078B
:104EA0008AE193E015C085E58093790780937807C0
:104EB00010937A0784E193E00E949D108AE2809328
:104EC00079078093780784E280937A0782E193E000
:104ED0000E949D1087E4809379078093780785E28C
:104EE00080937A0780E193E00E949D1080910302F5
:104EF0009CE0899F802D1124898315E51093790703
:104F00001093780785E180937A07CE0101960E947D
:104F1000131921E04EE16EE682E50E94B60F109370
:104F200079071093780780E280937A07CE01019683
:104F30000E94131921E049E26EE682E50E94B60F55
:104F400080910302863011F110937907109378074E
:104F50008BE280937A07CE0101960E94131921E01B
:104F600044E36EE682E50E94B60F10937907109332
:104F7000780786E380937A07CE0101960E94131981
:104F800021E04FE36EE682E50E94B60F80E80E94C2
:104F90007B10882379F080910602882359F0909144
:104FA0000502911107C0823009F05DC6F1105BC6A1
:104FB0001092060280E80E947B10882371F0809195
:104FC0000502833051F483E092E00E9468198091D9
:104FD0000302873011F41092030280E10E947B10DB
:104FE000882379F080910602843058F4909105026C
:104FF000911107C081113BC6F11039C682E0809340
:10500000060280E10E947B10882379F080910502DE
:10501000833059F483E092E00E9453198091030297
:10502000873019F486E08093030280E40E947B10AD
:10503000882349F080910602823029F4909105027C
:10504000992309F416C680E40E947B10882349F056
:1050500080910602833029F490910502992309F486
:105060000BC680E20E947B10882321F0809105020C
:10507000811105C684E00E947B10882329F080916D
:105080000502882309F402C684E00E947B1088236D
:1050900021F080910502811104C688E00E947B10F6
:1050A000882309F409C180910602823009F4F4C012
:1050B00060F48823B9F0813009F0FEC01092040238
:1050C00000E017E0DD24D39479C0833009F4E4C014
:1050D000843009F0F1C0109206021092050210927D
:1050E0000202EAC08FEF80930A0180930B01809344
:1050F0000C0184E080930202DFC0E02EF12C1E9DA3
:10510000C0011F9D900D11248E5E984FFC01E05B45
:10511000FF4FD08236978081823008F455C01E9DA3
:10512000F0011F9DF00D1124E35AF84F8081823069
:1051300008F452C01E9DF0011F9DF00D1124E25A8B
:10514000F84F8081823008F44FC083E197E00E94DD
:10515000D50E1E9DF0011F9DF00D1124DF01AE5EE6
:10516000B84F2D013D01BDE46B0E711CF301808130
:10517000823008F441C01E9DF0011F9DF00D1124E6
:105180009F012E5E384F290139013EE4630E711CE8
:10519000D3018C918230E8F11E9DF0011F9DF00D2E
:1051A00011249F012E5E384F790139013FE4630ECF
:1051B000711CD3018C918230C8F10F5F20915B0785
:1051C000021708F49ACF3FC0882311F088E001C08D
:1051D00089E080931407A3CF882311F088E001C0F1
:1051E00089E080931A07A6CF882311F088E001C0D8
:1051F00089E080932007A9CF89E497E00E947D1978
:1052000090E0D3012C9130E08217930709F050C54C
:10521000B2CF8FE497E00E947D1990E0F3012081E6
:1052200030E08217930709F048C5B6CF85E597E0CF
:105230000E947D1990E0F301208130E082179307EE
:1052400009F040C5BACFE2E6F7E080E091E08217CE
:1052500039F03081311101C090E08F5F3796F7CF80
:10526000911103C080EF92E002C08EEF92E0209196
:1052700071002D7F2093710011E010930002909334
:10528000FF018093FE019093FD018093FC010E9439
:105290000B131093050210C0809305020DC09D33BF
:1052A00001F51092080260E080E00E94911081E018
:1052B0000E94661D1092010281E00E94241180E08C
:1052C00090E0892B09F4C5C90E940000C2C98091F1
:1052D0000802882331F060E080E00E949110109273
:1052E000080288E00E947B10882331F382E002CF1D
:1052F000909108029F5F90930802953190F39D333F
:1053000070F620E430E0A901491B5109CA0160E0B0
:10531000880F0E949110E5CF109300014BCB1092A3
:10532000000151CB61E0610F609301029A82898292
:10533000CE0101960E94461D1092710782E0809373
:1053400002024ECB1092710768CB0E94C21682FDFA
:1053500005C084E00E948610882329F00E94C216AE
:1053600083FD0BC0D3C20E94C21683FDF7CF88E035
:105370000E9486108111F2CFFDC3E091090126E061
:10538000E29FF0011124EE5EF84F1281173009F40C
:1053900044CB88E00E947B108823B9F080910A01F9
:1053A00090E00196B5010E94E22F80930A01163029
:1053B00029F4019719F482E080930A018FEF80931A
:1053C0000B018DEE91E00E943B1D81E08093FA017C
:1053D00090910901993028F480910A01933028F0C6
:1053E000D6C09C3008F411C218CB823020F0823035
:1053F00009F456C012CB80E20E947B10882359F03A
:1054000080910B018A3F21F08F3F29F48AEF01C080
:105410008BEF80930B0180E40E947B10882359F06E
:1054200080910B018A3F21F08B3F29F48AEF01C064
:105430008FEF80930B018DEE91E00E943B1D8091D8
:105440000B018B3F99F48CE08093F201809109016C
:1054500092E1899F902D112480910A01811186E0AB
:10546000975F890F8093F30191E015C08A3F09F09F
:10547000D4CA8CE08093F2018091090192E1899F66
:10548000902D112480910A01811186E0975F890F88
:105490008093F30194E09093F4018093F501BDCAE9
:1054A00080E80E947B10882319F080E00E94910D13
:1054B00080E10E947B10882319F080E00E94380D63
:1054C00080E40E947B10882319F089E00E94E40D9B
:1054D00080E20E947B10882319F089E00E945C0E14
:1054E000F0900B013FEFF31609F4B0C310910901DE
:1054F0008EE18093F201812F0E94451922E1E22E74
:105500001E9D800D1124845F8093F3012BEAF29E8F
:10551000012D11240695129F212D11242695021B81
:1055200001509CE1099F002D1124922F990F290F02
:10553000121B110F105E100F1093F4018093F501F0
:105540001093F6018F2D0E944519282F8F2D63E0AF
:105550000E94D62F9E9D902D1124985F46E0F49EC8
:10556000F0011124EE5EF84F8281863011F030E0B8
:1055700001C034E0920F20910C01211128E0390F75
:10558000230F2093F701075D0093F8013BC18230A0
:1055900020F0823009F4B7C040CA80E80E947B1036
:1055A000882319F080E20E94910D80E10E947B1017
:1055B000882319F080E10E94380D80E40E947B105E
:1055C000882319F086E00E94E40D80E20E947B109F
:1055D000882319F086E00E945C0E8DEE91E00E9417
:1055E0003B1DF09009018BEAF89E812D1124E82ED5
:1055F000E6949CE1E99E902D11241DE0190F109373
:10560000F20156E0F59EF0011124EE5EF84F828122
:10561000863011F008E001C00CE08F2D0E94451982
:105620002BEAF29E212D1124922F9695292F220FDD
:10563000290F9F2D921B800F382F62E1969F300D0E
:10564000112420910A01211128E0320F3093F30137
:1056500020910B012B3F99F02F3F09F4DEC92A3F1F
:10566000F1F4292F2195220F2250922F910F909320
:10567000F4013093F5019093F6018EE30DC0292FCC
:105680002195220F2250922F910F9093F401309385
:10569000F5019093F60182E08093F701BEC90BEA11
:1056A000209F012D11240695802F880F800FF22E48
:1056B000F81A9F2D990F9C5E910F8E2D801B7CE117
:1056C000879F901911249093F4013093F5019093E2
:1056D000F601822F2B830E94451992E1F99E800DDD
:1056E0001124845F8093F7019CE1099F002D112410
:1056F0002B81233010F090E001C094E0065E090F8A
:105700000093F80100C180E80E947B10882319F003
:1057100080E00E94910D80E10E947B10882319F0A7
:1057200080E00E94380D80E40E947B10882319F0ED
:1057300089E00E94E40D80E20E947B10882319F02A
:1057400089E00E945C0ED0900B01AFEFDA1609F4ED
:105750007DC29BEAD99EF12C1124F6941091090187
:10576000199FE12C1124E6940CE1602EE69C002D9B
:105770001124025E0093F201812F0E9445199E2D93
:10578000990F9E0D191B92E1792E179D800D112402
:10579000845F8093F301110F1E5F100F3F2D3E19A0
:1057A0003150369D100D11241093F4018093F501B2
:1057B0001093F6018D2D0E944519282F8D2D63E041
:1057C0000E94D62F979D902D1124985FB6E0DB9E06
:1057D000F0011124EE5EF84F8281863011F030E046
:1057E00001C034E0920F20910C01211128E0390F03
:1057F000230F2093F7018CE1F89E802D1124835F05
:105800008093F8012093F90108C980E80E947B1079
:10581000882319F080E00E94910D80E10E947B10A6
:10582000882319F080E00E94380D80E40E947B10EC
:10583000882319F086E00E94E40D80E20E947B102C
:10584000882319F086E00E945C0E8DEE91E00E94A4
:105850003B1DF09009011BEAF19EE12C1124E69416
:10586000D0900B01D19E112D112416957E2C711A0A
:10587000EFEFDE1609F4D1C80CE1E09E002D1124F3
:10588000035F0093F2018F2D0E9445199E2D990F01
:10589000E90EFE1892E1F99E902D1124985F209157
:1058A0000A01211128E0980F290F2093F3018D2D73
:1058B00063E00E94D62F892F880F8C5E080FFCE1D1
:1058C0007F9E001911240093F4012093F5010093A9
:1058D000F6018D2D9B830E9445199B8122E1929FA9
:1058E000800D1124845F8093F7019CE1199F102D96
:1058F000112432E03D1510F490E001C094E0165EF2
:10590000190F1093F8018093F90187C888E00E946D
:105910008610882309F492C080910B018F3F09F40F
:1059200083C0909109019F3F09F47EC0891709F453
:105930007BC040910A0150910C0100E116E06FE03C
:1059400076E0E2E1F6E0A1E16A2EA6E07A2E24E11B
:10595000B6E0DB2ED80E7F01A4E0EA1AF108B1E030
:10596000BD1518F0DB013C910FC0DB013C9198178D
:1059700058F4391319C0D8013C91381315C0D3011C
:105980003C91351311C00AC038130EC0D8013C91A8
:1059900039130AC0D3013C91341306C0308133233C
:1059A00019F0F701148240C02150035F1F4F635F5D
:1059B0007F4F3D963DE0630E711C2111CCCF20E05E
:1059C00030E0F901E25FF94F6481611127C061E0C5
:1059D0006D1530F4981720F491838283538303C0AC
:1059E00081839283438381E084838091F201858364
:1059F0008091F30186838091F40187838091F50182
:105A000080878091F60181878091F701828780915C
:105A1000F80183878091F901848706C0235F3F4F97
:105A2000243071E0370769F68DEE91E00E943B1D4E
:105A300083E197E00E94D50E0C940D250E94C216BA
:105A400082FF58C084E00E947B10009109018823E6
:105A500049F086E0089FF0011124EE5EF84F828144
:105A6000809307028BEA089F812D1124869583304D
:105A700020F08330D1F10C940D25E02EF12C96E02E
:105A8000099F80011124D801AE5EB84F3D011496E4
:105A90008C91882351F180E80E947B10882359F073
:105AA000C8018C5E984F0E946819F301828383E1DC
:105AB00097E00E94D50E80E10E947B10882399F028
:105AC00086E08E9D80018F9D100D1124C8018C5E93
:105AD000984F0E945319F801EE5EF84F828383E1DC
